{
  "contractName": "AggregatorContract",
  "abi": [
    {
      "inputs": [
        {
          "internalType": "address",
          "name": "_sourceVCscreen",
          "type": "address"
        },
        {
          "internalType": "address",
          "name": "_sourceVCbluetooth",
          "type": "address"
        },
        {
          "internalType": "uint256",
          "name": "_timeStart",
          "type": "uint256"
        },
        {
          "internalType": "uint256",
          "name": "_timeEnd",
          "type": "uint256"
        },
        {
          "internalType": "uint256",
          "name": "_timeDuration",
          "type": "uint256"
        }
      ],
      "stateMutability": "nonpayable",
      "type": "constructor"
    },
    {
      "anonymous": false,
      "inputs": [
        {
          "indexed": true,
          "internalType": "address",
          "name": "previousOwner",
          "type": "address"
        },
        {
          "indexed": true,
          "internalType": "address",
          "name": "newOwner",
          "type": "address"
        }
      ],
      "name": "OwnershipTransferred",
      "type": "event"
    },
    {
      "inputs": [],
      "name": "attributesManager_bluetoothUsed",
      "outputs": [
        {
          "internalType": "address",
          "name": "",
          "type": "address"
        }
      ],
      "stateMutability": "view",
      "type": "function",
      "constant": true
    },
    {
      "inputs": [],
      "name": "attributesManager_screenUsage",
      "outputs": [
        {
          "internalType": "address",
          "name": "",
          "type": "address"
        }
      ],
      "stateMutability": "view",
      "type": "function",
      "constant": true
    },
    {
      "inputs": [],
      "name": "owner",
      "outputs": [
        {
          "internalType": "address",
          "name": "",
          "type": "address"
        }
      ],
      "stateMutability": "view",
      "type": "function",
      "constant": true
    },
    {
      "inputs": [],
      "name": "renounceOwnership",
      "outputs": [],
      "stateMutability": "nonpayable",
      "type": "function"
    },
    {
      "inputs": [
        {
          "internalType": "address",
          "name": "newOwner",
          "type": "address"
        }
      ],
      "name": "transferOwnership",
      "outputs": [],
      "stateMutability": "nonpayable",
      "type": "function"
    },
    {
      "inputs": [
        {
          "internalType": "uint256",
          "name": "",
          "type": "uint256"
        }
      ],
      "name": "values",
      "outputs": [
        {
          "internalType": "uint256",
          "name": "periodTime_start",
          "type": "uint256"
        },
        {
          "internalType": "uint256",
          "name": "value_screenUsage",
          "type": "uint256"
        },
        {
          "internalType": "bool",
          "name": "extrapolated_screenUsage",
          "type": "bool"
        },
        {
          "internalType": "bool",
          "name": "value_bluetoothUsed",
          "type": "bool"
        },
        {
          "internalType": "bool",
          "name": "extrapolated_bluetoothUsed",
          "type": "bool"
        }
      ],
      "stateMutability": "view",
      "type": "function",
      "constant": true
    },
    {
      "inputs": [
        {
          "internalType": "uint256",
          "name": "_time",
          "type": "uint256"
        }
      ],
      "name": "update_collectionTime_end",
      "outputs": [],
      "stateMutability": "nonpayable",
      "type": "function"
    },
    {
      "inputs": [
        {
          "internalType": "uint256",
          "name": "_time",
          "type": "uint256"
        }
      ],
      "name": "update_collectionTime_duration",
      "outputs": [],
      "stateMutability": "nonpayable",
      "type": "function"
    },
    {
      "inputs": [],
      "name": "get_collectionTime_start",
      "outputs": [
        {
          "internalType": "uint256",
          "name": "",
          "type": "uint256"
        }
      ],
      "stateMutability": "view",
      "type": "function",
      "constant": true
    },
    {
      "inputs": [],
      "name": "get_collectionTime_end",
      "outputs": [
        {
          "internalType": "uint256",
          "name": "",
          "type": "uint256"
        }
      ],
      "stateMutability": "view",
      "type": "function",
      "constant": true
    },
    {
      "inputs": [],
      "name": "get_collectionTime_duration",
      "outputs": [
        {
          "internalType": "uint256",
          "name": "",
          "type": "uint256"
        }
      ],
      "stateMutability": "view",
      "type": "function",
      "constant": true
    },
    {
      "inputs": [],
      "name": "valuesCollectionIsOver",
      "outputs": [
        {
          "internalType": "bool",
          "name": "",
          "type": "bool"
        }
      ],
      "stateMutability": "view",
      "type": "function",
      "constant": true
    },
    {
      "inputs": [
        {
          "internalType": "uint256",
          "name": "_time",
          "type": "uint256"
        }
      ],
      "name": "updateAttributeValues",
      "outputs": [
        {
          "internalType": "bool",
          "name": "changesMade",
          "type": "bool"
        }
      ],
      "stateMutability": "nonpayable",
      "type": "function"
    },
    {
      "inputs": [
        {
          "internalType": "uint256",
          "name": "_time",
          "type": "uint256"
        }
      ],
      "name": "getAttributeValues",
      "outputs": [
        {
          "components": [
            {
              "internalType": "uint256",
              "name": "periodTime_start",
              "type": "uint256"
            },
            {
              "internalType": "uint256",
              "name": "value_screenUsage",
              "type": "uint256"
            },
            {
              "internalType": "bool",
              "name": "extrapolated_screenUsage",
              "type": "bool"
            },
            {
              "internalType": "bool",
              "name": "value_bluetoothUsed",
              "type": "bool"
            },
            {
              "internalType": "bool",
              "name": "extrapolated_bluetoothUsed",
              "type": "bool"
            }
          ],
          "internalType": "struct ALPSBase.AttributeValues",
          "name": "",
          "type": "tuple"
        }
      ],
      "stateMutability": "view",
      "type": "function",
      "constant": true
    },
    {
      "inputs": [
        {
          "internalType": "uint256",
          "name": "_idx",
          "type": "uint256"
        }
      ],
      "name": "getAttributeValuesByIndex",
      "outputs": [
        {
          "components": [
            {
              "internalType": "uint256",
              "name": "periodTime_start",
              "type": "uint256"
            },
            {
              "internalType": "uint256",
              "name": "value_screenUsage",
              "type": "uint256"
            },
            {
              "internalType": "bool",
              "name": "extrapolated_screenUsage",
              "type": "bool"
            },
            {
              "internalType": "bool",
              "name": "value_bluetoothUsed",
              "type": "bool"
            },
            {
              "internalType": "bool",
              "name": "extrapolated_bluetoothUsed",
              "type": "bool"
            }
          ],
          "internalType": "struct ALPSBase.AttributeValues",
          "name": "",
          "type": "tuple"
        }
      ],
      "stateMutability": "view",
      "type": "function",
      "constant": true
    }
  ],
  "bytecode": "0x60806040523480156200001157600080fd5b50604051620019ed380380620019ed83398181016040528101906200003791906200026a565b620000576200004b620000f960201b60201c565b6200010160201b60201c565b84600460006101000a81548173ffffffffffffffffffffffffffffffffffffffff021916908373ffffffffffffffffffffffffffffffffffffffff16021790555083600560006101000a81548173ffffffffffffffffffffffffffffffffffffffff021916908373ffffffffffffffffffffffffffffffffffffffff1602179055508260018190555081600281905550806003819055505050505050620002f2565b600033905090565b60008060009054906101000a900473ffffffffffffffffffffffffffffffffffffffff169050816000806101000a81548173ffffffffffffffffffffffffffffffffffffffff021916908373ffffffffffffffffffffffffffffffffffffffff1602179055508173ffffffffffffffffffffffffffffffffffffffff168173ffffffffffffffffffffffffffffffffffffffff167f8be0079c531659141344cd1fd0a4f28419497f9722a3daafe3b4186f6b6457e060405160405180910390a35050565b600080fd5b600073ffffffffffffffffffffffffffffffffffffffff82169050919050565b6000620001f782620001ca565b9050919050565b6200020981620001ea565b81146200021557600080fd5b50565b6000815190506200022981620001fe565b92915050565b6000819050919050565b62000244816200022f565b81146200025057600080fd5b50565b600081519050620002648162000239565b92915050565b600080600080600060a08688031215620002895762000288620001c5565b5b6000620002998882890162000218565b9550506020620002ac8882890162000218565b9450506040620002bf8882890162000253565b9350506060620002d28882890162000253565b9250506080620002e58882890162000253565b9150509295509295909350565b6116eb80620003026000396000f3fe608060405234801561001057600080fd5b50600436106100f55760003560e01c8063740ceee611610097578063a91a2ab911610066578063a91a2ab914610268578063ef2cb2ca14610298578063f1df688a146102b6578063f2fde38b146102d2576100f5565b8063740ceee6146101de5780638da5cb5b146101fc5780639b334e5c1461021a5780639c957e3214610238576100f5565b8063269aa531116100d3578063269aa531146101525780635e383d21146101825780636efbb05b146101b6578063715018a6146101d4576100f5565b806307785498146100fa57806319a3786114610118578063230edb9014610134575b600080fd5b6101026102ee565b60405161010f9190611050565b60405180910390f35b610132600480360381019061012d91906110b5565b61033e565b005b61013c6103c4565b60405161014991906110f1565b60405180910390f35b61016c600480360381019061016791906110b5565b6103ce565b6040516101799190611192565b60405180910390f35b61019c600480360381019061019791906110b5565b61048e565b6040516101ad9594939291906111ad565b60405180910390f35b6101be6104fb565b6040516101cb91906110f1565b60405180910390f35b6101dc610505565b005b6101e661058d565b6040516101f39190611241565b60405180910390f35b6102046105b3565b6040516102119190611241565b60405180910390f35b6102226105dc565b60405161022f91906110f1565b60405180910390f35b610252600480360381019061024d91906110b5565b6105e6565b60405161025f9190611192565b60405180910390f35b610282600480360381019061027d91906110b5565b610758565b60405161028f9190611050565b60405180910390f35b6102a0610d91565b6040516102ad9190611241565b60405180910390f35b6102d060048036038101906102cb91906110b5565b610db7565b005b6102ec60048036038101906102e79190611288565b610e3d565b005b60006003546006600160068054905061030791906112e4565b8154811061031857610317611318565b5b9060005260206000209060030201600001546103349190611347565b6002541115905090565b610346610f34565b73ffffffffffffffffffffffffffffffffffffffff166103646105b3565b73ffffffffffffffffffffffffffffffffffffffff16146103ba576040517f08c379a00000000000000000000000000000000000000000000000000000000081526004016103b1906113fa565b60405180910390fd5b8060038190555050565b6000600154905090565b6103d6611000565b6103de611000565b60068054905083106103f35780915050610489565b6006838154811061040757610406611318565b5b90600052602060002090600302016040518060a001604052908160008201548152602001600182015481526020016002820160009054906101000a900460ff161515151581526020016002820160019054906101000a900460ff161515151581526020016002820160029054906101000a900460ff1615151515815250509150505b919050565b6006818154811061049e57600080fd5b90600052602060002090600302016000915090508060000154908060010154908060020160009054906101000a900460ff16908060020160019054906101000a900460ff16908060020160029054906101000a900460ff16905085565b6000600354905090565b61050d610f34565b73ffffffffffffffffffffffffffffffffffffffff1661052b6105b3565b73ffffffffffffffffffffffffffffffffffffffff1614610581576040517f08c379a0000000000000000000000000000000000000000000000000000000008152600401610578906113fa565b60405180910390fd5b61058b6000610f3c565b565b600560009054906101000a900473ffffffffffffffffffffffffffffffffffffffff1681565b60008060009054906101000a900473ffffffffffffffffffffffffffffffffffffffff16905090565b6000600254905090565b6105ee611000565b6105f6611000565b60015483108061064957506003546006600160068054905061061891906112e4565b8154811061062957610628611318565b5b9060005260206000209060030201600001546106459190611347565b8310155b156106575780915050610753565b6000600160068054905061066b91906112e4565b90505b60008110610750576006818154811061068a57610689611318565b5b906000526020600020906003020160000154841061073d57600681815481106106b6576106b5611318565b5b90600052602060002090600302016040518060a001604052908160008201548152602001600182015481526020016002820160009054906101000a900460ff161515151581526020016002820160019054906101000a900460ff161515151581526020016002820160029054906101000a900460ff16151515158152505092505050610753565b80806107489061141a565b91505061066e565b50505b919050565b600060015482108061076e575061076d6102ee565b5b1561077c5760009050610d8c565b60008060068054905003610a485760035460015461079a9190611347565b8310610a3d576000600460009054906101000a900473ffffffffffffffffffffffffffffffffffffffff1673ffffffffffffffffffffffffffffffffffffffff16639ca4361160015460016003546001546107f59190611347565b6107ff91906112e4565b6040518363ffffffff1660e01b815260040161081c929190611443565b600060405180830381865afa158015610839573d6000803e3d6000fd5b505050506040513d6000823e3d601f19601f8201168201806040525081019061086291906115da565b60008151811061087557610874611318565b5b60200260200101519050600080600560009054906101000a900473ffffffffffffffffffffffffffffffffffffffff1673ffffffffffffffffffffffffffffffffffffffff16639ca4361160015460016003546001546108d59190611347565b6108df91906112e4565b6040518363ffffffff1660e01b81526004016108fc929190611443565b600060405180830381865afa158015610919573d6000803e3d6000fd5b505050506040513d6000823e3d601f19601f8201168201806040525081019061094291906115da565b60008151811061095557610954611318565b5b602002602001015111905060066040518060a0016040528060015481526020018481526020016000151581526020018315158152602001600015158152509080600181540180825580915050600190039060005260206000209060030201600090919091909150600082015181600001556020820151816001015560408201518160020160006101000a81548160ff02191690831515021790555060608201518160020160016101000a81548160ff02191690831515021790555060808201518160020160026101000a81548160ff0219169083151502179055505050600192505050610a47565b6000915050610d8c565b5b600060035460066001600680549050610a6191906112e4565b81548110610a7257610a71611318565b5b906000526020600020906003020160000154610a8e9190611347565b90505b60035481610a9f9190611347565b8410610d86576000600460009054906101000a900473ffffffffffffffffffffffffffffffffffffffff1673ffffffffffffffffffffffffffffffffffffffff16639ca436116001546001600354600154610afa9190611347565b610b0491906112e4565b6040518363ffffffff1660e01b8152600401610b21929190611443565b600060405180830381865afa158015610b3e573d6000803e3d6000fd5b505050506040513d6000823e3d601f19601f82011682018060405250810190610b6791906115da565b600081518110610b7a57610b79611318565b5b60200260200101519050600080600560009054906101000a900473ffffffffffffffffffffffffffffffffffffffff1673ffffffffffffffffffffffffffffffffffffffff16639ca436116001546001600354600154610bda9190611347565b610be491906112e4565b6040518363ffffffff1660e01b8152600401610c01929190611443565b600060405180830381865afa158015610c1e573d6000803e3d6000fd5b505050506040513d6000823e3d601f19601f82011682018060405250810190610c4791906115da565b600081518110610c5a57610c59611318565b5b602002602001015111905060066040518060a001604052808581526020018481526020016000151581526020018315158152602001600015158152509080600181540180825580915050600190039060005260206000209060030201600090919091909150600082015181600001556020820151816001015560408201518160020160006101000a81548160ff02191690831515021790555060608201518160020160016101000a81548160ff02191690831515021790555060808201518160020160026101000a81548160ff021916908315150217905550505060035460066001600680549050610d4c91906112e4565b81548110610d5d57610d5c611318565b5b906000526020600020906003020160000154610d799190611347565b9250600193505050610a91565b81925050505b919050565b600460009054906101000a900473ffffffffffffffffffffffffffffffffffffffff1681565b610dbf610f34565b73ffffffffffffffffffffffffffffffffffffffff16610ddd6105b3565b73ffffffffffffffffffffffffffffffffffffffff1614610e33576040517f08c379a0000000000000000000000000000000000000000000000000000000008152600401610e2a906113fa565b60405180910390fd5b8060028190555050565b610e45610f34565b73ffffffffffffffffffffffffffffffffffffffff16610e636105b3565b73ffffffffffffffffffffffffffffffffffffffff1614610eb9576040517f08c379a0000000000000000000000000000000000000000000000000000000008152600401610eb0906113fa565b60405180910390fd5b600073ffffffffffffffffffffffffffffffffffffffff168173ffffffffffffffffffffffffffffffffffffffff1603610f28576040517f08c379a0000000000000000000000000000000000000000000000000000000008152600401610f1f90611695565b60405180910390fd5b610f3181610f3c565b50565b600033905090565b60008060009054906101000a900473ffffffffffffffffffffffffffffffffffffffff169050816000806101000a81548173ffffffffffffffffffffffffffffffffffffffff021916908373ffffffffffffffffffffffffffffffffffffffff1602179055508173ffffffffffffffffffffffffffffffffffffffff168173ffffffffffffffffffffffffffffffffffffffff167f8be0079c531659141344cd1fd0a4f28419497f9722a3daafe3b4186f6b6457e060405160405180910390a35050565b6040518060a0016040528060008152602001600081526020016000151581526020016000151581526020016000151581525090565b60008115159050919050565b61104a81611035565b82525050565b60006020820190506110656000830184611041565b92915050565b6000604051905090565b600080fd5b600080fd5b6000819050919050565b6110928161107f565b811461109d57600080fd5b50565b6000813590506110af81611089565b92915050565b6000602082840312156110cb576110ca611075565b5b60006110d9848285016110a0565b91505092915050565b6110eb8161107f565b82525050565b600060208201905061110660008301846110e2565b92915050565b6111158161107f565b82525050565b61112481611035565b82525050565b60a082016000820151611140600085018261110c565b506020820151611153602085018261110c565b506040820151611166604085018261111b565b506060820151611179606085018261111b565b50608082015161118c608085018261111b565b50505050565b600060a0820190506111a7600083018461112a565b92915050565b600060a0820190506111c260008301886110e2565b6111cf60208301876110e2565b6111dc6040830186611041565b6111e96060830185611041565b6111f66080830184611041565b9695505050505050565b600073ffffffffffffffffffffffffffffffffffffffff82169050919050565b600061122b82611200565b9050919050565b61123b81611220565b82525050565b60006020820190506112566000830184611232565b92915050565b61126581611220565b811461127057600080fd5b50565b6000813590506112828161125c565b92915050565b60006020828403121561129e5761129d611075565b5b60006112ac84828501611273565b91505092915050565b7f4e487b7100000000000000000000000000000000000000000000000000000000600052601160045260246000fd5b60006112ef8261107f565b91506112fa8361107f565b92508282101561130d5761130c6112b5565b5b828203905092915050565b7f4e487b7100000000000000000000000000000000000000000000000000000000600052603260045260246000fd5b60006113528261107f565b915061135d8361107f565b9250827fffffffffffffffffffffffffffffffffffffffffffffffffffffffffffffffff03821115611392576113916112b5565b5b828201905092915050565b600082825260208201905092915050565b7f4f776e61626c653a2063616c6c6572206973206e6f7420746865206f776e6572600082015250565b60006113e460208361139d565b91506113ef826113ae565b602082019050919050565b60006020820190508181036000830152611413816113d7565b9050919050565b60006114258261107f565b915060008203611438576114376112b5565b5b600182039050919050565b600060408201905061145860008301856110e2565b61146560208301846110e2565b9392505050565b600080fd5b6000601f19601f8301169050919050565b7f4e487b7100000000000000000000000000000000000000000000000000000000600052604160045260246000fd5b6114ba82611471565b810181811067ffffffffffffffff821117156114d9576114d8611482565b5b80604052505050565b60006114ec61106b565b90506114f882826114b1565b919050565b600067ffffffffffffffff82111561151857611517611482565b5b602082029050602081019050919050565b600080fd5b60008151905061153d81611089565b92915050565b6000611556611551846114fd565b6114e2565b9050808382526020820190506020840283018581111561157957611578611529565b5b835b818110156115a2578061158e888261152e565b84526020840193505060208101905061157b565b5050509392505050565b600082601f8301126115c1576115c061146c565b5b81516115d1848260208601611543565b91505092915050565b6000602082840312156115f0576115ef611075565b5b600082015167ffffffffffffffff81111561160e5761160d61107a565b5b61161a848285016115ac565b91505092915050565b7f4f776e61626c653a206e6577206f776e657220697320746865207a65726f206160008201527f6464726573730000000000000000000000000000000000000000000000000000602082015250565b600061167f60268361139d565b915061168a82611623565b604082019050919050565b600060208201905081810360008301526116ae81611672565b905091905056fea26469706673582212202b9be60814d05377ac34ffec4bc0e717bd098f623b1cf70c85b53b88c5a3c7ec64736f6c634300080d0033",
  "immutableReferences": {},
  "source": "// SPDX-License-Identifier: MIT\r\npragma solidity >=0.4.22 <0.9.0;\r\n\r\nimport \"./Verification.sol\";\r\nimport \"./ALPSBase.sol\";\r\nimport \"@openzeppelin/contracts/access/Ownable.sol\";\r\n\r\n//TODO: uint256 is a placeholder for any attribute data type - probably needs generalization?\r\n//TODO: updateAttributeValue - add time component, i.e., request values that are fresher than a time interval\r\n//TODO: extrapolate function - take last available value. Update. check freshness, if not use extrapolate.\r\n//take average of the change in the last 10 values if available\r\ninterface Aggregator is ALPSBase {\r\n    \r\n    function updateAttributeValues(uint256 _time) external returns (bool chnagesMade);\r\n\r\n    function getAttributeValues(uint256 _time)\r\n        external\r\n        view\r\n        returns (AttributeValues memory);\r\n    \r\nfunction getAttributeValuesByIndex(uint256 _time)\r\n        external\r\n        view\r\n        returns (AttributeValues memory);\r\n    \r\n\r\n    function valuesCollectionIsOver() external  view returns (bool);\r\n\r\n}\r\n\r\n/*\r\nExample policy:\r\n\"each 5 min pay 1000 for each new millisecond the screen was in use and 333 if the bluetooth was used at all during each period\"\r\nthe aggregator remembers the last read nad updates all previous values as needed\r\ni.e. it checks the current timestamp and updates all previous updated hourly values for its two attributes:\r\none int of the cumulative milliseconds usage of screen time during that period\r\none bool of wheter bluetooth was used or not during that period.\r\n\r\nWe use an array fo time periods with computed values during that period\r\nThe last time period still open is coindiered undefined; the value is only computed after the period closure\r\n*/\r\ncontract AggregatorContract is Aggregator, Ownable {\r\n    //initial time for royalties collection\r\n    uint256 collectionTime_start;\r\n    //final time for royalties collection (excluded, i.e. this timestamp will not contribute values)\r\n    uint256 collectionTime_end;\r\n    //offset time for royalties collection, i.e. size in seconds of the time window for values update\r\n    uint256 collectionTime_duration;\r\n\r\n    //Verification contract addresses\r\n    address public attributesManager_screenUsage;\r\n    address public attributesManager_bluetoothUsed;\r\n\r\n    //array of values recorded for each time window\r\n    AttributeValues[] public values;\r\n\r\n    constructor(\r\n        address _sourceVCscreen,\r\n        address _sourceVCbluetooth,\r\n        uint256 _timeStart,\r\n        uint256 _timeEnd,\r\n        uint256 _timeDuration\r\n    ) {\r\n        // require(_timeEnd >= _timeStart,\"Impossible time frame.\");\r\n        // require(collectionTime_duration > 0,\"Impossible time duration.\");\r\n        attributesManager_screenUsage = _sourceVCscreen;\r\n        attributesManager_bluetoothUsed = _sourceVCbluetooth;\r\n        collectionTime_start =_timeStart;\r\n        collectionTime_end = _timeEnd;\r\n        collectionTime_duration = _timeDuration;\r\n    }\r\n\r\n    //start time can not be updated once the contract has started\r\n    function update_collectionTime_end(uint256 _time) public onlyOwner\r\n    {\r\n        //onlyowner\r\n        collectionTime_end = _time;\r\n    }\r\n    function update_collectionTime_duration(uint256 _time) public onlyOwner\r\n    {\r\n        //onlyowner\r\n        collectionTime_duration = _time;\r\n    }\r\n    function get_collectionTime_start() public view returns (uint256) { return collectionTime_start; }\r\n    function get_collectionTime_end() public view returns (uint256) { return collectionTime_end; }\r\n    function get_collectionTime_duration() public view returns (uint256) { return collectionTime_duration; }\r\n\r\n    function valuesCollectionIsOver()\r\n        public\r\n        view\r\n        override\r\n        returns (bool)\r\n    {\r\n        //works even if no elements, as last time will be 0, so never staisfies, so always false\r\n        return (collectionTime_end <= values[values.length-1].periodTime_start + collectionTime_duration);\r\n    }\r\n\r\n    //TODO: add extrapolation check if needed and do\r\n    //time until which attributes need to be updated\r\n    function updateAttributeValues(uint256 _time)\r\n        public\r\n        override\r\n        returns (bool changesMade)\r\n    {\r\n        if(_time<collectionTime_start || valuesCollectionIsOver()){\r\n            //asked time is before collection start time\r\n            //or collection is over\r\n            return false;\r\n        }\r\n        bool result = false;\r\n        //if empty we might have to first create the first datapoint\r\n        if(values.length == 0){\r\n            if(_time >= collectionTime_start + collectionTime_duration){\r\n                uint256 temp_screenUsage = (Verification(attributesManager_screenUsage).getCumulativeHistory(collectionTime_start, collectionTime_start + collectionTime_duration-1))[0];\r\n                bool temp_bluetoothUsed = (Verification(attributesManager_bluetoothUsed).getCumulativeHistory(collectionTime_start, collectionTime_start + collectionTime_duration-1))[0] > 0;\r\n                //2) add new datapoint for that time interval\r\n                values.push(\r\n                    AttributeValues({\r\n                        periodTime_start : collectionTime_start,\r\n                        value_screenUsage : temp_screenUsage,\r\n                        value_bluetoothUsed : temp_bluetoothUsed,\r\n                        extrapolated_screenUsage : false,\r\n                        extrapolated_bluetoothUsed : false\r\n                    }));\r\n                result = true;\r\n            }else{\r\n                //no new values can be collected as last interval is already up to date\r\n                return false;\r\n            }\r\n        }\r\n\r\n\r\n        uint256 newStartTime = values[values.length-1].periodTime_start + collectionTime_duration;\r\n        while (_time >= newStartTime + collectionTime_duration){\r\n            //1) retrieve all values form verifier contracts\r\n            //PRE: collectionTime_duration > 0 (i.e. >= 1)\r\n            uint256 temp_screenUsage = (Verification(attributesManager_screenUsage).getCumulativeHistory(collectionTime_start, collectionTime_start + collectionTime_duration-1))[0];\r\n            bool temp_bluetoothUsed = (Verification(attributesManager_bluetoothUsed).getCumulativeHistory(collectionTime_start, collectionTime_start + collectionTime_duration-1))[0] > 0;\r\n            //2) add new datapoint for that time interval\r\n            values.push(\r\n                AttributeValues({\r\n                    periodTime_start : newStartTime,\r\n                    value_screenUsage : temp_screenUsage,\r\n                    value_bluetoothUsed : temp_bluetoothUsed,\r\n                    extrapolated_screenUsage : false,\r\n                    extrapolated_bluetoothUsed : false\r\n                }));\r\n                newStartTime = values[values.length-1].periodTime_start + collectionTime_duration;\r\n                result = true;\r\n            /*\r\nstruct AttributeValues{\r\n        uint256 periodTime_start;\r\n        //periodTime_end implicitely equal to periodTime_start+collectionTime_duration\r\n        uint256 value_screenUsage;\r\n        bool extrapolated_screenUsage;\r\n        bool value_bluetoothUsed;\r\n        bool extrapolated_bluetoothUsed;\r\n    }\r\n            */\r\n        }\r\n        return result;\r\n    }\r\n\r\n    function getAttributeValues(uint256 _time)\r\n        public\r\n        view\r\n        override\r\n        returns (AttributeValues memory)\r\n    {\r\n        AttributeValues memory result;\r\n        if((_time < collectionTime_start) || (_time >= values[values.length-1].periodTime_start + collectionTime_duration))\r\n            return result;\r\n        else{\r\n            //for sure within one time interval\r\n            for (uint256 i = values.length-1; i >= 0; i--) {\r\n                if(_time >= values[i].periodTime_start){\r\n                    //for sure this is the first time interval that satisfies\r\n                    return values[i];\r\n                }\r\n            }\r\n        }\r\n    }\r\n    function getAttributeValuesByIndex(uint256 _idx)\r\n        public\r\n        view\r\n        override\r\n        returns (AttributeValues memory)\r\n    {\r\n        AttributeValues memory result;\r\n        if(_idx >= values.length)\r\n            return result;\r\n        else{\r\n            return values[_idx];\r\n        }\r\n    }\r\n\r\n}\r\n\r\n",
  "sourcePath": "C:\\Users\\n3zqi\\Desktop\\ALPS-Dapp-IDP\\alps-licensee\\contracts\\Aggregator.sol",
  "compiler": {
    "name": "solc",
    "version": "0.8.13+commit.abaa5c0e.Emscripten.clang"
  },
  "schemaVersion": "3.4.4",
  "updatedAt": "2022-04-21T09:33:03.695Z",
  "networkType": "ethereum",
  "devdoc": {
    "kind": "dev",
    "methods": {
      "owner()": {
        "details": "Returns the address of the current owner."
      },
      "renounceOwnership()": {
        "details": "Leaves the contract without owner. It will not be possible to call `onlyOwner` functions anymore. Can only be called by the current owner. NOTE: Renouncing ownership will leave the contract without an owner, thereby removing any functionality that is only available to the owner."
      },
      "transferOwnership(address)": {
        "details": "Transfers ownership of the contract to a new account (`newOwner`). Can only be called by the current owner."
      }
    },
    "version": 1
  },
  "userdoc": {
    "kind": "user",
    "methods": {},
    "version": 1
  }
}