{
  "contractName": "DeviceManager1",
  "abi": [
    {
      "inputs": [],
      "payable": false,
      "stateMutability": "nonpayable",
      "type": "constructor"
    },
    {
      "constant": true,
      "inputs": [],
      "name": "deviceName",
      "outputs": [
        {
          "internalType": "string",
          "name": "",
          "type": "string"
        }
      ],
      "payable": false,
      "stateMutability": "view",
      "type": "function"
    },
    {
      "constant": true,
      "inputs": [
        {
          "internalType": "uint256",
          "name": "",
          "type": "uint256"
        }
      ],
      "name": "ipContractsMap",
      "outputs": [
        {
          "internalType": "string",
          "name": "",
          "type": "string"
        }
      ],
      "payable": false,
      "stateMutability": "view",
      "type": "function"
    },
    {
      "constant": true,
      "inputs": [],
      "name": "licensee",
      "outputs": [
        {
          "internalType": "string",
          "name": "",
          "type": "string"
        }
      ],
      "payable": false,
      "stateMutability": "view",
      "type": "function"
    },
    {
      "constant": false,
      "inputs": [
        {
          "internalType": "string",
          "name": "x",
          "type": "string"
        }
      ],
      "name": "setDeviceName",
      "outputs": [],
      "payable": false,
      "stateMutability": "nonpayable",
      "type": "function"
    },
    {
      "constant": true,
      "inputs": [],
      "name": "getContractType",
      "outputs": [
        {
          "internalType": "string",
          "name": "",
          "type": "string"
        }
      ],
      "payable": false,
      "stateMutability": "pure",
      "type": "function"
    },
    {
      "constant": false,
      "inputs": [
        {
          "internalType": "string",
          "name": "x",
          "type": "string"
        }
      ],
      "name": "setLicensee",
      "outputs": [],
      "payable": false,
      "stateMutability": "nonpayable",
      "type": "function"
    }
  ],
  "bytecode": "0x60806040526040518060400160405280600981526020017f4c6963656e7365653100000000000000000000000000000000000000000000008152506000908051906020019061004f92919061024a565b50604051806060016040528061045761ffff1681526020016108ae61ffff168152602001610d0561ffff16815250600190600361008d9291906102ca565b506040518060400160405280600881526020017f4465766963652031000000000000000000000000000000000000000000000000815250600290805190602001906100d992919061024a565b503480156100e657600080fd5b506040518060400160405280600a81526020017f436f6e747261637420310000000000000000000000000000000000000000000081525060036000600160008154811061012f57fe5b90600052602060002001548152602001908152602001600020908051906020019061015b92919061024a565b506040518060400160405280600a81526020017f436f6e747261637420320000000000000000000000000000000000000000000081525060036000600180815481106101a357fe5b9060005260206000200154815260200190815260200160002090805190602001906101cf92919061024a565b506040518060400160405280600a81526020017f436f6e747261637420330000000000000000000000000000000000000000000081525060036000600160028154811061021857fe5b90600052602060002001548152602001908152602001600020908051906020019061024492919061024a565b50610342565b828054600181600116156101000203166002900490600052602060002090601f016020900481019282601f1061028b57805160ff19168380011785556102b9565b828001600101855582156102b9579182015b828111156102b857825182559160200191906001019061029d565b5b5090506102c6919061031d565b5090565b82805482825590600052602060002090810192821561030c579160200282015b8281111561030b578251829061ffff169055916020019190600101906102ea565b5b509050610319919061031d565b5090565b61033f91905b8082111561033b576000816000905550600101610323565b5090565b90565b610744806103516000396000f3fe608060405234801561001057600080fd5b50600436106100625760003560e01c806324bf2e1d146100675780633eadee66146101225780635e3044cb146101c9578063b6a72ab91461024c578063c51a29e014610307578063e473ce011461038a575b600080fd5b6101206004803603602081101561007d57600080fd5b810190808035906020019064010000000081111561009a57600080fd5b8201836020820111156100ac57600080fd5b803590602001918460018302840111640100000000831117156100ce57600080fd5b91908080601f016020809104026020016040519081016040528093929190818152602001838380828437600081840152601f19601f82011690508083019250505050505050919291929050505061040d565b005b61014e6004803603602081101561013857600080fd5b8101908080359060200190929190505050610427565b6040518080602001828103825283818151815260200191508051906020019080838360005b8381101561018e578082015181840152602081019050610173565b50505050905090810190601f1680156101bb5780820380516001836020036101000a031916815260200191505b509250505060405180910390f35b6101d16104d7565b6040518080602001828103825283818151815260200191508051906020019080838360005b838110156102115780820151818401526020810190506101f6565b50505050905090810190601f16801561023e5780820380516001836020036101000a031916815260200191505b509250505060405180910390f35b6103056004803603602081101561026257600080fd5b810190808035906020019064010000000081111561027f57600080fd5b82018360208201111561029157600080fd5b803590602001918460018302840111640100000000831117156102b357600080fd5b91908080601f016020809104026020016040519081016040528093929190818152602001838380828437600081840152601f19601f820116905080830192505050505050509192919290505050610575565b005b61030f61058f565b6040518080602001828103825283818151815260200191508051906020019080838360005b8381101561034f578082015181840152602081019050610334565b50505050905090810190601f16801561037c5780820380516001836020036101000a031916815260200191505b509250505060405180910390f35b6103926105cc565b6040518080602001828103825283818151815260200191508051906020019080838360005b838110156103d25780820151818401526020810190506103b7565b50505050905090810190601f1680156103ff5780820380516001836020036101000a031916815260200191505b509250505060405180910390f35b806000908051906020019061042392919061066a565b5050565b60036020528060005260406000206000915090508054600181600116156101000203166002900480601f0160208091040260200160405190810160405280929190818152602001828054600181600116156101000203166002900480156104cf5780601f106104a4576101008083540402835291602001916104cf565b820191906000526020600020905b8154815290600101906020018083116104b257829003601f168201915b505050505081565b60008054600181600116156101000203166002900480601f01602080910402602001604051908101604052809291908181526020018280546001816001161561010002031660029004801561056d5780601f106105425761010080835404028352916020019161056d565b820191906000526020600020905b81548152906001019060200180831161055057829003601f168201915b505050505081565b806002908051906020019061058b92919061066a565b5050565b60606040518060400160405280600e81526020017f4465766963654d616e6167657231000000000000000000000000000000000000815250905090565b60028054600181600116156101000203166002900480601f0160208091040260200160405190810160405280929190818152602001828054600181600116156101000203166002900480156106625780601f1061063757610100808354040283529160200191610662565b820191906000526020600020905b81548152906001019060200180831161064557829003601f168201915b505050505081565b828054600181600116156101000203166002900490600052602060002090601f016020900481019282601f106106ab57805160ff19168380011785556106d9565b828001600101855582156106d9579182015b828111156106d85782518255916020019190600101906106bd565b5b5090506106e691906106ea565b5090565b61070c91905b808211156107085760008160009055506001016106f0565b5090565b9056fea265627a7a72315820bf20500a37e215abd1dee5d83cd84554e67a11bb4a9a23a7996d0bc910c4b27264736f6c63430005100032",
  "source": "pragma solidity >=0.4.22 <0.9.0;\r\n\r\ncontract DeviceManager1 {\r\n    string public licensee = \"Licensee1\";\r\n    // List of ips related to this device\r\n    uint[] ips = [1111, 2222, 3333];\r\n    string public deviceName = \"Device 1\";\r\n    string constant contractId = \"DeviceManager1\";\r\n\r\n    // maps ip - contracts; actual mapping: uint IP id => address of contract\r\n    mapping(uint => string) public ipContractsMap;\r\n\r\n    constructor () public {\r\n        ipContractsMap[ips[0]] = \"Contract 1\";\r\n        ipContractsMap[ips[1]] = \"Contract 2\";\r\n        ipContractsMap[ips[2]] = \"Contract 3\";\r\n    }\r\n\r\n    function setDeviceName(string memory x) public {\r\n        deviceName = x;\r\n    }\r\n\r\n    function getContractType() public pure returns (string memory) {\r\n        return contractId;\r\n    }\r\n\r\n    function setLicensee(string memory x) public {\r\n        licensee = x;\r\n    }\r\n}\r\n",
  "sourcePath": "C:/Users/n3zqi/Desktop/IDP/Dapp/alps-licensee/contracts/DeviceManager1.sol",
  "compiler": {
    "name": "solc",
    "version": "0.5.16+commit.9c3226ce.Emscripten.clang"
  },
  "schemaVersion": "3.3.3",
  "updatedAt": "2021-04-23T13:04:31.474Z",
  "networkType": "ethereum",
  "devdoc": {
    "methods": {}
  },
  "userdoc": {
    "methods": {}
  }
}