{
  "contractName": "DeviceManager2",
  "abi": [
    {
      "inputs": [],
      "payable": false,
      "stateMutability": "nonpayable",
      "type": "constructor"
    },
    {
      "constant": true,
      "inputs": [],
      "name": "deviceId",
      "outputs": [
        {
          "internalType": "uint256",
          "name": "",
          "type": "uint256"
        }
      ],
      "payable": false,
      "stateMutability": "view",
      "type": "function"
    },
    {
      "constant": true,
      "inputs": [],
      "name": "deviceName",
      "outputs": [
        {
          "internalType": "string",
          "name": "",
          "type": "string"
        }
      ],
      "payable": false,
      "stateMutability": "view",
      "type": "function"
    },
    {
      "constant": true,
      "inputs": [
        {
          "internalType": "uint256",
          "name": "",
          "type": "uint256"
        }
      ],
      "name": "ipContractsMap",
      "outputs": [
        {
          "internalType": "string",
          "name": "",
          "type": "string"
        }
      ],
      "payable": false,
      "stateMutability": "view",
      "type": "function"
    },
    {
      "constant": true,
      "inputs": [
        {
          "internalType": "uint256",
          "name": "",
          "type": "uint256"
        }
      ],
      "name": "ips",
      "outputs": [
        {
          "internalType": "uint256",
          "name": "",
          "type": "uint256"
        }
      ],
      "payable": false,
      "stateMutability": "view",
      "type": "function"
    },
    {
      "constant": true,
      "inputs": [],
      "name": "licensee",
      "outputs": [
        {
          "internalType": "string",
          "name": "",
          "type": "string"
        }
      ],
      "payable": false,
      "stateMutability": "view",
      "type": "function"
    },
    {
      "constant": false,
      "inputs": [
        {
          "internalType": "string",
          "name": "x",
          "type": "string"
        }
      ],
      "name": "setDeviceName",
      "outputs": [],
      "payable": false,
      "stateMutability": "nonpayable",
      "type": "function"
    },
    {
      "constant": true,
      "inputs": [],
      "name": "getContractType",
      "outputs": [
        {
          "internalType": "string",
          "name": "",
          "type": "string"
        }
      ],
      "payable": false,
      "stateMutability": "pure",
      "type": "function"
    },
    {
      "constant": false,
      "inputs": [],
      "name": "getIps",
      "outputs": [
        {
          "internalType": "uint256[]",
          "name": "",
          "type": "uint256[]"
        }
      ],
      "payable": false,
      "stateMutability": "nonpayable",
      "type": "function"
    },
    {
      "constant": false,
      "inputs": [
        {
          "internalType": "string",
          "name": "x",
          "type": "string"
        }
      ],
      "name": "setLicensee",
      "outputs": [],
      "payable": false,
      "stateMutability": "nonpayable",
      "type": "function"
    }
  ],
  "bytecode": "0x60806040526040518060400160405280600a81526020017f4c6963656e7365652031000000000000000000000000000000000000000000008152506000908051906020019062000051929190620001c1565b50604051806040016040528061045761ffff1681526020016115b361ffff1681525060019060026200008592919062000248565b506040518060400160405280600881526020017f446576696365203200000000000000000000000000000000000000000000000081525060029080519060200190620000d3929190620001c1565b506107d0600355348015620000e757600080fd5b506040518060600160405280602a815260200162000b8b602a91396004600060016000815481106200011557fe5b90600052602060002001548152602001908152602001600020908051906020019062000143929190620001c1565b506040518060400160405280600a81526020017f436f6e747261637420350000000000000000000000000000000000000000000081525060046000600180815481106200018c57fe5b906000526020600020015481526020019081526020016000209080519060200190620001ba929190620001c1565b50620002c8565b828054600181600116156101000203166002900490600052602060002090601f016020900481019282601f106200020457805160ff191683800117855562000235565b8280016001018555821562000235579182015b828111156200023457825182559160200191906001019062000217565b5b509050620002449190620002a0565b5090565b8280548282559060005260206000209081019282156200028d579160200282015b828111156200028c578251829061ffff1690559160200191906001019062000269565b5b5090506200029c9190620002a0565b5090565b620002c591905b80821115620002c1576000816000905550600101620002a7565b5090565b90565b6108b380620002d86000396000f3fe608060405234801561001057600080fd5b50600436106100935760003560e01c80635e3044cb116100665780635e3044cb1461025a578063b638eb02146102dd578063b6a72ab91461033c578063c51a29e0146103f7578063e473ce011461047a57610093565b806323a050c11461009857806324bf2e1d146100da5780633eadee661461019557806344cf9b311461023c575b600080fd5b6100c4600480360360208110156100ae57600080fd5b81019080803590602001909291905050506104fd565b6040518082815260200191505060405180910390f35b610193600480360360208110156100f057600080fd5b810190808035906020019064010000000081111561010d57600080fd5b82018360208201111561011f57600080fd5b8035906020019184600183028401116401000000008311171561014157600080fd5b91908080601f016020809104026020016040519081016040528093929190818152602001838380828437600081840152601f19601f82011690508083019250505050505050919291929050505061051e565b005b6101c1600480360360208110156101ab57600080fd5b8101908080359060200190929190505050610538565b6040518080602001828103825283818151815260200191508051906020019080838360005b838110156102015780820151818401526020810190506101e6565b50505050905090810190601f16801561022e5780820380516001836020036101000a031916815260200191505b509250505060405180910390f35b6102446105e8565b6040518082815260200191505060405180910390f35b6102626105ee565b6040518080602001828103825283818151815260200191508051906020019080838360005b838110156102a2578082015181840152602081019050610287565b50505050905090810190601f1680156102cf5780820380516001836020036101000a031916815260200191505b509250505060405180910390f35b6102e561068c565b6040518080602001828103825283818151815260200191508051906020019060200280838360005b8381101561032857808201518184015260208101905061030d565b505050509050019250505060405180910390f35b6103f56004803603602081101561035257600080fd5b810190808035906020019064010000000081111561036f57600080fd5b82018360208201111561038157600080fd5b803590602001918460018302840111640100000000831117156103a357600080fd5b91908080601f016020809104026020016040519081016040528093929190818152602001838380828437600081840152601f19601f8201169050808301925050505050505091929192905050506106e4565b005b6103ff6106fe565b6040518080602001828103825283818151815260200191508051906020019080838360005b8381101561043f578082015181840152602081019050610424565b50505050905090810190601f16801561046c5780820380516001836020036101000a031916815260200191505b509250505060405180910390f35b61048261073b565b6040518080602001828103825283818151815260200191508051906020019080838360005b838110156104c25780820151818401526020810190506104a7565b50505050905090810190601f1680156104ef5780820380516001836020036101000a031916815260200191505b509250505060405180910390f35b6001818154811061050a57fe5b906000526020600020016000915090505481565b80600090805190602001906105349291906107d9565b5050565b60046020528060005260406000206000915090508054600181600116156101000203166002900480601f0160208091040260200160405190810160405280929190818152602001828054600181600116156101000203166002900480156105e05780601f106105b5576101008083540402835291602001916105e0565b820191906000526020600020905b8154815290600101906020018083116105c357829003601f168201915b505050505081565b60035481565b60008054600181600116156101000203166002900480601f0160208091040260200160405190810160405280929190818152602001828054600181600116156101000203166002900480156106845780601f1061065957610100808354040283529160200191610684565b820191906000526020600020905b81548152906001019060200180831161066757829003601f168201915b505050505081565b606060018054806020026020016040519081016040528092919081815260200182805480156106da57602002820191906000526020600020905b8154815260200190600101908083116106c6575b5050505050905090565b80600290805190602001906106fa9291906107d9565b5050565b60606040518060400160405280600e81526020017f4465766963654d616e6167657232000000000000000000000000000000000000815250905090565b60028054600181600116156101000203166002900480601f0160208091040260200160405190810160405280929190818152602001828054600181600116156101000203166002900480156107d15780601f106107a6576101008083540402835291602001916107d1565b820191906000526020600020905b8154815290600101906020018083116107b457829003601f168201915b505050505081565b828054600181600116156101000203166002900490600052602060002090601f016020900481019282601f1061081a57805160ff1916838001178555610848565b82800160010185558215610848579182015b8281111561084757825182559160200191906001019061082c565b5b5090506108559190610859565b5090565b61087b91905b8082111561087757600081600090555060010161085f565b5090565b9056fea265627a7a7231582090b70aac4a14c20c4d42d6c385157b93cbe2906af76eca525d4fa7cc89ab05e864736f6c63430005100032307862394164314232353439333331464230423636374136354232343130633439446635454632453644",
  "source": "pragma solidity >=0.4.22 <0.9.0;\r\n\r\ncontract DeviceManager2 {\r\n    string public licensee = \"Licensee 1\";\r\n    // List of ips related to this device\r\n    uint[] public ips = [1111, 5555];\r\n    string public deviceName = \"Device 2\";\r\n    uint public deviceId = 2000;\r\n    string constant contractId = \"DeviceManager2\";\r\n\r\n    // maps ip - contracts; actual mapping: uint IP id => address of contract\r\n    mapping(uint => string) public ipContractsMap;\r\n\r\n    constructor () public {\r\n        ipContractsMap[ips[0]] = \"0xb9Ad1B2549331FB0B667A65B2410c49Df5EF2E6D\";\r\n        ipContractsMap[ips[1]] = \"Contract 5\";\r\n    }\r\n    function setDeviceName(string memory x) public {\r\n        deviceName = x;\r\n    }\r\n\r\n    function getContractType() public pure returns (string memory) {\r\n        return contractId;\r\n    }\r\n    function getIps() public returns (uint []memory) {\r\n        return ips;\r\n    }\r\n    function setLicensee(string memory x) public {\r\n        licensee = x;\r\n    }\r\n}\r\n",
  "sourcePath": "C:/Users/n3zqi/Desktop/IDP/Dapp/alps-licensee/contracts/DeviceManager2.sol",
  "compiler": {
    "name": "solc",
    "version": "0.5.16+commit.9c3226ce.Emscripten.clang"
  },
  "schemaVersion": "3.3.3",
  "updatedAt": "2021-05-24T10:49:46.163Z",
  "networkType": "ethereum",
  "devdoc": {
    "methods": {}
  },
  "userdoc": {
    "methods": {}
  }
}