{
  "contractName": "DeviceManager2",
  "abi": [
    {
      "inputs": [],
      "payable": false,
      "stateMutability": "nonpayable",
      "type": "constructor"
    },
    {
      "constant": true,
      "inputs": [
        {
          "internalType": "uint256",
          "name": "",
          "type": "uint256"
        }
      ],
      "name": "ipContractsMap",
      "outputs": [
        {
          "internalType": "string",
          "name": "",
          "type": "string"
        }
      ],
      "payable": false,
      "stateMutability": "view",
      "type": "function"
    }
  ],
  "bytecode": "0x6080604052604051806040016040528061045761ffff1681526020016115b361ffff168152506000906002610035929190610130565b5034801561004257600080fd5b506040518060400160405280600a81526020017f436f6e7472616374203100000000000000000000000000000000000000000000815250600160008060008154811061008a57fe5b9060005260206000200154815260200190815260200160002090805190602001906100b6929190610183565b506040518060400160405280600a81526020017f436f6e747261637420350000000000000000000000000000000000000000000081525060016000806001815481106100fe57fe5b90600052602060002001548152602001908152602001600020908051906020019061012a929190610183565b50610228565b828054828255906000526020600020908101928215610172579160200282015b82811115610171578251829061ffff16905591602001919060010190610150565b5b50905061017f9190610203565b5090565b828054600181600116156101000203166002900490600052602060002090601f016020900481019282601f106101c457805160ff19168380011785556101f2565b828001600101855582156101f2579182015b828111156101f15782518255916020019190600101906101d6565b5b5090506101ff9190610203565b5090565b61022591905b80821115610221576000816000905550600101610209565b5090565b90565b6101bc806102376000396000f3fe608060405234801561001057600080fd5b506004361061002b5760003560e01c80633eadee6614610030575b600080fd5b61005c6004803603602081101561004657600080fd5b81019080803590602001909291905050506100d7565b6040518080602001828103825283818151815260200191508051906020019080838360005b8381101561009c578082015181840152602081019050610081565b50505050905090810190601f1680156100c95780820380516001836020036101000a031916815260200191505b509250505060405180910390f35b60016020528060005260406000206000915090508054600181600116156101000203166002900480601f01602080910402602001604051908101604052809291908181526020018280546001816001161561010002031660029004801561017f5780601f106101545761010080835404028352916020019161017f565b820191906000526020600020905b81548152906001019060200180831161016257829003601f168201915b50505050508156fea265627a7a723158206f9116b92feb3629df2a6bf14f26f97062fe062b29ba166acae96c22af2f0a3e64736f6c63430005100032",
  "source": "pragma solidity >=0.4.22 <0.9.0;\r\n\r\ncontract DeviceManager2 {\r\n    // List of ips related to this device\r\n    uint[] ips = [1111, 5555];\r\n\r\n    // maps ip - contracts; actual mapping: uint IP id => address of contract\r\n    mapping(uint => string) public ipContractsMap;\r\n\r\n    constructor () public {\r\n        ipContractsMap[ips[0]] = \"Contract 1\";\r\n        ipContractsMap[ips[1]] = \"Contract 5\";\r\n    }\r\n}\r\n",
  "sourcePath": "C:/Users/n3zqi/Desktop/IDP/Dapp/alps-licensee/contracts/DeviceManager2.sol",
  "compiler": {
    "name": "solc",
    "version": "0.5.16+commit.9c3226ce.Emscripten.clang"
  },
  "schemaVersion": "3.3.3",
  "updatedAt": "2021-03-29T13:12:07.456Z",
  "networkType": "ethereum",
  "devdoc": {
    "methods": {}
  },
  "userdoc": {
    "methods": {}
  }
}