{
  "contractName": "DeviceManager1",
  "abi": [
    {
      "inputs": [],
      "payable": false,
      "stateMutability": "nonpayable",
      "type": "constructor"
    },
    {
      "constant": true,
      "inputs": [],
      "name": "deviceName",
      "outputs": [
        {
          "internalType": "string",
          "name": "",
          "type": "string"
        }
      ],
      "payable": false,
      "stateMutability": "view",
      "type": "function"
    },
    {
      "constant": true,
      "inputs": [
        {
          "internalType": "uint256",
          "name": "",
          "type": "uint256"
        }
      ],
      "name": "ipContractsMap",
      "outputs": [
        {
          "internalType": "string",
          "name": "",
          "type": "string"
        }
      ],
      "payable": false,
      "stateMutability": "view",
      "type": "function"
    },
    {
      "constant": true,
      "inputs": [],
      "name": "licensee",
      "outputs": [
        {
          "internalType": "string",
          "name": "",
          "type": "string"
        }
      ],
      "payable": false,
      "stateMutability": "view",
      "type": "function"
    },
    {
      "constant": true,
      "inputs": [],
      "name": "licensor",
      "outputs": [
        {
          "internalType": "string",
          "name": "",
          "type": "string"
        }
      ],
      "payable": false,
      "stateMutability": "view",
      "type": "function"
    },
    {
      "constant": false,
      "inputs": [
        {
          "internalType": "string",
          "name": "x",
          "type": "string"
        }
      ],
      "name": "setDeviceName",
      "outputs": [],
      "payable": false,
      "stateMutability": "nonpayable",
      "type": "function"
    },
    {
      "constant": true,
      "inputs": [],
      "name": "getContractType",
      "outputs": [
        {
          "internalType": "string",
          "name": "",
          "type": "string"
        }
      ],
      "payable": false,
      "stateMutability": "pure",
      "type": "function"
    },
    {
      "constant": false,
      "inputs": [
        {
          "internalType": "string",
          "name": "x",
          "type": "string"
        }
      ],
      "name": "setLicensee",
      "outputs": [],
      "payable": false,
      "stateMutability": "nonpayable",
      "type": "function"
    },
    {
      "constant": false,
      "inputs": [
        {
          "internalType": "string",
          "name": "x",
          "type": "string"
        }
      ],
      "name": "setLicensor",
      "outputs": [],
      "payable": false,
      "stateMutability": "nonpayable",
      "type": "function"
    }
  ],
  "bytecode": "0x60806040526040518060400160405280600c81526020017f444d31204c6963656e73656500000000000000000000000000000000000000008152506000908051906020019062000051929190620002a9565b506040518060400160405280600c81526020017f444d31204c6963656e736f720000000000000000000000000000000000000000815250600190805190602001906200009f929190620002a9565b50604051806060016040528061045761ffff1681526020016108ae61ffff168152602001610d0561ffff168152506002906003620000df92919062000330565b506040518060400160405280600881526020017f4465766963652031000000000000000000000000000000000000000000000000815250600390805190602001906200012d929190620002a9565b503480156200013b57600080fd5b506040518060400160405280600a81526020017f436f6e74726163742031000000000000000000000000000000000000000000008152506004600060026000815481106200018557fe5b906000526020600020015481526020019081526020016000209080519060200190620001b3929190620002a9565b506040518060400160405280600a81526020017f436f6e7472616374203200000000000000000000000000000000000000000000815250600460006002600181548110620001fd57fe5b9060005260206000200154815260200190815260200160002090805190602001906200022b929190620002a9565b506040518060400160405280600a81526020017f436f6e747261637420330000000000000000000000000000000000000000000081525060046000600280815481106200027457fe5b906000526020600020015481526020019081526020016000209080519060200190620002a2929190620002a9565b50620003b0565b828054600181600116156101000203166002900490600052602060002090601f016020900481019282601f10620002ec57805160ff19168380011785556200031d565b828001600101855582156200031d579182015b828111156200031c578251825591602001919060010190620002ff565b5b5090506200032c919062000388565b5090565b82805482825590600052602060002090810192821562000375579160200282015b8281111562000374578251829061ffff1690559160200191906001019062000351565b5b50905062000384919062000388565b5090565b620003ad91905b80821115620003a95760008160009055506001016200038f565b5090565b90565b61096080620003c06000396000f3fe608060405234801561001057600080fd5b50600436106100885760003560e01c8063b6a72ab91161005b578063b6a72ab9146102f5578063b917d4fc146103b0578063c51a29e01461046b578063e473ce01146104ee57610088565b80630144f9891461008d57806324bf2e1d146101105780633eadee66146101cb5780635e3044cb14610272575b600080fd5b610095610571565b6040518080602001828103825283818151815260200191508051906020019080838360005b838110156100d55780820151818401526020810190506100ba565b50505050905090810190601f1680156101025780820380516001836020036101000a031916815260200191505b509250505060405180910390f35b6101c96004803603602081101561012657600080fd5b810190808035906020019064010000000081111561014357600080fd5b82018360208201111561015557600080fd5b8035906020019184600183028401116401000000008311171561017757600080fd5b91908080601f016020809104026020016040519081016040528093929190818152602001838380828437600081840152601f19601f82011690508083019250505050505050919291929050505061060f565b005b6101f7600480360360208110156101e157600080fd5b8101908080359060200190929190505050610629565b6040518080602001828103825283818151815260200191508051906020019080838360005b8381101561023757808201518184015260208101905061021c565b50505050905090810190601f1680156102645780820380516001836020036101000a031916815260200191505b509250505060405180910390f35b61027a6106d9565b6040518080602001828103825283818151815260200191508051906020019080838360005b838110156102ba57808201518184015260208101905061029f565b50505050905090810190601f1680156102e75780820380516001836020036101000a031916815260200191505b509250505060405180910390f35b6103ae6004803603602081101561030b57600080fd5b810190808035906020019064010000000081111561032857600080fd5b82018360208201111561033a57600080fd5b8035906020019184600183028401116401000000008311171561035c57600080fd5b91908080601f016020809104026020016040519081016040528093929190818152602001838380828437600081840152601f19601f820116905080830192505050505050509192919290505050610777565b005b610469600480360360208110156103c657600080fd5b81019080803590602001906401000000008111156103e357600080fd5b8201836020820111156103f557600080fd5b8035906020019184600183028401116401000000008311171561041757600080fd5b91908080601f016020809104026020016040519081016040528093929190818152602001838380828437600081840152601f19601f820116905080830192505050505050509192919290505050610791565b005b6104736107ab565b6040518080602001828103825283818151815260200191508051906020019080838360005b838110156104b3578082015181840152602081019050610498565b50505050905090810190601f1680156104e05780820380516001836020036101000a031916815260200191505b509250505060405180910390f35b6104f66107e8565b6040518080602001828103825283818151815260200191508051906020019080838360005b8381101561053657808201518184015260208101905061051b565b50505050905090810190601f1680156105635780820380516001836020036101000a031916815260200191505b509250505060405180910390f35b60018054600181600116156101000203166002900480601f0160208091040260200160405190810160405280929190818152602001828054600181600116156101000203166002900480156106075780601f106105dc57610100808354040283529160200191610607565b820191906000526020600020905b8154815290600101906020018083116105ea57829003601f168201915b505050505081565b8060009080519060200190610625929190610886565b5050565b60046020528060005260406000206000915090508054600181600116156101000203166002900480601f0160208091040260200160405190810160405280929190818152602001828054600181600116156101000203166002900480156106d15780601f106106a6576101008083540402835291602001916106d1565b820191906000526020600020905b8154815290600101906020018083116106b457829003601f168201915b505050505081565b60008054600181600116156101000203166002900480601f01602080910402602001604051908101604052809291908181526020018280546001816001161561010002031660029004801561076f5780601f106107445761010080835404028352916020019161076f565b820191906000526020600020905b81548152906001019060200180831161075257829003601f168201915b505050505081565b806003908051906020019061078d929190610886565b5050565b80600190805190602001906107a7929190610886565b5050565b60606040518060400160405280600e81526020017f4465766963654d616e6167657231000000000000000000000000000000000000815250905090565b60038054600181600116156101000203166002900480601f01602080910402602001604051908101604052809291908181526020018280546001816001161561010002031660029004801561087e5780601f106108535761010080835404028352916020019161087e565b820191906000526020600020905b81548152906001019060200180831161086157829003601f168201915b505050505081565b828054600181600116156101000203166002900490600052602060002090601f016020900481019282601f106108c757805160ff19168380011785556108f5565b828001600101855582156108f5579182015b828111156108f45782518255916020019190600101906108d9565b5b5090506109029190610906565b5090565b61092891905b8082111561092457600081600090555060010161090c565b5090565b9056fea265627a7a72315820e2a6384c76a5f665b232991df084f3745bf3f4595880dfcde67274ac3f15c75964736f6c63430005100032",
  "source": "pragma solidity >=0.4.22 <0.9.0;\r\n\r\ncontract DeviceManager1 {\r\n    string public licensee = \"DM1 Licensee\";\r\n    string public licensor = \"DM1 Licensor\";\r\n    // List of ips related to this device\r\n    uint[] ips = [1111, 2222, 3333];\r\n    string public deviceName = \"Device 1\";\r\n    string constant contractId = \"DeviceManager1\";\r\n\r\n    // maps ip - contracts; actual mapping: uint IP id => address of contract\r\n    mapping(uint => string) public ipContractsMap;\r\n\r\n    constructor () public {\r\n        ipContractsMap[ips[0]] = \"Contract 1\";\r\n        ipContractsMap[ips[1]] = \"Contract 2\";\r\n        ipContractsMap[ips[2]] = \"Contract 3\";\r\n    }\r\n\r\n    function setDeviceName(string memory x) public {\r\n        deviceName = x;\r\n    }\r\n\r\n    function getContractType() public pure returns (string memory) {\r\n        return contractId;\r\n    }\r\n\r\n    function setLicensee(string memory x) public {\r\n        licensee = x;\r\n    }\r\n\r\n    function setLicensor(string memory x) public {\r\n        licensor = x;\r\n    }\r\n}\r\n",
  "sourcePath": "C:/Users/n3zqi/Desktop/IDP/Dapp/alps-licensee/contracts/DeviceManager1.sol",
  "compiler": {
    "name": "solc",
    "version": "0.5.16+commit.9c3226ce.Emscripten.clang"
  },
  "schemaVersion": "3.3.3",
  "updatedAt": "2021-04-19T14:31:27.891Z",
  "devdoc": {
    "methods": {}
  },
  "userdoc": {
    "methods": {}
  }
}