{
  "contractName": "DeviceManager2",
  "abi": [
    {
      "inputs": [],
      "payable": false,
      "stateMutability": "nonpayable",
      "type": "constructor"
    },
    {
      "constant": true,
      "inputs": [],
      "name": "deviceName",
      "outputs": [
        {
          "internalType": "string",
          "name": "",
          "type": "string"
        }
      ],
      "payable": false,
      "stateMutability": "view",
      "type": "function"
    },
    {
      "constant": true,
      "inputs": [
        {
          "internalType": "uint256",
          "name": "",
          "type": "uint256"
        }
      ],
      "name": "ipContractsMap",
      "outputs": [
        {
          "internalType": "string",
          "name": "",
          "type": "string"
        }
      ],
      "payable": false,
      "stateMutability": "view",
      "type": "function"
    },
    {
      "constant": true,
      "inputs": [],
      "name": "licensee",
      "outputs": [
        {
          "internalType": "string",
          "name": "",
          "type": "string"
        }
      ],
      "payable": false,
      "stateMutability": "view",
      "type": "function"
    },
    {
      "constant": true,
      "inputs": [],
      "name": "licensor",
      "outputs": [
        {
          "internalType": "string",
          "name": "",
          "type": "string"
        }
      ],
      "payable": false,
      "stateMutability": "view",
      "type": "function"
    },
    {
      "constant": false,
      "inputs": [
        {
          "internalType": "string",
          "name": "x",
          "type": "string"
        }
      ],
      "name": "setDeviceName",
      "outputs": [],
      "payable": false,
      "stateMutability": "nonpayable",
      "type": "function"
    },
    {
      "constant": true,
      "inputs": [],
      "name": "getContractType",
      "outputs": [
        {
          "internalType": "string",
          "name": "",
          "type": "string"
        }
      ],
      "payable": false,
      "stateMutability": "pure",
      "type": "function"
    }
  ],
  "bytecode": "0x60806040526040518060400160405280600c81526020017f444d32204c6963656e73656500000000000000000000000000000000000000008152506000908051906020019061004f929190610216565b506040518060400160405280600c81526020017f444d32206c6963656e736f7200000000000000000000000000000000000000008152506001908051906020019061009b929190610216565b50604051806040016040528061045761ffff1681526020016115b361ffff1681525060029060026100cd929190610296565b506040518060400160405280600881526020017f446576696365203200000000000000000000000000000000000000000000000081525060039080519060200190610119929190610216565b5034801561012657600080fd5b506040518060400160405280600a81526020017f436f6e747261637420310000000000000000000000000000000000000000000081525060046000600260008154811061016f57fe5b90600052602060002001548152602001908152602001600020908051906020019061019b929190610216565b506040518060400160405280600a81526020017f436f6e74726163742035000000000000000000000000000000000000000000008152506004600060026001815481106101e457fe5b906000526020600020015481526020019081526020016000209080519060200190610210929190610216565b5061030e565b828054600181600116156101000203166002900490600052602060002090601f016020900481019282601f1061025757805160ff1916838001178555610285565b82800160010185558215610285579182015b82811115610284578251825591602001919060010190610269565b5b50905061029291906102e9565b5090565b8280548282559060005260206000209081019282156102d8579160200282015b828111156102d7578251829061ffff169055916020019190600101906102b6565b5b5090506102e591906102e9565b5090565b61030b91905b808211156103075760008160009055506001016102ef565b5090565b90565b6107908061031d6000396000f3fe608060405234801561001057600080fd5b50600436106100625760003560e01c80630144f989146100675780633eadee66146100ea5780635e3044cb14610191578063b6a72ab914610214578063c51a29e0146102cf578063e473ce0114610352575b600080fd5b61006f6103d5565b6040518080602001828103825283818151815260200191508051906020019080838360005b838110156100af578082015181840152602081019050610094565b50505050905090810190601f1680156100dc5780820380516001836020036101000a031916815260200191505b509250505060405180910390f35b6101166004803603602081101561010057600080fd5b8101908080359060200190929190505050610473565b6040518080602001828103825283818151815260200191508051906020019080838360005b8381101561015657808201518184015260208101905061013b565b50505050905090810190601f1680156101835780820380516001836020036101000a031916815260200191505b509250505060405180910390f35b610199610523565b6040518080602001828103825283818151815260200191508051906020019080838360005b838110156101d95780820151818401526020810190506101be565b50505050905090810190601f1680156102065780820380516001836020036101000a031916815260200191505b509250505060405180910390f35b6102cd6004803603602081101561022a57600080fd5b810190808035906020019064010000000081111561024757600080fd5b82018360208201111561025957600080fd5b8035906020019184600183028401116401000000008311171561027b57600080fd5b91908080601f016020809104026020016040519081016040528093929190818152602001838380828437600081840152601f19601f8201169050808301925050505050505091929192905050506105c1565b005b6102d76105db565b6040518080602001828103825283818151815260200191508051906020019080838360005b838110156103175780820151818401526020810190506102fc565b50505050905090810190601f1680156103445780820380516001836020036101000a031916815260200191505b509250505060405180910390f35b61035a610618565b6040518080602001828103825283818151815260200191508051906020019080838360005b8381101561039a57808201518184015260208101905061037f565b50505050905090810190601f1680156103c75780820380516001836020036101000a031916815260200191505b509250505060405180910390f35b60018054600181600116156101000203166002900480601f01602080910402602001604051908101604052809291908181526020018280546001816001161561010002031660029004801561046b5780601f106104405761010080835404028352916020019161046b565b820191906000526020600020905b81548152906001019060200180831161044e57829003601f168201915b505050505081565b60046020528060005260406000206000915090508054600181600116156101000203166002900480601f01602080910402602001604051908101604052809291908181526020018280546001816001161561010002031660029004801561051b5780601f106104f05761010080835404028352916020019161051b565b820191906000526020600020905b8154815290600101906020018083116104fe57829003601f168201915b505050505081565b60008054600181600116156101000203166002900480601f0160208091040260200160405190810160405280929190818152602001828054600181600116156101000203166002900480156105b95780601f1061058e576101008083540402835291602001916105b9565b820191906000526020600020905b81548152906001019060200180831161059c57829003601f168201915b505050505081565b80600390805190602001906105d79291906106b6565b5050565b60606040518060400160405280600e81526020017f4465766963654d616e6167657232000000000000000000000000000000000000815250905090565b60038054600181600116156101000203166002900480601f0160208091040260200160405190810160405280929190818152602001828054600181600116156101000203166002900480156106ae5780601f10610683576101008083540402835291602001916106ae565b820191906000526020600020905b81548152906001019060200180831161069157829003601f168201915b505050505081565b828054600181600116156101000203166002900490600052602060002090601f016020900481019282601f106106f757805160ff1916838001178555610725565b82800160010185558215610725579182015b82811115610724578251825591602001919060010190610709565b5b5090506107329190610736565b5090565b61075891905b8082111561075457600081600090555060010161073c565b5090565b9056fea265627a7a723158207f5a537b5c870ca71c8f7e6b17690f34c48d4d66304eb76df2d5bcec4e66e4c564736f6c63430005100032",
  "source": "pragma solidity >=0.4.22 <0.9.0;\r\n\r\ncontract DeviceManager2 {\r\n    string public licensee = \"DM2 Licensee\";\r\n    string public licensor = \"DM2 licensor\";\r\n    // List of ips related to this device\r\n    uint[] ips = [1111, 5555];\r\n    string public deviceName = \"Device 2\";\r\n    string constant contractId = \"DeviceManager2\";\r\n\r\n    // maps ip - contracts; actual mapping: uint IP id => address of contract\r\n    mapping(uint => string) public ipContractsMap;\r\n\r\n    constructor () public {\r\n        ipContractsMap[ips[0]] = \"Contract 1\";\r\n        ipContractsMap[ips[1]] = \"Contract 5\";\r\n    }\r\n    function setDeviceName(string memory x) public {\r\n        deviceName = x;\r\n    }\r\n\r\n    function getContractType() public pure returns (string memory) {\r\n        return contractId;\r\n    }\r\n}\r\n",
  "sourcePath": "C:/Users/n3zqi/Desktop/IDP/Dapp/alps-licensee/contracts/DeviceManager2.sol",
  "compiler": {
    "name": "solc",
    "version": "0.5.16+commit.9c3226ce.Emscripten.clang"
  },
  "schemaVersion": "3.3.3",
  "updatedAt": "2021-04-18T22:46:58.818Z",
  "networkType": "ethereum",
  "devdoc": {
    "methods": {}
  },
  "userdoc": {
    "methods": {}
  }
}