{
  "contractName": "DeviceManager2",
  "abi": [
    {
      "inputs": [],
      "payable": false,
      "stateMutability": "nonpayable",
      "type": "constructor"
    },
    {
      "constant": true,
      "inputs": [],
      "name": "deviceName",
      "outputs": [
        {
          "internalType": "string",
          "name": "",
          "type": "string"
        }
      ],
      "payable": false,
      "stateMutability": "view",
      "type": "function"
    },
    {
      "constant": true,
      "inputs": [
        {
          "internalType": "uint256",
          "name": "",
          "type": "uint256"
        }
      ],
      "name": "ipContractsMap",
      "outputs": [
        {
          "internalType": "string",
          "name": "",
          "type": "string"
        }
      ],
      "payable": false,
      "stateMutability": "view",
      "type": "function"
    },
    {
      "constant": true,
      "inputs": [],
      "name": "licensee",
      "outputs": [
        {
          "internalType": "string",
          "name": "",
          "type": "string"
        }
      ],
      "payable": false,
      "stateMutability": "view",
      "type": "function"
    },
    {
      "constant": false,
      "inputs": [
        {
          "internalType": "string",
          "name": "x",
          "type": "string"
        }
      ],
      "name": "setDeviceName",
      "outputs": [],
      "payable": false,
      "stateMutability": "nonpayable",
      "type": "function"
    },
    {
      "constant": true,
      "inputs": [],
      "name": "getContractType",
      "outputs": [
        {
          "internalType": "string",
          "name": "",
          "type": "string"
        }
      ],
      "payable": false,
      "stateMutability": "pure",
      "type": "function"
    }
  ],
  "bytecode": "0x60806040526040518060400160405280600a81526020017f4c6963656e7365652031000000000000000000000000000000000000000000008152506000908051906020019061004f9291906101c9565b50604051806040016040528061045761ffff1681526020016115b361ffff168152506001906002610081929190610249565b506040518060400160405280600881526020017f4465766963652032000000000000000000000000000000000000000000000000815250600290805190602001906100cd9291906101c9565b503480156100da57600080fd5b506040518060400160405280600a81526020017f436f6e747261637420310000000000000000000000000000000000000000000081525060036000600160008154811061012357fe5b90600052602060002001548152602001908152602001600020908051906020019061014f9291906101c9565b506040518060400160405280600a81526020017f436f6e7472616374203500000000000000000000000000000000000000000000815250600360006001808154811061019757fe5b9060005260206000200154815260200190815260200160002090805190602001906101c39291906101c9565b506102c1565b828054600181600116156101000203166002900490600052602060002090601f016020900481019282601f1061020a57805160ff1916838001178555610238565b82800160010185558215610238579182015b8281111561023757825182559160200191906001019061021c565b5b509050610245919061029c565b5090565b82805482825590600052602060002090810192821561028b579160200282015b8281111561028a578251829061ffff16905591602001919060010190610269565b5b509050610298919061029c565b5090565b6102be91905b808211156102ba5760008160009055506001016102a2565b5090565b90565b610664806102d06000396000f3fe608060405234801561001057600080fd5b50600436106100575760003560e01c80633eadee661461005c5780635e3044cb14610103578063b6a72ab914610186578063c51a29e014610241578063e473ce01146102c4575b600080fd5b6100886004803603602081101561007257600080fd5b8101908080359060200190929190505050610347565b6040518080602001828103825283818151815260200191508051906020019080838360005b838110156100c85780820151818401526020810190506100ad565b50505050905090810190601f1680156100f55780820380516001836020036101000a031916815260200191505b509250505060405180910390f35b61010b6103f7565b6040518080602001828103825283818151815260200191508051906020019080838360005b8381101561014b578082015181840152602081019050610130565b50505050905090810190601f1680156101785780820380516001836020036101000a031916815260200191505b509250505060405180910390f35b61023f6004803603602081101561019c57600080fd5b81019080803590602001906401000000008111156101b957600080fd5b8201836020820111156101cb57600080fd5b803590602001918460018302840111640100000000831117156101ed57600080fd5b91908080601f016020809104026020016040519081016040528093929190818152602001838380828437600081840152601f19601f820116905080830192505050505050509192919290505050610495565b005b6102496104af565b6040518080602001828103825283818151815260200191508051906020019080838360005b8381101561028957808201518184015260208101905061026e565b50505050905090810190601f1680156102b65780820380516001836020036101000a031916815260200191505b509250505060405180910390f35b6102cc6104ec565b6040518080602001828103825283818151815260200191508051906020019080838360005b8381101561030c5780820151818401526020810190506102f1565b50505050905090810190601f1680156103395780820380516001836020036101000a031916815260200191505b509250505060405180910390f35b60036020528060005260406000206000915090508054600181600116156101000203166002900480601f0160208091040260200160405190810160405280929190818152602001828054600181600116156101000203166002900480156103ef5780601f106103c4576101008083540402835291602001916103ef565b820191906000526020600020905b8154815290600101906020018083116103d257829003601f168201915b505050505081565b60008054600181600116156101000203166002900480601f01602080910402602001604051908101604052809291908181526020018280546001816001161561010002031660029004801561048d5780601f106104625761010080835404028352916020019161048d565b820191906000526020600020905b81548152906001019060200180831161047057829003601f168201915b505050505081565b80600290805190602001906104ab92919061058a565b5050565b60606040518060400160405280600e81526020017f4465766963654d616e6167657232000000000000000000000000000000000000815250905090565b60028054600181600116156101000203166002900480601f0160208091040260200160405190810160405280929190818152602001828054600181600116156101000203166002900480156105825780601f1061055757610100808354040283529160200191610582565b820191906000526020600020905b81548152906001019060200180831161056557829003601f168201915b505050505081565b828054600181600116156101000203166002900490600052602060002090601f016020900481019282601f106105cb57805160ff19168380011785556105f9565b828001600101855582156105f9579182015b828111156105f85782518255916020019190600101906105dd565b5b509050610606919061060a565b5090565b61062c91905b80821115610628576000816000905550600101610610565b5090565b9056fea265627a7a72315820527d23350a8b60173ff196556c7fbf74f88d7a4e18a3b65040b7f1ec9c00099164736f6c63430005100032",
  "source": "pragma solidity >=0.4.22 <0.9.0;\r\n\r\ncontract DeviceManager2 {\r\n    string public licensee = \"Licensee 1\";\r\n    // List of ips related to this device\r\n    uint[] ips = [1111, 5555];\r\n    string public deviceName = \"Device 2\";\r\n    string constant contractId = \"DeviceManager2\";\r\n\r\n    // maps ip - contracts; actual mapping: uint IP id => address of contract\r\n    mapping(uint => string) public ipContractsMap;\r\n\r\n    constructor () public {\r\n        ipContractsMap[ips[0]] = \"Contract 1\";\r\n        ipContractsMap[ips[1]] = \"Contract 5\";\r\n    }\r\n    function setDeviceName(string memory x) public {\r\n        deviceName = x;\r\n    }\r\n\r\n    function getContractType() public pure returns (string memory) {\r\n        return contractId;\r\n    }\r\n}\r\n",
  "sourcePath": "C:/Users/n3zqi/Desktop/IDP/Dapp/alps-licensee/contracts/DeviceManager2.sol",
  "compiler": {
    "name": "solc",
    "version": "0.5.16+commit.9c3226ce.Emscripten.clang"
  },
  "schemaVersion": "3.3.3",
  "updatedAt": "2021-04-23T13:04:31.492Z",
  "networkType": "ethereum",
  "devdoc": {
    "methods": {}
  },
  "userdoc": {
    "methods": {}
  }
}