{
  "contractName": "DeviceManager1",
  "abi": [
    {
      "inputs": [],
      "payable": false,
      "stateMutability": "nonpayable",
      "type": "constructor"
    },
    {
      "constant": true,
      "inputs": [
        {
          "internalType": "uint256",
          "name": "",
          "type": "uint256"
        }
      ],
      "name": "ipContractsMap",
      "outputs": [
        {
          "internalType": "string",
          "name": "",
          "type": "string"
        }
      ],
      "payable": false,
      "stateMutability": "view",
      "type": "function"
    }
  ],
  "bytecode": "0x6080604052604051806060016040528061045761ffff1681526020016108ae61ffff168152602001610d0561ffff1681525060009060036100419291906101b0565b5034801561004e57600080fd5b506040518060400160405280600a81526020017f436f6e7472616374203100000000000000000000000000000000000000000000815250600160008060008154811061009657fe5b9060005260206000200154815260200190815260200160002090805190602001906100c2929190610203565b506040518060400160405280600a81526020017f436f6e7472616374203200000000000000000000000000000000000000000000815250600160008060018154811061010a57fe5b906000526020600020015481526020019081526020016000209080519060200190610136929190610203565b506040518060400160405280600a81526020017f436f6e7472616374203300000000000000000000000000000000000000000000815250600160008060028154811061017e57fe5b9060005260206000200154815260200190815260200160002090805190602001906101aa929190610203565b506102a8565b8280548282559060005260206000209081019282156101f2579160200282015b828111156101f1578251829061ffff169055916020019190600101906101d0565b5b5090506101ff9190610283565b5090565b828054600181600116156101000203166002900490600052602060002090601f016020900481019282601f1061024457805160ff1916838001178555610272565b82800160010185558215610272579182015b82811115610271578251825591602001919060010190610256565b5b50905061027f9190610283565b5090565b6102a591905b808211156102a1576000816000905550600101610289565b5090565b90565b6101bc806102b76000396000f3fe608060405234801561001057600080fd5b506004361061002b5760003560e01c80633eadee6614610030575b600080fd5b61005c6004803603602081101561004657600080fd5b81019080803590602001909291905050506100d7565b6040518080602001828103825283818151815260200191508051906020019080838360005b8381101561009c578082015181840152602081019050610081565b50505050905090810190601f1680156100c95780820380516001836020036101000a031916815260200191505b509250505060405180910390f35b60016020528060005260406000206000915090508054600181600116156101000203166002900480601f01602080910402602001604051908101604052809291908181526020018280546001816001161561010002031660029004801561017f5780601f106101545761010080835404028352916020019161017f565b820191906000526020600020905b81548152906001019060200180831161016257829003601f168201915b50505050508156fea265627a7a72315820624d78cbb43004ec5b141b370db0e621e70ca2afb5aa55a3b804b5b88344ff7b64736f6c63430005100032",
  "source": "pragma solidity >=0.4.22 <0.9.0;\r\n\r\ncontract DeviceManager1 {\r\n    // List of ips related to this device\r\n    uint[] ips = [1111, 2222, 3333];\r\n\r\n    // maps ip - contracts; actual mapping: uint IP id => address of contract\r\n    mapping(uint => string) public ipContractsMap;\r\n\r\n    constructor () public {\r\n        ipContractsMap[ips[0]] = \"Contract 1\";\r\n        ipContractsMap[ips[1]] = \"Contract 2\";\r\n        ipContractsMap[ips[2]] = \"Contract 3\";\r\n    }\r\n}\r\n",
  "sourcePath": "C:/Users/n3zqi/Desktop/IDP/Dapp/alps-licensee/contracts/DeviceManager1.sol",
  "compiler": {
    "name": "solc",
    "version": "0.5.16+commit.9c3226ce.Emscripten.clang"
  },
  "schemaVersion": "3.3.3",
  "updatedAt": "2021-03-29T13:12:07.453Z",
  "networkType": "ethereum",
  "devdoc": {
    "methods": {}
  },
  "userdoc": {
    "methods": {}
  }
}