{
  "contractName": "DeviceManager1",
  "abi": [
    {
      "inputs": [],
      "stateMutability": "nonpayable",
      "type": "constructor"
    },
    {
      "inputs": [],
      "name": "deviceId",
      "outputs": [
        {
          "internalType": "uint256",
          "name": "",
          "type": "uint256"
        }
      ],
      "stateMutability": "view",
      "type": "function"
    },
    {
      "inputs": [],
      "name": "deviceName",
      "outputs": [
        {
          "internalType": "string",
          "name": "",
          "type": "string"
        }
      ],
      "stateMutability": "view",
      "type": "function"
    },
    {
      "inputs": [
        {
          "internalType": "uint256",
          "name": "",
          "type": "uint256"
        }
      ],
      "name": "ipContractsMap",
      "outputs": [
        {
          "internalType": "string",
          "name": "",
          "type": "string"
        }
      ],
      "stateMutability": "view",
      "type": "function"
    },
    {
      "inputs": [
        {
          "internalType": "uint256",
          "name": "",
          "type": "uint256"
        }
      ],
      "name": "ips",
      "outputs": [
        {
          "internalType": "uint256",
          "name": "",
          "type": "uint256"
        }
      ],
      "stateMutability": "view",
      "type": "function"
    },
    {
      "inputs": [],
      "name": "licensee",
      "outputs": [
        {
          "internalType": "string",
          "name": "",
          "type": "string"
        }
      ],
      "stateMutability": "view",
      "type": "function"
    },
    {
      "inputs": [
        {
          "internalType": "string",
          "name": "x",
          "type": "string"
        }
      ],
      "name": "setDeviceName",
      "outputs": [],
      "stateMutability": "nonpayable",
      "type": "function"
    },
    {
      "inputs": [],
      "name": "getContractType",
      "outputs": [
        {
          "internalType": "string",
          "name": "",
          "type": "string"
        }
      ],
      "stateMutability": "pure",
      "type": "function"
    },
    {
      "inputs": [],
      "name": "getIps",
      "outputs": [
        {
          "internalType": "uint256[]",
          "name": "",
          "type": "uint256[]"
        }
      ],
      "stateMutability": "nonpayable",
      "type": "function"
    },
    {
      "inputs": [
        {
          "internalType": "string",
          "name": "x",
          "type": "string"
        }
      ],
      "name": "setLicensee",
      "outputs": [],
      "stateMutability": "nonpayable",
      "type": "function"
    }
  ],
  "bytecode": "0x60806040526040518060400160405280600a81526020017f4c6963656e736565203100000000000000000000000000000000000000000000815250600090805190602001906200005192919062000228565b50604051806060016040528061045761ffff1681526020016108ae61ffff168152602001610d0561ffff16815250600190600362000091929190620002b9565b506040518060400160405280600881526020017f446576696365203100000000000000000000000000000000000000000000000081525060029080519060200190620000df92919062000228565b506103e8600355348015620000f357600080fd5b506040518060600160405280602a815260200162000d3b602a91396004600060016000815481106200012a576200012962000330565b5b9060005260206000200154815260200190815260200160002090805190602001906200015892919062000228565b506040518060600160405280602a815260200162000d65602a913960046000600180815481106200018e576200018d62000330565b5b906000526020600020015481526020019081526020016000209080519060200190620001bc92919062000228565b506040518060600160405280602a815260200162000d8f602a9139600460006001600281548110620001f357620001f262000330565b5b9060005260206000200154815260200190815260200160002090805190602001906200022192919062000228565b50620003c3565b82805462000236906200038e565b90600052602060002090601f0160209004810192826200025a5760008555620002a6565b82601f106200027557805160ff1916838001178555620002a6565b82800160010185558215620002a6579182015b82811115620002a557825182559160200191906001019062000288565b5b509050620002b5919062000311565b5090565b828054828255906000526020600020908101928215620002fe579160200282015b82811115620002fd578251829061ffff16905591602001919060010190620002da565b5b5090506200030d919062000311565b5090565b5b808211156200032c57600081600090555060010162000312565b5090565b7f4e487b7100000000000000000000000000000000000000000000000000000000600052603260045260246000fd5b7f4e487b7100000000000000000000000000000000000000000000000000000000600052602260045260246000fd5b60006002820490506001821680620003a757607f821691505b602082108103620003bd57620003bc6200035f565b5b50919050565b61096880620003d36000396000f3fe608060405234801561001057600080fd5b50600436106100935760003560e01c80635e3044cb116100665780635e3044cb14610132578063b638eb0214610150578063b6a72ab91461016e578063c51a29e01461018a578063e473ce01146101a857610093565b806323a050c11461009857806324bf2e1d146100c85780633eadee66146100e457806344cf9b3114610114575b600080fd5b6100b260048036038101906100ad9190610562565b6101c6565b6040516100bf919061059e565b60405180910390f35b6100e260048036038101906100dd91906106ff565b6101ea565b005b6100fe60048036038101906100f99190610562565b610204565b60405161010b91906107d0565b60405180910390f35b61011c6102a4565b604051610129919061059e565b60405180910390f35b61013a6102aa565b60405161014791906107d0565b60405180910390f35b610158610338565b60405161016591906108b0565b60405180910390f35b610188600480360381019061018391906106ff565b610390565b005b6101926103aa565b60405161019f91906107d0565b60405180910390f35b6101b06103e7565b6040516101bd91906107d0565b60405180910390f35b600181815481106101d657600080fd5b906000526020600020016000915090505481565b8060009080519060200190610200929190610475565b5050565b6004602052806000526040600020600091509050805461022390610901565b80601f016020809104026020016040519081016040528092919081815260200182805461024f90610901565b801561029c5780601f106102715761010080835404028352916020019161029c565b820191906000526020600020905b81548152906001019060200180831161027f57829003601f168201915b505050505081565b60035481565b600080546102b790610901565b80601f01602080910402602001604051908101604052809291908181526020018280546102e390610901565b80156103305780601f1061030557610100808354040283529160200191610330565b820191906000526020600020905b81548152906001019060200180831161031357829003601f168201915b505050505081565b6060600180548060200260200160405190810160405280929190818152602001828054801561038657602002820191906000526020600020905b815481526020019060010190808311610372575b5050505050905090565b80600290805190602001906103a6929190610475565b5050565b60606040518060400160405280600e81526020017f4465766963654d616e6167657231000000000000000000000000000000000000815250905090565b600280546103f490610901565b80601f016020809104026020016040519081016040528092919081815260200182805461042090610901565b801561046d5780601f106104425761010080835404028352916020019161046d565b820191906000526020600020905b81548152906001019060200180831161045057829003601f168201915b505050505081565b82805461048190610901565b90600052602060002090601f0160209004810192826104a357600085556104ea565b82601f106104bc57805160ff19168380011785556104ea565b828001600101855582156104ea579182015b828111156104e95782518255916020019190600101906104ce565b5b5090506104f791906104fb565b5090565b5b808211156105145760008160009055506001016104fc565b5090565b6000604051905090565b600080fd5b600080fd5b6000819050919050565b61053f8161052c565b811461054a57600080fd5b50565b60008135905061055c81610536565b92915050565b60006020828403121561057857610577610522565b5b60006105868482850161054d565b91505092915050565b6105988161052c565b82525050565b60006020820190506105b3600083018461058f565b92915050565b600080fd5b600080fd5b6000601f19601f8301169050919050565b7f4e487b7100000000000000000000000000000000000000000000000000000000600052604160045260246000fd5b61060c826105c3565b810181811067ffffffffffffffff8211171561062b5761062a6105d4565b5b80604052505050565b600061063e610518565b905061064a8282610603565b919050565b600067ffffffffffffffff82111561066a576106696105d4565b5b610673826105c3565b9050602081019050919050565b82818337600083830152505050565b60006106a261069d8461064f565b610634565b9050828152602081018484840111156106be576106bd6105be565b5b6106c9848285610680565b509392505050565b600082601f8301126106e6576106e56105b9565b5b81356106f684826020860161068f565b91505092915050565b60006020828403121561071557610714610522565b5b600082013567ffffffffffffffff81111561073357610732610527565b5b61073f848285016106d1565b91505092915050565b600081519050919050565b600082825260208201905092915050565b60005b83811015610782578082015181840152602081019050610767565b83811115610791576000848401525b50505050565b60006107a282610748565b6107ac8185610753565b93506107bc818560208601610764565b6107c5816105c3565b840191505092915050565b600060208201905081810360008301526107ea8184610797565b905092915050565b600081519050919050565b600082825260208201905092915050565b6000819050602082019050919050565b6108278161052c565b82525050565b6000610839838361081e565b60208301905092915050565b6000602082019050919050565b600061085d826107f2565b61086781856107fd565b93506108728361080e565b8060005b838110156108a357815161088a888261082d565b975061089583610845565b925050600181019050610876565b5085935050505092915050565b600060208201905081810360008301526108ca8184610852565b905092915050565b7f4e487b7100000000000000000000000000000000000000000000000000000000600052602260045260246000fd5b6000600282049050600182168061091957607f821691505b60208210810361092c5761092b6108d2565b5b5091905056fea2646970667358221220c3c6954636265217bd04015796ed67bd4985fbc74e7188ab8b11e481562a2a2064736f6c634300080d0033307862394164314232353439333331464230423636374136354232343130633439446635454632453644307863324334313030394538383236653933324531393445303442633038313135653845413166353538307830396131613562313241383035323332396435373546644646303546383636323939443832443636",
  "immutableReferences": {},
  "source": "pragma solidity >=0.4.22 <0.9.0;\r\n\r\ncontract DeviceManager1 {\r\n    string public licensee = \"Licensee 1\";\r\n    // List of ips related to this device\r\n    uint[] public ips = [1111, 2222, 3333];\r\n    string public deviceName = \"Device 1\";\r\n    uint public deviceId = 1000;\r\n    string constant contractId = \"DeviceManager1\";\r\n\r\n    // maps ip - contracts; actual mapping: uint IP id => address of contract\r\n    mapping(uint => string) public ipContractsMap;\r\n\r\n    constructor () public {\r\n        ipContractsMap[ips[0]] = \"0xb9Ad1B2549331FB0B667A65B2410c49Df5EF2E6D\";\r\n        ipContractsMap[ips[1]] = \"0xc2C41009E8826e932E194E04Bc08115e8EA1f558\";\r\n        ipContractsMap[ips[2]] = \"0x09a1a5b12A8052329d575FdFF05F866299D82D66\";\r\n    }\r\n\r\n    function setDeviceName(string memory x) public {\r\n        deviceName = x;\r\n    }\r\n\r\n    function getContractType() public pure returns (string memory) {\r\n        return contractId;\r\n    }\r\n\r\n    function getIps() public returns (uint []memory) {\r\n        return ips;\r\n    }\r\n\r\n    function setLicensee(string memory x) public {\r\n        licensee = x;\r\n    }\r\n}\r\n",
  "sourcePath": "C:\\Users\\n3zqi\\Desktop\\ALPS-Dapp-IDP\\alps-licensee\\contracts\\DeviceManager1.sol",
  "compiler": {
    "name": "solc",
    "version": "0.8.13+commit.abaa5c0e.Emscripten.clang"
  },
  "schemaVersion": "3.4.4",
  "updatedAt": "2022-04-21T09:32:39.526Z",
  "devdoc": {
    "kind": "dev",
    "methods": {},
    "version": 1
  },
  "userdoc": {
    "kind": "user",
    "methods": {},
    "version": 1
  }
}