{
  "contractName": "ManagerContract",
  "abi": [
    {
      "inputs": [
        {
          "internalType": "address",
          "name": "_aggregator",
          "type": "address"
        },
        {
          "internalType": "address",
          "name": "_royaltyComputation",
          "type": "address"
        },
        {
          "internalType": "address",
          "name": "_licensee",
          "type": "address"
        },
        {
          "internalType": "address",
          "name": "_licensor",
          "type": "address"
        },
        {
          "internalType": "uint256",
          "name": "_testVar",
          "type": "uint256"
        }
      ],
      "stateMutability": "nonpayable",
      "type": "constructor"
    },
    {
      "anonymous": false,
      "inputs": [
        {
          "indexed": true,
          "internalType": "address",
          "name": "previousOwner",
          "type": "address"
        },
        {
          "indexed": true,
          "internalType": "address",
          "name": "newOwner",
          "type": "address"
        }
      ],
      "name": "OwnershipTransferred",
      "type": "event"
    },
    {
      "inputs": [],
      "name": "creationDate",
      "outputs": [
        {
          "internalType": "uint256",
          "name": "",
          "type": "uint256"
        }
      ],
      "stateMutability": "view",
      "type": "function",
      "constant": true
    },
    {
      "inputs": [],
      "name": "licensee",
      "outputs": [
        {
          "internalType": "address",
          "name": "",
          "type": "address"
        }
      ],
      "stateMutability": "view",
      "type": "function",
      "constant": true
    },
    {
      "inputs": [],
      "name": "licensor",
      "outputs": [
        {
          "internalType": "address",
          "name": "",
          "type": "address"
        }
      ],
      "stateMutability": "view",
      "type": "function",
      "constant": true
    },
    {
      "inputs": [],
      "name": "owner",
      "outputs": [
        {
          "internalType": "address",
          "name": "",
          "type": "address"
        }
      ],
      "stateMutability": "view",
      "type": "function",
      "constant": true
    },
    {
      "inputs": [],
      "name": "renounceOwnership",
      "outputs": [],
      "stateMutability": "nonpayable",
      "type": "function"
    },
    {
      "inputs": [
        {
          "internalType": "address",
          "name": "newOwner",
          "type": "address"
        }
      ],
      "name": "transferOwnership",
      "outputs": [],
      "stateMutability": "nonpayable",
      "type": "function"
    },
    {
      "inputs": [
        {
          "internalType": "address",
          "name": "_aggregator",
          "type": "address"
        }
      ],
      "name": "updateAggregator",
      "outputs": [],
      "stateMutability": "nonpayable",
      "type": "function"
    },
    {
      "inputs": [
        {
          "internalType": "address",
          "name": "_royaltyComputation",
          "type": "address"
        }
      ],
      "name": "updateRoyaltyComputation",
      "outputs": [],
      "stateMutability": "nonpayable",
      "type": "function"
    },
    {
      "inputs": [],
      "name": "getRoyaltyHistoryList",
      "outputs": [
        {
          "internalType": "uint256[]",
          "name": "",
          "type": "uint256[]"
        }
      ],
      "stateMutability": "nonpayable",
      "type": "function"
    }
  ],
  "bytecode": "0x60a0604052607b6005553480156200001657600080fd5b5060405162000ed738038062000ed783398181016040528101906200003c9190620002eb565b6200005c620000506200017a60201b60201c565b6200018260201b60201c565b84600160006101000a81548173ffffffffffffffffffffffffffffffffffffffff021916908373ffffffffffffffffffffffffffffffffffffffff16021790555083600260006101000a81548173ffffffffffffffffffffffffffffffffffffffff021916908373ffffffffffffffffffffffffffffffffffffffff16021790555081600460006101000a81548173ffffffffffffffffffffffffffffffffffffffff021916908373ffffffffffffffffffffffffffffffffffffffff16021790555082600360006101000a81548173ffffffffffffffffffffffffffffffffffffffff021916908373ffffffffffffffffffffffffffffffffffffffff160217905550426080818152505080600581905550505050505062000373565b600033905090565b60008060009054906101000a900473ffffffffffffffffffffffffffffffffffffffff169050816000806101000a81548173ffffffffffffffffffffffffffffffffffffffff021916908373ffffffffffffffffffffffffffffffffffffffff1602179055508173ffffffffffffffffffffffffffffffffffffffff168173ffffffffffffffffffffffffffffffffffffffff167f8be0079c531659141344cd1fd0a4f28419497f9722a3daafe3b4186f6b6457e060405160405180910390a35050565b600080fd5b600073ffffffffffffffffffffffffffffffffffffffff82169050919050565b600062000278826200024b565b9050919050565b6200028a816200026b565b81146200029657600080fd5b50565b600081519050620002aa816200027f565b92915050565b6000819050919050565b620002c581620002b0565b8114620002d157600080fd5b50565b600081519050620002e581620002ba565b92915050565b600080600080600060a086880312156200030a576200030962000246565b5b60006200031a8882890162000299565b95505060206200032d8882890162000299565b9450506040620003408882890162000299565b9350506060620003538882890162000299565b92505060806200036688828901620002d4565b9150509295509295909350565b608051610b486200038f60003960006101b40152610b486000f3fe608060405234801561001057600080fd5b50600436106100935760003560e01c80638da5cb5b116100665780638da5cb5b146100fc5780639319fab11461011a5780639fe4ee4714610136578063d7cbfc9214610152578063f2fde38b1461017057610093565b80630144f9891461009857806305b34410146100b65780635e3044cb146100d4578063715018a6146100f2575b600080fd5b6100a061018c565b6040516100ad9190610733565b60405180910390f35b6100be6101b2565b6040516100cb9190610767565b60405180910390f35b6100dc6101d6565b6040516100e99190610733565b60405180910390f35b6100fa6101fc565b005b610104610284565b6040516101119190610733565b60405180910390f35b610134600480360381019061012f91906107b3565b6102ad565b005b610150600480360381019061014b91906107b3565b61036d565b005b61015a61042d565b604051610167919061089e565b60405180910390f35b61018a600480360381019061018591906107b3565b61052f565b005b600460009054906101000a900473ffffffffffffffffffffffffffffffffffffffff1681565b7f000000000000000000000000000000000000000000000000000000000000000081565b600360009054906101000a900473ffffffffffffffffffffffffffffffffffffffff1681565b610204610626565b73ffffffffffffffffffffffffffffffffffffffff16610222610284565b73ffffffffffffffffffffffffffffffffffffffff1614610278576040517f08c379a000000000000000000000000000000000000000000000000000000000815260040161026f9061091d565b60405180910390fd5b610282600061062e565b565b60008060009054906101000a900473ffffffffffffffffffffffffffffffffffffffff16905090565b6102b5610626565b73ffffffffffffffffffffffffffffffffffffffff166102d3610284565b73ffffffffffffffffffffffffffffffffffffffff1614610329576040517f08c379a00000000000000000000000000000000000000000000000000000000081526004016103209061091d565b60405180910390fd5b80600260006101000a81548173ffffffffffffffffffffffffffffffffffffffff021916908373ffffffffffffffffffffffffffffffffffffffff16021790555050565b610375610626565b73ffffffffffffffffffffffffffffffffffffffff16610393610284565b73ffffffffffffffffffffffffffffffffffffffff16146103e9576040517f08c379a00000000000000000000000000000000000000000000000000000000081526004016103e09061091d565b60405180910390fd5b80600160006101000a81548173ffffffffffffffffffffffffffffffffffffffff021916908373ffffffffffffffffffffffffffffffffffffffff16021790555050565b60606000600467ffffffffffffffff81111561044c5761044b61093d565b5b60405190808252806020026020018201604052801561047a5781602001602082028036833780820191505090505b5090506104d24261048b919061099b565b8160008151811061049f5761049e6109cc565b5b60200260200101818152505042816001815181106104c0576104bf6109cc565b5b60200260200101818152505061162e426104da919061099b565b816002815181106104ee576104ed6109cc565b5b602002602001018181525050612710426105089190610a2a565b8160038151811061051c5761051b6109cc565b5b6020026020010181815250508091505090565b610537610626565b73ffffffffffffffffffffffffffffffffffffffff16610555610284565b73ffffffffffffffffffffffffffffffffffffffff16146105ab576040517f08c379a00000000000000000000000000000000000000000000000000000000081526004016105a29061091d565b60405180910390fd5b600073ffffffffffffffffffffffffffffffffffffffff168173ffffffffffffffffffffffffffffffffffffffff160361061a576040517f08c379a000000000000000000000000000000000000000000000000000000000815260040161061190610af2565b60405180910390fd5b6106238161062e565b50565b600033905090565b60008060009054906101000a900473ffffffffffffffffffffffffffffffffffffffff169050816000806101000a81548173ffffffffffffffffffffffffffffffffffffffff021916908373ffffffffffffffffffffffffffffffffffffffff1602179055508173ffffffffffffffffffffffffffffffffffffffff168173ffffffffffffffffffffffffffffffffffffffff167f8be0079c531659141344cd1fd0a4f28419497f9722a3daafe3b4186f6b6457e060405160405180910390a35050565b600073ffffffffffffffffffffffffffffffffffffffff82169050919050565b600061071d826106f2565b9050919050565b61072d81610712565b82525050565b60006020820190506107486000830184610724565b92915050565b6000819050919050565b6107618161074e565b82525050565b600060208201905061077c6000830184610758565b92915050565b600080fd5b61079081610712565b811461079b57600080fd5b50565b6000813590506107ad81610787565b92915050565b6000602082840312156107c9576107c8610782565b5b60006107d78482850161079e565b91505092915050565b600081519050919050565b600082825260208201905092915050565b6000819050602082019050919050565b6108158161074e565b82525050565b6000610827838361080c565b60208301905092915050565b6000602082019050919050565b600061084b826107e0565b61085581856107eb565b9350610860836107fc565b8060005b83811015610891578151610878888261081b565b975061088383610833565b925050600181019050610864565b5085935050505092915050565b600060208201905081810360008301526108b88184610840565b905092915050565b600082825260208201905092915050565b7f4f776e61626c653a2063616c6c6572206973206e6f7420746865206f776e6572600082015250565b60006109076020836108c0565b9150610912826108d1565b602082019050919050565b60006020820190508181036000830152610936816108fa565b9050919050565b7f4e487b7100000000000000000000000000000000000000000000000000000000600052604160045260246000fd5b7f4e487b7100000000000000000000000000000000000000000000000000000000600052601260045260246000fd5b60006109a68261074e565b91506109b18361074e565b9250826109c1576109c061096c565b5b828206905092915050565b7f4e487b7100000000000000000000000000000000000000000000000000000000600052603260045260246000fd5b7f4e487b7100000000000000000000000000000000000000000000000000000000600052601160045260246000fd5b6000610a358261074e565b9150610a408361074e565b9250827fffffffffffffffffffffffffffffffffffffffffffffffffffffffffffffffff03821115610a7557610a746109fb565b5b828201905092915050565b7f4f776e61626c653a206e6577206f776e657220697320746865207a65726f206160008201527f6464726573730000000000000000000000000000000000000000000000000000602082015250565b6000610adc6026836108c0565b9150610ae782610a80565b604082019050919050565b60006020820190508181036000830152610b0b81610acf565b905091905056fea26469706673582212209e061f0e7a1aec5b03f19c366dc8c63649f6ed907e7eae155428137e9b48168864736f6c634300080d0033",
  "immutableReferences": {
    "781": [
      {
        "length": 32,
        "start": 436
      }
    ]
  },
  "source": "// SPDX-License-Identifier: MIT\r\npragma solidity >=0.4.22 <0.9.0;\r\n\r\nimport \"./Aggregator.sol\";\r\nimport \"./RoyaltyComputation.sol\";\r\nimport \"@openzeppelin/contracts/access/Ownable.sol\";\r\n\r\ninterface Manager {\r\n    function updateAggregator(address) external;\r\n\r\n    function updateRoyaltyComputation(address) external;\r\n\r\n    function getRoyaltyHistoryList() external returns (uint256[] memory);\r\n}\r\n\r\ncontract ManagerContract is Manager, Ownable {\r\n    Aggregator aggregator;\r\n    RoyaltyComputation royaltyComputation;\r\n    uint256 public immutable creationDate;\r\n    address public licensee;\r\n    address public licensor;\r\n\r\n    uint256 testVar = 123;\r\n\r\n    constructor(\r\n        address _aggregator,\r\n        address _royaltyComputation,\r\n        address _licensee,\r\n        address _licensor,\r\n        uint256 _testVar\r\n    ) {\r\n        aggregator = Aggregator(_aggregator);\r\n        royaltyComputation = RoyaltyComputation(_royaltyComputation);\r\n        licensor = _licensor;\r\n        licensee = _licensee;\r\n        creationDate = block.timestamp;\r\n        testVar = _testVar;\r\n    }\r\n\r\n    function updateAggregator(address _aggregator) public onlyOwner override {\r\n        aggregator = Aggregator(_aggregator);\r\n    }\r\n\r\n    function updateRoyaltyComputation(address _royaltyComputation) public onlyOwner override {\r\n        royaltyComputation = RoyaltyComputation(_royaltyComputation);\r\n    }\r\n\r\n    // test input for dapp, format [royalty, time]\r\n    function getRoyaltyHistoryList() external returns (uint256[] memory) {\r\n        uint256[] memory hist =  new uint256[](4);\r\n        hist[0] = block.timestamp % 1234;\r\n        hist[1] = block.timestamp;\r\n        hist[2] = block.timestamp % 5678;\r\n        hist[3] = block.timestamp + 10000;\r\n        return hist;\r\n    }\r\n\r\n}\r\n\r\n",
  "sourcePath": "C:\\Users\\n3zqi\\Desktop\\ALPS-Dapp-IDP\\alps-licensee\\contracts\\Manager.sol",
  "compiler": {
    "name": "solc",
    "version": "0.8.13+commit.abaa5c0e.Emscripten.clang"
  },
  "schemaVersion": "3.4.4",
  "updatedAt": "2022-04-21T09:33:03.796Z",
  "networkType": "ethereum",
  "devdoc": {
    "kind": "dev",
    "methods": {
      "owner()": {
        "details": "Returns the address of the current owner."
      },
      "renounceOwnership()": {
        "details": "Leaves the contract without owner. It will not be possible to call `onlyOwner` functions anymore. Can only be called by the current owner. NOTE: Renouncing ownership will leave the contract without an owner, thereby removing any functionality that is only available to the owner."
      },
      "transferOwnership(address)": {
        "details": "Transfers ownership of the contract to a new account (`newOwner`). Can only be called by the current owner."
      }
    },
    "version": 1
  },
  "userdoc": {
    "kind": "user",
    "methods": {},
    "version": 1
  }
}