{
  "contractName": "OracleDemo",
  "abi": [
    {
      "inputs": [],
      "payable": false,
      "stateMutability": "nonpayable",
      "type": "constructor"
    },
    {
      "constant": true,
      "inputs": [
        {
          "internalType": "uint256",
          "name": "",
          "type": "uint256"
        }
      ],
      "name": "deviceIdToNumber",
      "outputs": [
        {
          "internalType": "uint256",
          "name": "",
          "type": "uint256"
        }
      ],
      "payable": false,
      "stateMutability": "view",
      "type": "function"
    },
    {
      "constant": true,
      "inputs": [
        {
          "internalType": "uint256",
          "name": "",
          "type": "uint256"
        }
      ],
      "name": "deviceIdToPrice",
      "outputs": [
        {
          "internalType": "uint256",
          "name": "",
          "type": "uint256"
        }
      ],
      "payable": false,
      "stateMutability": "view",
      "type": "function"
    }
  ],
  "bytecode": "0x608060405234801561001057600080fd5b5060e76000806103e881526020019081526020016000208190555061023a6000806107d0815260200190815260200160002081905550605a600160006103e88152602001908152602001600020819055506011600160006107d081526020019081526020016000208190555061011a8061008b6000396000f3fe6080604052348015600f57600080fd5b506004361060325760003560e01c8063117caedd146037578063b74e267a146076575b600080fd5b606060048036036020811015604b57600080fd5b810190808035906020019092919050505060b5565b6040518082815260200191505060405180910390f35b609f60048036036020811015608a57600080fd5b810190808035906020019092919050505060cd565b6040518082815260200191505060405180910390f35b60006020528060005260406000206000915090505481565b6001602052806000526040600020600091509050548156fea265627a7a723158206aaf40c796c8ee6af96766b8910c84dcac7f3d9a17fb24727645f8895995139264736f6c63430005100032",
  "source": "pragma solidity >=0.4.22 <0.9.0;\r\n\r\ncontract OracleDemo {\r\n    mapping(uint256 => uint256) public deviceIdToNumber;\r\n    mapping(uint256 => uint256) public deviceIdToPrice;\r\n\r\n    constructor() public {\r\n        deviceIdToNumber[1000] = 231;\r\n        deviceIdToNumber[2000] = 570;\r\n        deviceIdToPrice[1000] = 90;\r\n        deviceIdToPrice[2000] = 17;\r\n    }\r\n}\r\n",
  "sourcePath": "C:/Users/n3zqi/Desktop/IDP/Dapp/alps-licensee/contracts/OracleDemo.sol",
  "compiler": {
    "name": "solc",
    "version": "0.5.16+commit.9c3226ce.Emscripten.clang"
  },
  "schemaVersion": "3.3.3",
  "updatedAt": "2021-06-10T15:53:39.820Z",
  "networkType": "ethereum",
  "devdoc": {
    "methods": {}
  },
  "userdoc": {
    "methods": {}
  }
}