{
  "contractName": "OracleDemo",
  "abi": [
    {
      "inputs": [],
      "stateMutability": "nonpayable",
      "type": "constructor"
    },
    {
      "inputs": [
        {
          "internalType": "uint256",
          "name": "",
          "type": "uint256"
        }
      ],
      "name": "deviceIdToNumber",
      "outputs": [
        {
          "internalType": "uint256",
          "name": "",
          "type": "uint256"
        }
      ],
      "stateMutability": "view",
      "type": "function"
    },
    {
      "inputs": [
        {
          "internalType": "uint256",
          "name": "",
          "type": "uint256"
        }
      ],
      "name": "deviceIdToPrice",
      "outputs": [
        {
          "internalType": "uint256",
          "name": "",
          "type": "uint256"
        }
      ],
      "stateMutability": "view",
      "type": "function"
    }
  ],
  "bytecode": "0x608060405234801561001057600080fd5b5060e76000806103e881526020019081526020016000208190555061023a6000806107d0815260200190815260200160002081905550605a600160006103e88152602001908152602001600020819055506011600160006107d08152602001908152602001600020819055506101938061008b6000396000f3fe608060405234801561001057600080fd5b50600436106100365760003560e01c8063117caedd1461003b578063b74e267a1461006b575b600080fd5b61005560048036038101906100509190610106565b61009b565b6040516100629190610142565b60405180910390f35b61008560048036038101906100809190610106565b6100b3565b6040516100929190610142565b60405180910390f35b60006020528060005260406000206000915090505481565b60016020528060005260406000206000915090505481565b600080fd5b6000819050919050565b6100e3816100d0565b81146100ee57600080fd5b50565b600081359050610100816100da565b92915050565b60006020828403121561011c5761011b6100cb565b5b600061012a848285016100f1565b91505092915050565b61013c816100d0565b82525050565b60006020820190506101576000830184610133565b9291505056fea2646970667358221220f88ae0ac851639295a2e1d4e5a81b46bb282c7f22a522c00d06e2742f3eba79b64736f6c634300080d0033",
  "immutableReferences": {},
  "source": "pragma solidity >=0.4.22 <0.9.0;\r\n\r\ncontract OracleDemo {\r\n    mapping(uint256 => uint256) public deviceIdToNumber;\r\n    mapping(uint256 => uint256) public deviceIdToPrice;\r\n\r\n    constructor() public {\r\n        deviceIdToNumber[1000] = 231;\r\n        deviceIdToNumber[2000] = 570;\r\n        deviceIdToPrice[1000] = 90;\r\n        deviceIdToPrice[2000] = 17;\r\n    }\r\n}\r\n",
  "sourcePath": "C:\\Users\\n3zqi\\Desktop\\ALPS-Dapp-IDP\\alps-licensee\\contracts\\OracleDemo.sol",
  "compiler": {
    "name": "solc",
    "version": "0.8.13+commit.abaa5c0e.Emscripten.clang"
  },
  "schemaVersion": "3.4.4",
  "updatedAt": "2022-04-21T09:32:39.587Z",
  "devdoc": {
    "kind": "dev",
    "methods": {},
    "version": 1
  },
  "userdoc": {
    "kind": "user",
    "methods": {},
    "version": 1
  }
}