{
  "contractName": "RoyaltyComputationContract",
  "abi": [
    {
      "inputs": [
        {
          "internalType": "address",
          "name": "_aggregator",
          "type": "address"
        }
      ],
      "stateMutability": "nonpayable",
      "type": "constructor"
    },
    {
      "anonymous": false,
      "inputs": [
        {
          "indexed": true,
          "internalType": "address",
          "name": "previousOwner",
          "type": "address"
        },
        {
          "indexed": true,
          "internalType": "address",
          "name": "newOwner",
          "type": "address"
        }
      ],
      "name": "OwnershipTransferred",
      "type": "event"
    },
    {
      "inputs": [],
      "name": "owner",
      "outputs": [
        {
          "internalType": "address",
          "name": "",
          "type": "address"
        }
      ],
      "stateMutability": "view",
      "type": "function",
      "constant": true
    },
    {
      "inputs": [],
      "name": "renounceOwnership",
      "outputs": [],
      "stateMutability": "nonpayable",
      "type": "function"
    },
    {
      "inputs": [
        {
          "internalType": "uint256",
          "name": "",
          "type": "uint256"
        }
      ],
      "name": "royaltyHistory",
      "outputs": [
        {
          "internalType": "uint256",
          "name": "periodTime_start",
          "type": "uint256"
        },
        {
          "internalType": "uint256",
          "name": "computedRoyalty",
          "type": "uint256"
        },
        {
          "internalType": "bool",
          "name": "paid",
          "type": "bool"
        }
      ],
      "stateMutability": "view",
      "type": "function",
      "constant": true
    },
    {
      "inputs": [
        {
          "internalType": "address",
          "name": "newOwner",
          "type": "address"
        }
      ],
      "name": "transferOwnership",
      "outputs": [],
      "stateMutability": "nonpayable",
      "type": "function"
    },
    {
      "inputs": [
        {
          "internalType": "uint256",
          "name": "_time",
          "type": "uint256"
        }
      ],
      "name": "computeRoyalties",
      "outputs": [],
      "stateMutability": "nonpayable",
      "type": "function"
    },
    {
      "inputs": [],
      "name": "computeRoyalties",
      "outputs": [],
      "stateMutability": "nonpayable",
      "type": "function"
    },
    {
      "inputs": [],
      "name": "getRoyaltyHistory",
      "outputs": [
        {
          "components": [
            {
              "internalType": "uint256",
              "name": "periodTime_start",
              "type": "uint256"
            },
            {
              "internalType": "uint256",
              "name": "computedRoyalty",
              "type": "uint256"
            },
            {
              "internalType": "bool",
              "name": "paid",
              "type": "bool"
            }
          ],
          "internalType": "struct ALPSBase.Royalty[]",
          "name": "",
          "type": "tuple[]"
        }
      ],
      "stateMutability": "nonpayable",
      "type": "function"
    },
    {
      "inputs": [],
      "name": "getRoyaltyHistoryTest",
      "outputs": [
        {
          "internalType": "uint256[]",
          "name": "",
          "type": "uint256[]"
        },
        {
          "internalType": "uint256[]",
          "name": "",
          "type": "uint256[]"
        }
      ],
      "stateMutability": "nonpayable",
      "type": "function"
    }
  ],
  "bytecode": "0x60806040523480156200001157600080fd5b506040516200186e3803806200186e8339818101604052810190620000379190620001d5565b620000576200004b6200009f60201b60201c565b620000a760201b60201c565b80600160006101000a81548173ffffffffffffffffffffffffffffffffffffffff021916908373ffffffffffffffffffffffffffffffffffffffff1602179055505062000207565b600033905090565b60008060009054906101000a900473ffffffffffffffffffffffffffffffffffffffff169050816000806101000a81548173ffffffffffffffffffffffffffffffffffffffff021916908373ffffffffffffffffffffffffffffffffffffffff1602179055508173ffffffffffffffffffffffffffffffffffffffff168173ffffffffffffffffffffffffffffffffffffffff167f8be0079c531659141344cd1fd0a4f28419497f9722a3daafe3b4186f6b6457e060405160405180910390a35050565b600080fd5b600073ffffffffffffffffffffffffffffffffffffffff82169050919050565b60006200019d8262000170565b9050919050565b620001af8162000190565b8114620001bb57600080fd5b50565b600081519050620001cf81620001a4565b92915050565b600060208284031215620001ee57620001ed6200016b565b5b6000620001fe84828501620001be565b91505092915050565b61165780620002176000396000f3fe608060405234801561001057600080fd5b50600436106100885760003560e01c80638da5cb5b1161005b5780638da5cb5b14610103578063d102a6c514610121578063f2fde38b1461012b578063fc85bb701461014757610088565b80630c8d99b61461008d578063519c2995146100a9578063715018a6146100db57806383063967146100e5575b600080fd5b6100a760048036038101906100a29190610e16565b610166565b005b6100c360048036038101906100be9190610e16565b6108b0565b6040516100d293929190610e6d565b60405180910390f35b6100e36108f7565b005b6100ed61097f565b6040516100fa9190610fb3565b60405180910390f35b61010b610a9d565b6040516101189190611016565b60405180910390f35b610129610ac6565b005b6101456004803603810190610140919061105d565b610ad1565b005b61014f610bc8565b60405161015d929190611139565b60405180910390f35b600160009054906101000a900473ffffffffffffffffffffffffffffffffffffffff1673ffffffffffffffffffffffffffffffffffffffff1663230edb906040518163ffffffff1660e01b8152600401602060405180830381865afa1580156101d3573d6000803e3d6000fd5b505050506040513d601f19601f820116820180604052508101906101f79190611185565b81106108ad57600160009054906101000a900473ffffffffffffffffffffffffffffffffffffffff1673ffffffffffffffffffffffffffffffffffffffff1663a91a2ab9826040518263ffffffff1660e01b815260040161025891906111b2565b6020604051808303816000875af1158015610277573d6000803e3d6000fd5b505050506040513d601f19601f8201168201806040525081019061029b91906111f9565b506000600160009054906101000a900473ffffffffffffffffffffffffffffffffffffffff1673ffffffffffffffffffffffffffffffffffffffff16636efbb05b6040518163ffffffff1660e01b8152600401602060405180830381865afa15801561030b573d6000803e3d6000fd5b505050506040513d601f19601f8201168201806040525081019061032f9190611185565b90506000600280549050036106655780600160009054906101000a900473ffffffffffffffffffffffffffffffffffffffff1673ffffffffffffffffffffffffffffffffffffffff1663230edb906040518163ffffffff1660e01b8152600401602060405180830381865afa1580156103ac573d6000803e3d6000fd5b505050506040513d601f19601f820116820180604052508101906103d09190611185565b6103da9190611255565b821061065e576000600160009054906101000a900473ffffffffffffffffffffffffffffffffffffffff1673ffffffffffffffffffffffffffffffffffffffff1663269aa53160006040518263ffffffff1660e01b815260040161043e91906112f0565b60a060405180830381865afa15801561045b573d6000803e3d6000fd5b505050506040513d601f19601f8201168201806040525081019061047f9190611428565b602001516103e86104909190611455565b9050600160009054906101000a900473ffffffffffffffffffffffffffffffffffffffff1673ffffffffffffffffffffffffffffffffffffffff1663269aa53160006040518263ffffffff1660e01b81526004016104ee91906112f0565b60a060405180830381865afa15801561050b573d6000803e3d6000fd5b505050506040513d601f19601f8201168201806040525081019061052f9190611428565b60600151156105495761014d816105469190611255565b90505b60026040518060600160405280600160009054906101000a900473ffffffffffffffffffffffffffffffffffffffff1673ffffffffffffffffffffffffffffffffffffffff1663230edb906040518163ffffffff1660e01b8152600401602060405180830381865afa1580156105c3573d6000803e3d6000fd5b505050506040513d601f19601f820116820180604052508101906105e79190611185565b8152602001838152602001600015158152509080600181540180825580915050600190039060005260206000209060030201600090919091909150600082015181600001556020820151816001015560408201518160020160006101000a81548160ff021916908315150217905550505050610664565b506108ad565b5b6000816002600160028054905061067c91906114af565b8154811061068d5761068c6114e3565b5b9060005260206000209060030201600001546106a99190611255565b90505b81816106b89190611255565b83106108aa576000600160009054906101000a900473ffffffffffffffffffffffffffffffffffffffff1673ffffffffffffffffffffffffffffffffffffffff16639c957e32836040518263ffffffff1660e01b815260040161071b91906111b2565b60a060405180830381865afa158015610738573d6000803e3d6000fd5b505050506040513d601f19601f8201168201806040525081019061075c9190611428565b602001516103e861076d9190611455565b9050600160009054906101000a900473ffffffffffffffffffffffffffffffffffffffff1673ffffffffffffffffffffffffffffffffffffffff16639c957e32836040518263ffffffff1660e01b81526004016107ca91906111b2565b60a060405180830381865afa1580156107e7573d6000803e3d6000fd5b505050506040513d601f19601f8201168201806040525081019061080b9190611428565b60600151156108255761014d816108229190611255565b90505b60026040518060600160405280848152602001838152602001600015158152509080600181540180825580915050600190039060005260206000209060030201600090919091909150600082015181600001556020820151816001015560408201518160020160006101000a81548160ff0219169083151502179055505050506106ac565b50505b50565b600281815481106108c057600080fd5b90600052602060002090600302016000915090508060000154908060010154908060020160009054906101000a900460ff16905083565b6108ff610d05565b73ffffffffffffffffffffffffffffffffffffffff1661091d610a9d565b73ffffffffffffffffffffffffffffffffffffffff1614610973576040517f08c379a000000000000000000000000000000000000000000000000000000000815260040161096a9061156f565b60405180910390fd5b61097d6000610d0d565b565b6060600060028054905003610a115760026040518060600160405280600081526020016103e78152602001600015158152509080600181540180825580915050600190039060005260206000209060030201600090919091909150600082015181600001556020820151816001015560408201518160020160006101000a81548160ff02191690831515021790555050505b6002805480602002602001604051908101604052809291908181526020016000905b82821015610a94578382906000526020600020906003020160405180606001604052908160008201548152602001600182015481526020016002820160009054906101000a900460ff16151515158152505081526020019060010190610a33565b50505050905090565b60008060009054906101000a900473ffffffffffffffffffffffffffffffffffffffff16905090565b610acf42610166565b565b610ad9610d05565b73ffffffffffffffffffffffffffffffffffffffff16610af7610a9d565b73ffffffffffffffffffffffffffffffffffffffff1614610b4d576040517f08c379a0000000000000000000000000000000000000000000000000000000008152600401610b449061156f565b60405180910390fd5b600073ffffffffffffffffffffffffffffffffffffffff168173ffffffffffffffffffffffffffffffffffffffff1603610bbc576040517f08c379a0000000000000000000000000000000000000000000000000000000008152600401610bb390611601565b60405180910390fd5b610bc581610d0d565b50565b606080600060028054905003610c5b5760026040518060600160405280600081526020016103e78152602001600015158152509080600181540180825580915050600190039060005260206000209060030201600090919091909150600082015181600001556020820151816001015560408201518160020160006101000a81548160ff02191690831515021790555050505b600060028054905067ffffffffffffffff811115610c7c57610c7b611321565b5b604051908082528060200260200182016040528015610caa5781602001602082028036833780820191505090505b509050600060028054905067ffffffffffffffff811115610cce57610ccd611321565b5b604051908082528060200260200182016040528015610cfc5781602001602082028036833780820191505090505b50905050509091565b600033905090565b60008060009054906101000a900473ffffffffffffffffffffffffffffffffffffffff169050816000806101000a81548173ffffffffffffffffffffffffffffffffffffffff021916908373ffffffffffffffffffffffffffffffffffffffff1602179055508173ffffffffffffffffffffffffffffffffffffffff168173ffffffffffffffffffffffffffffffffffffffff167f8be0079c531659141344cd1fd0a4f28419497f9722a3daafe3b4186f6b6457e060405160405180910390a35050565b6000604051905090565b600080fd5b6000819050919050565b610df381610de0565b8114610dfe57600080fd5b50565b600081359050610e1081610dea565b92915050565b600060208284031215610e2c57610e2b610ddb565b5b6000610e3a84828501610e01565b91505092915050565b610e4c81610de0565b82525050565b60008115159050919050565b610e6781610e52565b82525050565b6000606082019050610e826000830186610e43565b610e8f6020830185610e43565b610e9c6040830184610e5e565b949350505050565b600081519050919050565b600082825260208201905092915050565b6000819050602082019050919050565b610ed981610de0565b82525050565b610ee881610e52565b82525050565b606082016000820151610f046000850182610ed0565b506020820151610f176020850182610ed0565b506040820151610f2a6040850182610edf565b50505050565b6000610f3c8383610eee565b60608301905092915050565b6000602082019050919050565b6000610f6082610ea4565b610f6a8185610eaf565b9350610f7583610ec0565b8060005b83811015610fa6578151610f8d8882610f30565b9750610f9883610f48565b925050600181019050610f79565b5085935050505092915050565b60006020820190508181036000830152610fcd8184610f55565b905092915050565b600073ffffffffffffffffffffffffffffffffffffffff82169050919050565b600061100082610fd5565b9050919050565b61101081610ff5565b82525050565b600060208201905061102b6000830184611007565b92915050565b61103a81610ff5565b811461104557600080fd5b50565b60008135905061105781611031565b92915050565b60006020828403121561107357611072610ddb565b5b600061108184828501611048565b91505092915050565b600081519050919050565b600082825260208201905092915050565b6000819050602082019050919050565b60006110c28383610ed0565b60208301905092915050565b6000602082019050919050565b60006110e68261108a565b6110f08185611095565b93506110fb836110a6565b8060005b8381101561112c57815161111388826110b6565b975061111e836110ce565b9250506001810190506110ff565b5085935050505092915050565b6000604082019050818103600083015261115381856110db565b9050818103602083015261116781846110db565b90509392505050565b60008151905061117f81610dea565b92915050565b60006020828403121561119b5761119a610ddb565b5b60006111a984828501611170565b91505092915050565b60006020820190506111c76000830184610e43565b92915050565b6111d681610e52565b81146111e157600080fd5b50565b6000815190506111f3816111cd565b92915050565b60006020828403121561120f5761120e610ddb565b5b600061121d848285016111e4565b91505092915050565b7f4e487b7100000000000000000000000000000000000000000000000000000000600052601160045260246000fd5b600061126082610de0565b915061126b83610de0565b9250827fffffffffffffffffffffffffffffffffffffffffffffffffffffffffffffffff038211156112a05761129f611226565b5b828201905092915050565b6000819050919050565b6000819050919050565b60006112da6112d56112d0846112ab565b6112b5565b610de0565b9050919050565b6112ea816112bf565b82525050565b600060208201905061130560008301846112e1565b92915050565b600080fd5b6000601f19601f8301169050919050565b7f4e487b7100000000000000000000000000000000000000000000000000000000600052604160045260246000fd5b61135982611310565b810181811067ffffffffffffffff8211171561137857611377611321565b5b80604052505050565b600061138b610dd1565b90506113978282611350565b919050565b600060a082840312156113b2576113b161130b565b5b6113bc60a0611381565b905060006113cc84828501611170565b60008301525060206113e084828501611170565b60208301525060406113f4848285016111e4565b6040830152506060611408848285016111e4565b606083015250608061141c848285016111e4565b60808301525092915050565b600060a0828403121561143e5761143d610ddb565b5b600061144c8482850161139c565b91505092915050565b600061146082610de0565b915061146b83610de0565b9250817fffffffffffffffffffffffffffffffffffffffffffffffffffffffffffffffff04831182151516156114a4576114a3611226565b5b828202905092915050565b60006114ba82610de0565b91506114c583610de0565b9250828210156114d8576114d7611226565b5b828203905092915050565b7f4e487b7100000000000000000000000000000000000000000000000000000000600052603260045260246000fd5b600082825260208201905092915050565b7f4f776e61626c653a2063616c6c6572206973206e6f7420746865206f776e6572600082015250565b6000611559602083611512565b915061156482611523565b602082019050919050565b600060208201905081810360008301526115888161154c565b9050919050565b7f4f776e61626c653a206e6577206f776e657220697320746865207a65726f206160008201527f6464726573730000000000000000000000000000000000000000000000000000602082015250565b60006115eb602683611512565b91506115f68261158f565b604082019050919050565b6000602082019050818103600083015261161a816115de565b905091905056fea26469706673582212204b74646ae4b897133ca4d23cf5f0cc00a7d48f865504107c3bb8823bc82aa3c364736f6c634300080d0033",
  "immutableReferences": {},
  "source": "// SPDX-License-Identifier: MIT\r\npragma solidity >=0.4.22 <0.9.0;\r\n\r\nimport \"./Aggregator.sol\";\r\nimport \"@openzeppelin/contracts/access/Ownable.sol\";\r\n\r\ninterface RoyaltyComputation is ALPSBase {\r\n    //computes all royalties up to a given time\r\n    function computeRoyalties(uint256) external;\r\n\r\n    //computes all royalties up to now\r\n    function computeRoyalties() external;\r\n\r\n\r\n    // returns (last computed royalty, time of computation)\r\n    //function getComputedRoyalty() external returns (uint256, uint256);\r\n\r\n    function getRoyaltyHistory() external  returns (Royalty[] memory);\r\n}\r\n/*\r\nExample policy:\r\n\"each 5 min pay 1000 for each new millisecond the screen was in use and 333 if the bluetooth was used at all during each period\"\r\nthe aggregator remembers the last read nad updates all previous values as needed\r\ni.e. it checks the current timestamp and updates all previous updated hourly values for its two attributes:\r\none int of the cumulative milliseconds usage of screen time during that period\r\none bool of wheter bluetooth was used or not during that period.\r\n\r\nWe use an array fo time periods with computed values during that period\r\nThe last time period still open is coindiered undefined; the value is only computed after the period closure\r\n*/\r\ncontract RoyaltyComputationContract is RoyaltyComputation, Ownable {\r\n    AggregatorContract aggrContract;\r\n    \r\n    Royalty[] public royaltyHistory;\r\n\r\n    //use times from the aggregator\r\n    //initial time for royalties collection\r\n    //uint256 collectionTime_start;\r\n    //final time for royalties collection (excluded, i.e. this timestamp will not contribute values)\r\n    //uint256 collectionTime_end;\r\n    //offset time for royalties collection, i.e. size in seconds of the time window for values update\r\n    //uint256 collectionTime_duration;\r\n\r\n\r\n\r\n    constructor(address _aggregator) {\r\n        aggrContract = AggregatorContract(_aggregator);\r\n    }\r\n\r\n    function computeRoyalties() public override{ computeRoyalties(block.timestamp);}\r\n\r\n    function computeRoyalties(uint256 _time) public override{\r\n        //update all royalty values relative to the given time\r\n        \r\n        if(_time<aggrContract.get_collectionTime_start()){\r\n            //asked time is before collection start time\r\n            return;\r\n        }else{\r\n            aggrContract.updateAttributeValues(_time);\r\n        }\r\n        uint256 duration = aggrContract.get_collectionTime_duration();\r\n        //if empty we might have to first create the first datapoint\r\n        if(royaltyHistory.length == 0){\r\n            if(_time >= aggrContract.get_collectionTime_start() + duration){\r\n                uint256 royalty = 1000*(aggrContract.getAttributeValuesByIndex(0).value_screenUsage);\r\n                if(aggrContract.getAttributeValuesByIndex(0).value_bluetoothUsed){\r\n                    royalty = royalty + 333;\r\n                }\r\n                //2) add new datapoint for that time interval\r\n                royaltyHistory.push(\r\n                    Royalty({\r\n                        periodTime_start : aggrContract.get_collectionTime_start(),\r\n                        computedRoyalty : royalty,\r\n                        paid : false\r\n                    }));\r\n            }else{\r\n                //no new royalty values can be computed yet\r\n                return;\r\n            }\r\n        }\r\n\r\n\r\n        uint256 newStartTime = royaltyHistory[royaltyHistory.length-1].periodTime_start + duration;\r\n        while (_time >= newStartTime + duration){\r\n            //PRE: collectionTime_duration > 0 (i.e. >= 1)\r\n            uint256 royalty = 1000*(aggrContract.getAttributeValues(newStartTime).value_screenUsage);\r\n            if(aggrContract.getAttributeValues(newStartTime).value_bluetoothUsed){\r\n                   royalty = royalty + 333;\r\n            }\r\n            //2) add new datapoint for that time interval\r\n            royaltyHistory.push(\r\n                Royalty({\r\n                    periodTime_start : newStartTime,\r\n                    computedRoyalty : royalty,\r\n                    paid : false\r\n                }));\r\n        }\r\n    }\r\n\r\n        function getRoyaltyHistory() external override returns (Royalty[] memory) {\r\n            if (royaltyHistory.length == 0) {\r\n                royaltyHistory.push(\r\n                    Royalty({\r\n                        periodTime_start : 0,\r\n                        computedRoyalty : 999,\r\n                        paid : false\r\n                    }));\r\n            }\r\n        return royaltyHistory;\r\n    }\r\n\r\n    function getRoyaltyHistoryTest() external returns (uint256[] memory, uint256[] memory) {\r\n        if (royaltyHistory.length == 0) {\r\n                royaltyHistory.push(\r\n                    Royalty({\r\n                        periodTime_start : 0,\r\n                        computedRoyalty : 999,\r\n                        paid : false\r\n                    }));\r\n            }\r\n        uint256[] memory computedRoyalty =  new uint256[](royaltyHistory.length);\r\n        uint256[] memory timeStart =  new uint256[](royaltyHistory.length);\r\n    }\r\n}\r\n\r\n",
  "sourcePath": "C:\\Users\\n3zqi\\Desktop\\ALPS-Dapp-IDP\\alps-licensee\\contracts\\RoyaltyComputation.sol",
  "compiler": {
    "name": "solc",
    "version": "0.8.13+commit.abaa5c0e.Emscripten.clang"
  },
  "schemaVersion": "3.4.4",
  "updatedAt": "2022-04-21T09:33:03.762Z",
  "networkType": "ethereum",
  "devdoc": {
    "kind": "dev",
    "methods": {
      "owner()": {
        "details": "Returns the address of the current owner."
      },
      "renounceOwnership()": {
        "details": "Leaves the contract without owner. It will not be possible to call `onlyOwner` functions anymore. Can only be called by the current owner. NOTE: Renouncing ownership will leave the contract without an owner, thereby removing any functionality that is only available to the owner."
      },
      "transferOwnership(address)": {
        "details": "Transfers ownership of the contract to a new account (`newOwner`). Can only be called by the current owner."
      }
    },
    "version": 1
  },
  "userdoc": {
    "kind": "user",
    "methods": {},
    "version": 1
  }
}