{
  "contractName": "SmartLicense1",
  "abi": [
    {
      "inputs": [],
      "payable": false,
      "stateMutability": "nonpayable",
      "type": "constructor"
    },
    {
      "constant": true,
      "inputs": [],
      "name": "contractId",
      "outputs": [
        {
          "internalType": "string",
          "name": "",
          "type": "string"
        }
      ],
      "payable": false,
      "stateMutability": "view",
      "type": "function"
    },
    {
      "constant": true,
      "inputs": [],
      "name": "devices",
      "outputs": [
        {
          "internalType": "string",
          "name": "",
          "type": "string"
        }
      ],
      "payable": false,
      "stateMutability": "view",
      "type": "function"
    },
    {
      "constant": true,
      "inputs": [],
      "name": "dueAmount",
      "outputs": [
        {
          "internalType": "uint256",
          "name": "",
          "type": "uint256"
        }
      ],
      "payable": false,
      "stateMutability": "view",
      "type": "function"
    },
    {
      "constant": true,
      "inputs": [],
      "name": "licensee",
      "outputs": [
        {
          "internalType": "string",
          "name": "",
          "type": "string"
        }
      ],
      "payable": false,
      "stateMutability": "view",
      "type": "function"
    },
    {
      "constant": true,
      "inputs": [],
      "name": "licensor",
      "outputs": [
        {
          "internalType": "string",
          "name": "",
          "type": "string"
        }
      ],
      "payable": false,
      "stateMutability": "view",
      "type": "function"
    },
    {
      "constant": true,
      "inputs": [],
      "name": "startDate",
      "outputs": [
        {
          "internalType": "string",
          "name": "",
          "type": "string"
        }
      ],
      "payable": false,
      "stateMutability": "view",
      "type": "function"
    },
    {
      "constant": false,
      "inputs": [
        {
          "internalType": "uint256",
          "name": "amount",
          "type": "uint256"
        }
      ],
      "name": "acknowledgePayment",
      "outputs": [],
      "payable": false,
      "stateMutability": "nonpayable",
      "type": "function"
    },
    {
      "constant": false,
      "inputs": [
        {
          "internalType": "uint256",
          "name": "amount",
          "type": "uint256"
        }
      ],
      "name": "computeRoyalty",
      "outputs": [],
      "payable": false,
      "stateMutability": "nonpayable",
      "type": "function"
    },
    {
      "constant": false,
      "inputs": [],
      "name": "getContractType",
      "outputs": [
        {
          "internalType": "string",
          "name": "",
          "type": "string"
        }
      ],
      "payable": false,
      "stateMutability": "nonpayable",
      "type": "function"
    },
    {
      "constant": false,
      "inputs": [
        {
          "internalType": "string",
          "name": "x",
          "type": "string"
        }
      ],
      "name": "setLicensee",
      "outputs": [],
      "payable": false,
      "stateMutability": "nonpayable",
      "type": "function"
    },
    {
      "constant": false,
      "inputs": [
        {
          "internalType": "string",
          "name": "x",
          "type": "string"
        }
      ],
      "name": "setLicensor",
      "outputs": [],
      "payable": false,
      "stateMutability": "nonpayable",
      "type": "function"
    },
    {
      "constant": false,
      "inputs": [
        {
          "internalType": "string",
          "name": "x",
          "type": "string"
        }
      ],
      "name": "setDevices",
      "outputs": [],
      "payable": false,
      "stateMutability": "nonpayable",
      "type": "function"
    },
    {
      "constant": false,
      "inputs": [
        {
          "internalType": "string",
          "name": "x",
          "type": "string"
        }
      ],
      "name": "setStartDate",
      "outputs": [],
      "payable": false,
      "stateMutability": "nonpayable",
      "type": "function"
    },
    {
      "constant": false,
      "inputs": [
        {
          "internalType": "uint256",
          "name": "x",
          "type": "uint256"
        }
      ],
      "name": "setDueAmount",
      "outputs": [],
      "payable": false,
      "stateMutability": "nonpayable",
      "type": "function"
    }
  ],
  "bytecode": "0x60806040526040518060400160405280600a81526020017f4c6963656e736565203100000000000000000000000000000000000000000000815250600090805190602001906200005192919062000205565b506040518060400160405280601681526020017f4f74686572205370656369616c74792053746f72657300000000000000000000815250600190805190602001906200009f92919062000205565b506040518060400160405280600381526020017f313530000000000000000000000000000000000000000000000000000000000081525060029080519060200190620000ed92919062000205565b506040518060400160405280600a81526020017f31302f30382f3230323100000000000000000000000000000000000000000000815250600390805190602001906200013b92919062000205565b506040518060400160405280600d81526020017f536d6172744c6963656e73653100000000000000000000000000000000000000815250600490805190602001906200018992919062000205565b5060646005553480156200019c57600080fd5b50620001e36040518060400160405280600381526020017f3636360000000000000000000000000000000000000000000000000000000000815250620001e960201b60201c565b620002b4565b80600290805190602001906200020192919062000205565b5050565b828054600181600116156101000203166002900490600052602060002090601f016020900481019282601f106200024857805160ff191683800117855562000279565b8280016001018555821562000279579182015b82811115620002785782518255916020019190600101906200025b565b5b5090506200028891906200028c565b5090565b620002b191905b80821115620002ad57600081600090555060010162000293565b5090565b90565b610cbf80620002c46000396000f3fe608060405234801561001057600080fd5b50600436106100ea5760003560e01c80638291286c1161008c578063c204296511610066578063c2042965146105b6578063c30a4d48146105d4578063c51a29e014610657578063fc7f34ca146106da576100ea565b80638291286c1461044a578063911c1792146104cd578063b917d4fc146104fb576100ea565b8063398e1b18116100c8578063398e1b18146102b05780635e3044cb146102de57806374c0854c146103615780637d42c3241461041c576100ea565b80630144f989146100ef5780630b97bc861461017257806324bf2e1d146101f5575b600080fd5b6100f7610795565b6040518080602001828103825283818151815260200191508051906020019080838360005b8381101561013757808201518184015260208101905061011c565b50505050905090810190601f1680156101645780820380516001836020036101000a031916815260200191505b509250505060405180910390f35b61017a610833565b6040518080602001828103825283818151815260200191508051906020019080838360005b838110156101ba57808201518184015260208101905061019f565b50505050905090810190601f1680156101e75780820380516001836020036101000a031916815260200191505b509250505060405180910390f35b6102ae6004803603602081101561020b57600080fd5b810190808035906020019064010000000081111561022857600080fd5b82018360208201111561023a57600080fd5b8035906020019184600183028401116401000000008311171561025c57600080fd5b91908080601f016020809104026020016040519081016040528093929190818152602001838380828437600081840152601f19601f8201169050808301925050505050505091929192905050506108d1565b005b6102dc600480360360208110156102c657600080fd5b81019080803590602001909291905050506108eb565b005b6102e66108f5565b6040518080602001828103825283818151815260200191508051906020019080838360005b8381101561032657808201518184015260208101905061030b565b50505050905090810190601f1680156103535780820380516001836020036101000a031916815260200191505b509250505060405180910390f35b61041a6004803603602081101561037757600080fd5b810190808035906020019064010000000081111561039457600080fd5b8201836020820111156103a657600080fd5b803590602001918460018302840111640100000000831117156103c857600080fd5b91908080601f016020809104026020016040519081016040528093929190818152602001838380828437600081840152601f19601f820116905080830192505050505050509192919290505050610993565b005b6104486004803603602081101561043257600080fd5b81019080803590602001909291905050506109ad565b005b6104526109bd565b6040518080602001828103825283818151815260200191508051906020019080838360005b83811015610492578082015181840152602081019050610477565b50505050905090810190601f1680156104bf5780820380516001836020036101000a031916815260200191505b509250505060405180910390f35b6104f9600480360360208110156104e357600080fd5b8101908080359060200190929190505050610a5b565b005b6105b46004803603602081101561051157600080fd5b810190808035906020019064010000000081111561052e57600080fd5b82018360208201111561054057600080fd5b8035906020019184600183028401116401000000008311171561056257600080fd5b91908080601f016020809104026020016040519081016040528093929190818152602001838380828437600081840152601f19601f820116905080830192505050505050509192919290505050610a6b565b005b6105be610a85565b6040518082815260200191505060405180910390f35b6105dc610a8b565b6040518080602001828103825283818151815260200191508051906020019080838360005b8381101561061c578082015181840152602081019050610601565b50505050905090810190601f1680156106495780820380516001836020036101000a031916815260200191505b509250505060405180910390f35b61065f610b29565b6040518080602001828103825283818151815260200191508051906020019080838360005b8381101561069f578082015181840152602081019050610684565b50505050905090810190601f1680156106cc5780820380516001836020036101000a031916815260200191505b509250505060405180910390f35b610793600480360360208110156106f057600080fd5b810190808035906020019064010000000081111561070d57600080fd5b82018360208201111561071f57600080fd5b8035906020019184600183028401116401000000008311171561074157600080fd5b91908080601f016020809104026020016040519081016040528093929190818152602001838380828437600081840152601f19601f820116905080830192505050505050509192919290505050610bcb565b005b60018054600181600116156101000203166002900480601f01602080910402602001604051908101604052809291908181526020018280546001816001161561010002031660029004801561082b5780601f106108005761010080835404028352916020019161082b565b820191906000526020600020905b81548152906001019060200180831161080e57829003601f168201915b505050505081565b60038054600181600116156101000203166002900480601f0160208091040260200160405190810160405280929190818152602001828054600181600116156101000203166002900480156108c95780601f1061089e576101008083540402835291602001916108c9565b820191906000526020600020905b8154815290600101906020018083116108ac57829003601f168201915b505050505081565b80600090805190602001906108e7929190610be5565b5050565b8060058190555050565b60008054600181600116156101000203166002900480601f01602080910402602001604051908101604052809291908181526020018280546001816001161561010002031660029004801561098b5780601f106109605761010080835404028352916020019161098b565b820191906000526020600020905b81548152906001019060200180831161096e57829003601f168201915b505050505081565b80600390805190602001906109a9929190610be5565b5050565b6109ba81600554036108eb565b50565b60048054600181600116156101000203166002900480601f016020809104026020016040519081016040528092919081815260200182805460018160011615610100020316600290048015610a535780601f10610a2857610100808354040283529160200191610a53565b820191906000526020600020905b815481529060010190602001808311610a3657829003601f168201915b505050505081565b610a6881600554016108eb565b50565b8060019080519060200190610a81929190610be5565b5050565b60055481565b60028054600181600116156101000203166002900480601f016020809104026020016040519081016040528092919081815260200182805460018160011615610100020316600290048015610b215780601f10610af657610100808354040283529160200191610b21565b820191906000526020600020905b815481529060010190602001808311610b0457829003601f168201915b505050505081565b606060048054600181600116156101000203166002900480601f016020809104026020016040519081016040528092919081815260200182805460018160011615610100020316600290048015610bc15780601f10610b9657610100808354040283529160200191610bc1565b820191906000526020600020905b815481529060010190602001808311610ba457829003601f168201915b5050505050905090565b8060029080519060200190610be1929190610be5565b5050565b828054600181600116156101000203166002900490600052602060002090601f016020900481019282601f10610c2657805160ff1916838001178555610c54565b82800160010185558215610c54579182015b82811115610c53578251825591602001919060010190610c38565b5b509050610c619190610c65565b5090565b610c8791905b80821115610c83576000816000905550600101610c6b565b5090565b9056fea265627a7a723158203b91e8063e56e9035456bb96932f9318aa9c7505649a41679d35d54f800e47b464736f6c63430005100032",
  "source": "pragma solidity >=0.4.22 <0.9.0;\r\n\r\ncontract SmartLicense1 {\r\n    string public licensee = \"Licensee 1\";\r\n    string public licensor = \"Other Specialty Stores\";\r\n    string public devices = \"150\";\r\n    string public startDate = \"10/08/2021\";\r\n    string public contractId = \"SmartLicense1\";\r\n    uint256 public dueAmount = 100;\r\n\r\n    constructor() public {\r\n        setDevices(\"666\");\r\n    }\r\n\r\n    function acknowledgePayment(uint256 amount) public {\r\n        setDueAmount(dueAmount - amount);\r\n    }\r\n\r\n    function computeRoyalty(uint256 amount) public {\r\n        setDueAmount(dueAmount + amount);\r\n    }\r\n\r\n    function getContractType() public returns (string memory) {\r\n        return contractId;\r\n    }\r\n\r\n    function setLicensee(string memory x) public {\r\n        licensee = x;\r\n    }\r\n\r\n    function setLicensor(string memory x) public {\r\n        licensor = x;\r\n    }\r\n\r\n    function setDevices(string memory x) public {\r\n        devices = x;\r\n    }\r\n\r\n    function setStartDate(string memory x) public {\r\n        startDate = x;\r\n    }\r\n\r\n    function setDueAmount(uint256 x) public {\r\n        dueAmount = x;\r\n    }\r\n}\r\n",
  "sourcePath": "C:/Users/n3zqi/Desktop/IDP/Dapp/alps-licensee/contracts/SmartLicense1.sol",
  "compiler": {
    "name": "solc",
    "version": "0.5.16+commit.9c3226ce.Emscripten.clang"
  },
  "schemaVersion": "3.3.3",
  "updatedAt": "2021-04-23T13:04:31.429Z",
  "networkType": "ethereum",
  "devdoc": {
    "methods": {}
  },
  "userdoc": {
    "methods": {}
  }
}