{
  "contractName": "SmartLicense3",
  "abi": [
    {
      "constant": true,
      "inputs": [],
      "name": "devices",
      "outputs": [
        {
          "internalType": "string",
          "name": "",
          "type": "string"
        }
      ],
      "payable": false,
      "stateMutability": "view",
      "type": "function"
    },
    {
      "constant": true,
      "inputs": [],
      "name": "dueAmount",
      "outputs": [
        {
          "internalType": "uint256",
          "name": "",
          "type": "uint256"
        }
      ],
      "payable": false,
      "stateMutability": "view",
      "type": "function"
    },
    {
      "constant": true,
      "inputs": [],
      "name": "licensee",
      "outputs": [
        {
          "internalType": "string",
          "name": "",
          "type": "string"
        }
      ],
      "payable": false,
      "stateMutability": "view",
      "type": "function"
    },
    {
      "constant": true,
      "inputs": [],
      "name": "licensor",
      "outputs": [
        {
          "internalType": "string",
          "name": "",
          "type": "string"
        }
      ],
      "payable": false,
      "stateMutability": "view",
      "type": "function"
    },
    {
      "constant": true,
      "inputs": [],
      "name": "startDate",
      "outputs": [
        {
          "internalType": "string",
          "name": "",
          "type": "string"
        }
      ],
      "payable": false,
      "stateMutability": "view",
      "type": "function"
    },
    {
      "constant": false,
      "inputs": [
        {
          "internalType": "uint256",
          "name": "amount",
          "type": "uint256"
        }
      ],
      "name": "acknowledgePayment",
      "outputs": [],
      "payable": false,
      "stateMutability": "nonpayable",
      "type": "function"
    },
    {
      "constant": false,
      "inputs": [
        {
          "internalType": "uint256",
          "name": "amount",
          "type": "uint256"
        }
      ],
      "name": "computeRoyalty",
      "outputs": [],
      "payable": false,
      "stateMutability": "nonpayable",
      "type": "function"
    },
    {
      "constant": false,
      "inputs": [
        {
          "internalType": "uint256",
          "name": "x",
          "type": "uint256"
        }
      ],
      "name": "setDueAmount",
      "outputs": [],
      "payable": false,
      "stateMutability": "nonpayable",
      "type": "function"
    },
    {
      "constant": true,
      "inputs": [],
      "name": "getContractType",
      "outputs": [
        {
          "internalType": "string",
          "name": "",
          "type": "string"
        }
      ],
      "payable": false,
      "stateMutability": "pure",
      "type": "function"
    },
    {
      "constant": false,
      "inputs": [
        {
          "internalType": "string",
          "name": "x",
          "type": "string"
        }
      ],
      "name": "setLicensee",
      "outputs": [],
      "payable": false,
      "stateMutability": "nonpayable",
      "type": "function"
    },
    {
      "constant": false,
      "inputs": [
        {
          "internalType": "string",
          "name": "x",
          "type": "string"
        }
      ],
      "name": "setLicensor",
      "outputs": [],
      "payable": false,
      "stateMutability": "nonpayable",
      "type": "function"
    },
    {
      "constant": false,
      "inputs": [
        {
          "internalType": "string",
          "name": "x",
          "type": "string"
        }
      ],
      "name": "setDevices",
      "outputs": [],
      "payable": false,
      "stateMutability": "nonpayable",
      "type": "function"
    },
    {
      "constant": false,
      "inputs": [
        {
          "internalType": "string",
          "name": "x",
          "type": "string"
        }
      ],
      "name": "setStartDate",
      "outputs": [],
      "payable": false,
      "stateMutability": "nonpayable",
      "type": "function"
    }
  ],
  "bytecode": "0x60806040526040518060400160405280600a81526020017f4c6963656e7365652031000000000000000000000000000000000000000000008152506000908051906020019061004f92919061012f565b506040518060600160405280603e8152602001610d01603e91396001908051906020019061007e92919061012f565b506040518060400160405280600381526020017f3332300000000000000000000000000000000000000000000000000000000000815250600290805190602001906100ca92919061012f565b506040518060400160405280600a81526020017f31302f30382f32303231000000000000000000000000000000000000000000008152506003908051906020019061011692919061012f565b506104d860045534801561012957600080fd5b506101d4565b828054600181600116156101000203166002900490600052602060002090601f016020900481019282601f1061017057805160ff191683800117855561019e565b8280016001018555821561019e579182015b8281111561019d578251825591602001919060010190610182565b5b5090506101ab91906101af565b5090565b6101d191905b808211156101cd5760008160009055506001016101b5565b5090565b90565b610b1e806101e36000396000f3fe608060405234801561001057600080fd5b50600436106100cf5760003560e01c80637d42c3241161008c578063c204296511610066578063c204296514610518578063c30a4d4814610536578063c51a29e0146105b9578063fc7f34ca1461063c576100cf565b80637d42c32414610401578063911c17921461042f578063b917d4fc1461045d576100cf565b80630144f989146100d45780630b97bc861461015757806324bf2e1d146101da578063398e1b18146102955780635e3044cb146102c357806374c0854c14610346575b600080fd5b6100dc6106f7565b6040518080602001828103825283818151815260200191508051906020019080838360005b8381101561011c578082015181840152602081019050610101565b50505050905090810190601f1680156101495780820380516001836020036101000a031916815260200191505b509250505060405180910390f35b61015f610795565b6040518080602001828103825283818151815260200191508051906020019080838360005b8381101561019f578082015181840152602081019050610184565b50505050905090810190601f1680156101cc5780820380516001836020036101000a031916815260200191505b509250505060405180910390f35b610293600480360360208110156101f057600080fd5b810190808035906020019064010000000081111561020d57600080fd5b82018360208201111561021f57600080fd5b8035906020019184600183028401116401000000008311171561024157600080fd5b91908080601f016020809104026020016040519081016040528093929190818152602001838380828437600081840152601f19601f820116905080830192505050505050509192919290505050610833565b005b6102c1600480360360208110156102ab57600080fd5b810190808035906020019092919050505061084d565b005b6102cb610857565b6040518080602001828103825283818151815260200191508051906020019080838360005b8381101561030b5780820151818401526020810190506102f0565b50505050905090810190601f1680156103385780820380516001836020036101000a031916815260200191505b509250505060405180910390f35b6103ff6004803603602081101561035c57600080fd5b810190808035906020019064010000000081111561037957600080fd5b82018360208201111561038b57600080fd5b803590602001918460018302840111640100000000831117156103ad57600080fd5b91908080601f016020809104026020016040519081016040528093929190818152602001838380828437600081840152601f19601f8201169050808301925050505050505091929192905050506108f5565b005b61042d6004803603602081101561041757600080fd5b810190808035906020019092919050505061090f565b005b61045b6004803603602081101561044557600080fd5b810190808035906020019092919050505061091f565b005b6105166004803603602081101561047357600080fd5b810190808035906020019064010000000081111561049057600080fd5b8201836020820111156104a257600080fd5b803590602001918460018302840111640100000000831117156104c457600080fd5b91908080601f016020809104026020016040519081016040528093929190818152602001838380828437600081840152601f19601f82011690508083019250505050505050919291929050505061092f565b005b610520610949565b6040518082815260200191505060405180910390f35b61053e61094f565b6040518080602001828103825283818151815260200191508051906020019080838360005b8381101561057e578082015181840152602081019050610563565b50505050905090810190601f1680156105ab5780820380516001836020036101000a031916815260200191505b509250505060405180910390f35b6105c16109ed565b6040518080602001828103825283818151815260200191508051906020019080838360005b838110156106015780820151818401526020810190506105e6565b50505050905090810190601f16801561062e5780820380516001836020036101000a031916815260200191505b509250505060405180910390f35b6106f56004803603602081101561065257600080fd5b810190808035906020019064010000000081111561066f57600080fd5b82018360208201111561068157600080fd5b803590602001918460018302840111640100000000831117156106a357600080fd5b91908080601f016020809104026020016040519081016040528093929190818152602001838380828437600081840152601f19601f820116905080830192505050505050509192919290505050610a2a565b005b60018054600181600116156101000203166002900480601f01602080910402602001604051908101604052809291908181526020018280546001816001161561010002031660029004801561078d5780601f106107625761010080835404028352916020019161078d565b820191906000526020600020905b81548152906001019060200180831161077057829003601f168201915b505050505081565b60038054600181600116156101000203166002900480601f01602080910402602001604051908101604052809291908181526020018280546001816001161561010002031660029004801561082b5780601f106108005761010080835404028352916020019161082b565b820191906000526020600020905b81548152906001019060200180831161080e57829003601f168201915b505050505081565b8060009080519060200190610849929190610a44565b5050565b8060048190555050565b60008054600181600116156101000203166002900480601f0160208091040260200160405190810160405280929190818152602001828054600181600116156101000203166002900480156108ed5780601f106108c2576101008083540402835291602001916108ed565b820191906000526020600020905b8154815290600101906020018083116108d057829003601f168201915b505050505081565b806003908051906020019061090b929190610a44565b5050565b61091c816004540361084d565b50565b61092c816004540161084d565b50565b8060019080519060200190610945929190610a44565b5050565b60045481565b60028054600181600116156101000203166002900480601f0160208091040260200160405190810160405280929190818152602001828054600181600116156101000203166002900480156109e55780601f106109ba576101008083540402835291602001916109e5565b820191906000526020600020905b8154815290600101906020018083116109c857829003601f168201915b505050505081565b60606040518060400160405280600d81526020017f536d6172744c6963656e73653300000000000000000000000000000000000000815250905090565b8060029080519060200190610a40929190610a44565b5050565b828054600181600116156101000203166002900490600052602060002090601f016020900481019282601f10610a8557805160ff1916838001178555610ab3565b82800160010185558215610ab3579182015b82811115610ab2578251825591602001919060010190610a97565b5b509050610ac09190610ac4565b5090565b610ae691905b80821115610ae2576000816000905550600101610aca565b5090565b9056fea265627a7a723158204a0a01436762dad24a4978d059c1c73088647a1d1aa787a3ca0fa7759618567064736f6c63430005100032526164696f20416e642054656c65766973696f6e2042726f616463617374696e6720416e6420436f6d6d756e69636174696f6e732045717569706d656e74",
  "source": "pragma solidity >=0.4.22 <0.9.0;\r\n\r\ncontract SmartLicense3 {\r\n    string public licensee = \"Licensee 1\";\r\n    string public licensor = \"Radio And Television Broadcasting And Communications Equipment\";\r\n    string public devices = \"320\";\r\n    string public startDate = \"10/08/2021\";\r\n    string constant contractId = \"SmartLicense3\";\r\n    uint256 public dueAmount = 1240;\r\n\r\n    function acknowledgePayment(uint256 amount) public {\r\n        setDueAmount(dueAmount - amount);\r\n    }\r\n\r\n    function computeRoyalty(uint256 amount) public {\r\n        setDueAmount(dueAmount + amount);\r\n    }\r\n    function setDueAmount(uint256 x) public {\r\n        dueAmount = x;\r\n    }\r\n\r\n    function getContractType() public pure returns (string memory) {\r\n        return contractId;\r\n    }\r\n\r\n    function setLicensee(string memory x) public {\r\n        licensee = x;\r\n    }\r\n\r\n    function setLicensor(string memory x) public {\r\n        licensor = x;\r\n    }\r\n\r\n    function setDevices(string memory x) public {\r\n        devices = x;\r\n    }\r\n\r\n    function setStartDate(string memory x) public {\r\n        startDate = x;\r\n    }\r\n}\r\n",
  "sourcePath": "C:/Users/n3zqi/Desktop/IDP/Dapp/alps-licensee/contracts/SmartLicense3.sol",
  "compiler": {
    "name": "solc",
    "version": "0.5.16+commit.9c3226ce.Emscripten.clang"
  },
  "schemaVersion": "3.3.3",
  "updatedAt": "2021-04-23T13:04:31.459Z",
  "networkType": "ethereum",
  "devdoc": {
    "methods": {}
  },
  "userdoc": {
    "methods": {}
  }
}