{
  "contractName": "SmartLicense1",
  "abi": [
    {
      "inputs": [],
      "payable": false,
      "stateMutability": "nonpayable",
      "type": "constructor"
    },
    {
      "anonymous": false,
      "inputs": [
        {
          "indexed": false,
          "internalType": "uint256",
          "name": "_amount",
          "type": "uint256"
        },
        {
          "indexed": false,
          "internalType": "uint256",
          "name": "_dueAmount",
          "type": "uint256"
        },
        {
          "indexed": false,
          "internalType": "uint256",
          "name": "_timestamp",
          "type": "uint256"
        }
      ],
      "name": "PaymentAcknowledged",
      "type": "event"
    },
    {
      "anonymous": false,
      "inputs": [
        {
          "indexed": false,
          "internalType": "uint256",
          "name": "_amount",
          "type": "uint256"
        },
        {
          "indexed": false,
          "internalType": "uint256",
          "name": "_dueAmount",
          "type": "uint256"
        },
        {
          "indexed": false,
          "internalType": "uint256",
          "name": "_timestamp",
          "type": "uint256"
        }
      ],
      "name": "RoyaltyComputed",
      "type": "event"
    },
    {
      "constant": true,
      "inputs": [],
      "name": "contractId",
      "outputs": [
        {
          "internalType": "string",
          "name": "",
          "type": "string"
        }
      ],
      "payable": false,
      "stateMutability": "view",
      "type": "function"
    },
    {
      "constant": true,
      "inputs": [],
      "name": "devices",
      "outputs": [
        {
          "internalType": "string",
          "name": "",
          "type": "string"
        }
      ],
      "payable": false,
      "stateMutability": "view",
      "type": "function"
    },
    {
      "constant": true,
      "inputs": [],
      "name": "dueAmount",
      "outputs": [
        {
          "internalType": "uint256",
          "name": "",
          "type": "uint256"
        }
      ],
      "payable": false,
      "stateMutability": "view",
      "type": "function"
    },
    {
      "constant": true,
      "inputs": [],
      "name": "ip",
      "outputs": [
        {
          "internalType": "uint256",
          "name": "",
          "type": "uint256"
        }
      ],
      "payable": false,
      "stateMutability": "view",
      "type": "function"
    },
    {
      "constant": true,
      "inputs": [],
      "name": "licensee",
      "outputs": [
        {
          "internalType": "string",
          "name": "",
          "type": "string"
        }
      ],
      "payable": false,
      "stateMutability": "view",
      "type": "function"
    },
    {
      "constant": true,
      "inputs": [],
      "name": "licensor",
      "outputs": [
        {
          "internalType": "string",
          "name": "",
          "type": "string"
        }
      ],
      "payable": false,
      "stateMutability": "view",
      "type": "function"
    },
    {
      "constant": true,
      "inputs": [],
      "name": "startDate",
      "outputs": [
        {
          "internalType": "string",
          "name": "",
          "type": "string"
        }
      ],
      "payable": false,
      "stateMutability": "view",
      "type": "function"
    },
    {
      "constant": false,
      "inputs": [
        {
          "internalType": "uint256",
          "name": "amount",
          "type": "uint256"
        }
      ],
      "name": "acknowledgePayment",
      "outputs": [],
      "payable": false,
      "stateMutability": "nonpayable",
      "type": "function"
    },
    {
      "constant": false,
      "inputs": [
        {
          "internalType": "uint256",
          "name": "amount",
          "type": "uint256"
        }
      ],
      "name": "computeRoyalty",
      "outputs": [],
      "payable": false,
      "stateMutability": "nonpayable",
      "type": "function"
    },
    {
      "constant": false,
      "inputs": [],
      "name": "getContractType",
      "outputs": [
        {
          "internalType": "string",
          "name": "",
          "type": "string"
        }
      ],
      "payable": false,
      "stateMutability": "nonpayable",
      "type": "function"
    },
    {
      "constant": false,
      "inputs": [
        {
          "internalType": "string",
          "name": "x",
          "type": "string"
        }
      ],
      "name": "setLicensee",
      "outputs": [],
      "payable": false,
      "stateMutability": "nonpayable",
      "type": "function"
    },
    {
      "constant": false,
      "inputs": [
        {
          "internalType": "string",
          "name": "x",
          "type": "string"
        }
      ],
      "name": "setLicensor",
      "outputs": [],
      "payable": false,
      "stateMutability": "nonpayable",
      "type": "function"
    },
    {
      "constant": false,
      "inputs": [
        {
          "internalType": "string",
          "name": "x",
          "type": "string"
        }
      ],
      "name": "setDevices",
      "outputs": [],
      "payable": false,
      "stateMutability": "nonpayable",
      "type": "function"
    },
    {
      "constant": false,
      "inputs": [
        {
          "internalType": "string",
          "name": "x",
          "type": "string"
        }
      ],
      "name": "setStartDate",
      "outputs": [],
      "payable": false,
      "stateMutability": "nonpayable",
      "type": "function"
    },
    {
      "constant": false,
      "inputs": [
        {
          "internalType": "uint256",
          "name": "x",
          "type": "uint256"
        }
      ],
      "name": "setDueAmount",
      "outputs": [],
      "payable": false,
      "stateMutability": "nonpayable",
      "type": "function"
    }
  ],
  "bytecode": "0x60806040526040518060400160405280600a81526020017f4c6963656e73656520310000000000000000000000000000000000000000000081525060009080519060200190620000519291906200020b565b506040518060400160405280601681526020017f4f74686572205370656369616c74792053746f72657300000000000000000000815250600190805190602001906200009f9291906200020b565b506040518060400160405280600381526020017f313530000000000000000000000000000000000000000000000000000000000081525060029080519060200190620000ed9291906200020b565b506040518060400160405280600a81526020017f31302f30382f3230323100000000000000000000000000000000000000000000815250600390805190602001906200013b9291906200020b565b506040518060400160405280600d81526020017f536d6172744c6963656e7365310000000000000000000000000000000000000081525060049080519060200190620001899291906200020b565b506064600555610457600655348015620001a257600080fd5b50620001e96040518060400160405280600381526020017f3636360000000000000000000000000000000000000000000000000000000000815250620001ef60201b60201c565b620002ba565b8060029080519060200190620002079291906200020b565b5050565b828054600181600116156101000203166002900490600052602060002090601f016020900481019282601f106200024e57805160ff19168380011785556200027f565b828001600101855582156200027f579182015b828111156200027e57825182559160200191906001019062000261565b5b5090506200028e919062000292565b5090565b620002b791905b80821115620002b357600081600090555060010162000299565b5090565b90565b610d8080620002ca6000396000f3fe608060405234801561001057600080fd5b50600436106100f55760003560e01c80638291286c11610097578063c30a4d4811610066578063c30a4d48146105df578063c51a29e014610662578063d023420d146106e5578063fc7f34ca14610703576100f5565b80638291286c14610455578063911c1792146104d8578063b917d4fc14610506578063c2042965146105c1576100f5565b8063398e1b18116100d3578063398e1b18146102bb5780635e3044cb146102e957806374c0854c1461036c5780637d42c32414610427576100f5565b80630144f989146100fa5780630b97bc861461017d57806324bf2e1d14610200575b600080fd5b6101026107be565b6040518080602001828103825283818151815260200191508051906020019080838360005b83811015610142578082015181840152602081019050610127565b50505050905090810190601f16801561016f5780820380516001836020036101000a031916815260200191505b509250505060405180910390f35b61018561085c565b6040518080602001828103825283818151815260200191508051906020019080838360005b838110156101c55780820151818401526020810190506101aa565b50505050905090810190601f1680156101f25780820380516001836020036101000a031916815260200191505b509250505060405180910390f35b6102b96004803603602081101561021657600080fd5b810190808035906020019064010000000081111561023357600080fd5b82018360208201111561024557600080fd5b8035906020019184600183028401116401000000008311171561026757600080fd5b91908080601f016020809104026020016040519081016040528093929190818152602001838380828437600081840152601f19601f8201169050808301925050505050505091929192905050506108fa565b005b6102e7600480360360208110156102d157600080fd5b8101908080359060200190929190505050610914565b005b6102f161091e565b6040518080602001828103825283818151815260200191508051906020019080838360005b83811015610331578082015181840152602081019050610316565b50505050905090810190601f16801561035e5780820380516001836020036101000a031916815260200191505b509250505060405180910390f35b6104256004803603602081101561038257600080fd5b810190808035906020019064010000000081111561039f57600080fd5b8201836020820111156103b157600080fd5b803590602001918460018302840111640100000000831117156103d357600080fd5b91908080601f016020809104026020016040519081016040528093929190818152602001838380828437600081840152601f19601f8201169050808301925050505050505091929192905050506109bc565b005b6104536004803603602081101561043d57600080fd5b81019080803590602001909291905050506109d6565b005b61045d610a2f565b6040518080602001828103825283818151815260200191508051906020019080838360005b8381101561049d578082015181840152602081019050610482565b50505050905090810190601f1680156104ca5780820380516001836020036101000a031916815260200191505b509250505060405180910390f35b610504600480360360208110156104ee57600080fd5b8101908080359060200190929190505050610acd565b005b6105bf6004803603602081101561051c57600080fd5b810190808035906020019064010000000081111561053957600080fd5b82018360208201111561054b57600080fd5b8035906020019184600183028401116401000000008311171561056d57600080fd5b91908080601f016020809104026020016040519081016040528093929190818152602001838380828437600081840152601f19601f820116905080830192505050505050509192919290505050610b26565b005b6105c9610b40565b6040518082815260200191505060405180910390f35b6105e7610b46565b6040518080602001828103825283818151815260200191508051906020019080838360005b8381101561062757808201518184015260208101905061060c565b50505050905090810190601f1680156106545780820380516001836020036101000a031916815260200191505b509250505060405180910390f35b61066a610be4565b6040518080602001828103825283818151815260200191508051906020019080838360005b838110156106aa57808201518184015260208101905061068f565b50505050905090810190601f1680156106d75780820380516001836020036101000a031916815260200191505b509250505060405180910390f35b6106ed610c86565b6040518082815260200191505060405180910390f35b6107bc6004803603602081101561071957600080fd5b810190808035906020019064010000000081111561073657600080fd5b82018360208201111561074857600080fd5b8035906020019184600183028401116401000000008311171561076a57600080fd5b91908080601f016020809104026020016040519081016040528093929190818152602001838380828437600081840152601f19601f820116905080830192505050505050509192919290505050610c8c565b005b60018054600181600116156101000203166002900480601f0160208091040260200160405190810160405280929190818152602001828054600181600116156101000203166002900480156108545780601f1061082957610100808354040283529160200191610854565b820191906000526020600020905b81548152906001019060200180831161083757829003601f168201915b505050505081565b60038054600181600116156101000203166002900480601f0160208091040260200160405190810160405280929190818152602001828054600181600116156101000203166002900480156108f25780601f106108c7576101008083540402835291602001916108f2565b820191906000526020600020905b8154815290600101906020018083116108d557829003601f168201915b505050505081565b8060009080519060200190610910929190610ca6565b5050565b8060058190555050565b60008054600181600116156101000203166002900480601f0160208091040260200160405190810160405280929190818152602001828054600181600116156101000203166002900480156109b45780601f10610989576101008083540402835291602001916109b4565b820191906000526020600020905b81548152906001019060200180831161099757829003601f168201915b505050505081565b80600390805190602001906109d2929190610ca6565b5050565b6109e38160055403610914565b7fd46e4a54c5d2e2bdba7d8708fd2c0ff8b3d9cd7eec365f22e5a7378d5c759ccb816005544260405180848152602001838152602001828152602001935050505060405180910390a150565b60048054600181600116156101000203166002900480601f016020809104026020016040519081016040528092919081815260200182805460018160011615610100020316600290048015610ac55780601f10610a9a57610100808354040283529160200191610ac5565b820191906000526020600020905b815481529060010190602001808311610aa857829003601f168201915b505050505081565b610ada8160055401610914565b7fbfd30cf8cf963cd2507e1cdc8b263f10c813dce918785f36206a6d7c89f1215f816005544260405180848152602001838152602001828152602001935050505060405180910390a150565b8060019080519060200190610b3c929190610ca6565b5050565b60055481565b60028054600181600116156101000203166002900480601f016020809104026020016040519081016040528092919081815260200182805460018160011615610100020316600290048015610bdc5780601f10610bb157610100808354040283529160200191610bdc565b820191906000526020600020905b815481529060010190602001808311610bbf57829003601f168201915b505050505081565b606060048054600181600116156101000203166002900480601f016020809104026020016040519081016040528092919081815260200182805460018160011615610100020316600290048015610c7c5780601f10610c5157610100808354040283529160200191610c7c565b820191906000526020600020905b815481529060010190602001808311610c5f57829003601f168201915b5050505050905090565b60065481565b8060029080519060200190610ca2929190610ca6565b5050565b828054600181600116156101000203166002900490600052602060002090601f016020900481019282601f10610ce757805160ff1916838001178555610d15565b82800160010185558215610d15579182015b82811115610d14578251825591602001919060010190610cf9565b5b509050610d229190610d26565b5090565b610d4891905b80821115610d44576000816000905550600101610d2c565b5090565b9056fea265627a7a723158205621c5673ad7b552146a405202adb57584b5c3900ef5a57491fd6d4e9d82b34a64736f6c63430005100032",
  "source": "pragma solidity >=0.4.22 <0.9.0;\r\n\r\ncontract SmartLicense1 {\r\n    string public licensee = \"Licensee 1\";\r\n    event PaymentAcknowledged(uint256 _amount, uint256 _dueAmount, uint256 _timestamp);\r\n    event RoyaltyComputed(uint256 _amount, uint256 _dueAmount, uint256 _timestamp);\r\n    string public licensor = \"Other Specialty Stores\";\r\n    string public devices = \"150\";\r\n    string public startDate = \"10/08/2021\";\r\n    string public contractId = \"SmartLicense1\";\r\n    uint256 public dueAmount = 100;\r\n    uint256 public ip = 1111;\r\n\r\n    constructor() public {\r\n        setDevices(\"666\");\r\n    }\r\n\r\n    function acknowledgePayment(uint256 amount) public {\r\n        setDueAmount(dueAmount - amount);\r\n        emit PaymentAcknowledged(amount, dueAmount, block.timestamp);\r\n    }\r\n\r\n    function computeRoyalty(uint256 amount) public {\r\n        setDueAmount(dueAmount + amount);\r\n        emit RoyaltyComputed(amount, dueAmount, block.timestamp);\r\n    }\r\n\r\n    function getContractType() public returns (string memory) {\r\n        return contractId;\r\n    }\r\n\r\n    function setLicensee(string memory x) public {\r\n        licensee = x;\r\n    }\r\n\r\n    function setLicensor(string memory x) public {\r\n        licensor = x;\r\n    }\r\n\r\n    function setDevices(string memory x) public {\r\n        devices = x;\r\n    }\r\n\r\n    function setStartDate(string memory x) public {\r\n        startDate = x;\r\n    }\r\n\r\n    function setDueAmount(uint256 x) public {\r\n        dueAmount = x;\r\n    }\r\n}\r\n",
  "sourcePath": "C:/Users/n3zqi/Desktop/IDP/Dapp/alps-licensee/contracts/SmartLicense1.sol",
  "compiler": {
    "name": "solc",
    "version": "0.5.16+commit.9c3226ce.Emscripten.clang"
  },
  "schemaVersion": "3.3.3",
  "updatedAt": "2021-05-24T10:49:46.140Z",
  "networkType": "ethereum",
  "devdoc": {
    "methods": {}
  },
  "userdoc": {
    "methods": {}
  }
}