{
  "contractName": "SmartLicense2",
  "abi": [
    {
      "anonymous": false,
      "inputs": [
        {
          "indexed": false,
          "internalType": "uint256",
          "name": "_amount",
          "type": "uint256"
        },
        {
          "indexed": false,
          "internalType": "uint256",
          "name": "_dueAmount",
          "type": "uint256"
        },
        {
          "indexed": false,
          "internalType": "uint256",
          "name": "_timestamp",
          "type": "uint256"
        }
      ],
      "name": "PaymentAcknowledged",
      "type": "event"
    },
    {
      "anonymous": false,
      "inputs": [
        {
          "indexed": false,
          "internalType": "uint256",
          "name": "_amount",
          "type": "uint256"
        },
        {
          "indexed": false,
          "internalType": "uint256",
          "name": "_dueAmount",
          "type": "uint256"
        },
        {
          "indexed": false,
          "internalType": "uint256",
          "name": "_timestamp",
          "type": "uint256"
        },
        {
          "indexed": false,
          "internalType": "uint256",
          "name": "_deadline",
          "type": "uint256"
        }
      ],
      "name": "RoyaltyComputed",
      "type": "event"
    },
    {
      "inputs": [],
      "name": "devices",
      "outputs": [
        {
          "internalType": "string",
          "name": "",
          "type": "string"
        }
      ],
      "stateMutability": "view",
      "type": "function"
    },
    {
      "inputs": [],
      "name": "dueAmount",
      "outputs": [
        {
          "internalType": "uint256",
          "name": "",
          "type": "uint256"
        }
      ],
      "stateMutability": "view",
      "type": "function"
    },
    {
      "inputs": [],
      "name": "ip",
      "outputs": [
        {
          "internalType": "uint256",
          "name": "",
          "type": "uint256"
        }
      ],
      "stateMutability": "view",
      "type": "function"
    },
    {
      "inputs": [],
      "name": "licensee",
      "outputs": [
        {
          "internalType": "string",
          "name": "",
          "type": "string"
        }
      ],
      "stateMutability": "view",
      "type": "function"
    },
    {
      "inputs": [],
      "name": "licensor",
      "outputs": [
        {
          "internalType": "string",
          "name": "",
          "type": "string"
        }
      ],
      "stateMutability": "view",
      "type": "function"
    },
    {
      "inputs": [],
      "name": "startDate",
      "outputs": [
        {
          "internalType": "string",
          "name": "",
          "type": "string"
        }
      ],
      "stateMutability": "view",
      "type": "function"
    },
    {
      "inputs": [
        {
          "internalType": "uint256",
          "name": "amount",
          "type": "uint256"
        }
      ],
      "name": "acknowledgePayment",
      "outputs": [],
      "stateMutability": "nonpayable",
      "type": "function"
    },
    {
      "inputs": [
        {
          "internalType": "uint256",
          "name": "amount",
          "type": "uint256"
        }
      ],
      "name": "computeRoyalty",
      "outputs": [],
      "stateMutability": "nonpayable",
      "type": "function"
    },
    {
      "inputs": [
        {
          "internalType": "uint256",
          "name": "x",
          "type": "uint256"
        }
      ],
      "name": "setDueAmount",
      "outputs": [],
      "stateMutability": "nonpayable",
      "type": "function"
    },
    {
      "inputs": [],
      "name": "getContractType",
      "outputs": [
        {
          "internalType": "string",
          "name": "",
          "type": "string"
        }
      ],
      "stateMutability": "pure",
      "type": "function"
    },
    {
      "inputs": [
        {
          "internalType": "string",
          "name": "x",
          "type": "string"
        }
      ],
      "name": "setLicensee",
      "outputs": [],
      "stateMutability": "nonpayable",
      "type": "function"
    },
    {
      "inputs": [
        {
          "internalType": "string",
          "name": "x",
          "type": "string"
        }
      ],
      "name": "setLicensor",
      "outputs": [],
      "stateMutability": "nonpayable",
      "type": "function"
    },
    {
      "inputs": [
        {
          "internalType": "string",
          "name": "x",
          "type": "string"
        }
      ],
      "name": "setDevices",
      "outputs": [],
      "stateMutability": "nonpayable",
      "type": "function"
    },
    {
      "inputs": [
        {
          "internalType": "string",
          "name": "x",
          "type": "string"
        }
      ],
      "name": "setStartDate",
      "outputs": [],
      "stateMutability": "nonpayable",
      "type": "function"
    }
  ],
  "bytecode": "0x60806040526040518060400160405280600a81526020017f4c6963656e736565203200000000000000000000000000000000000000000000815250600090805190602001906200005192919062000162565b506040518060400160405280600e81526020017f4d6f746f722056656869636c6573000000000000000000000000000000000000815250600190805190602001906200009f92919062000162565b506040518060400160405280600381526020017f353430000000000000000000000000000000000000000000000000000000000081525060029080519060200190620000ed92919062000162565b506040518060400160405280600a81526020017f31302f30382f3230323100000000000000000000000000000000000000000000815250600390805190602001906200013b92919062000162565b5060fa6004556108ae600555620151806006553480156200015b57600080fd5b5062000276565b828054620001709062000241565b90600052602060002090601f016020900481019282620001945760008555620001e0565b82601f10620001af57805160ff1916838001178555620001e0565b82800160010185558215620001e0579182015b82811115620001df578251825591602001919060010190620001c2565b5b509050620001ef9190620001f3565b5090565b5b808211156200020e576000816000905550600101620001f4565b5090565b7f4e487b7100000000000000000000000000000000000000000000000000000000600052602260045260246000fd5b600060028204905060018216806200025a57607f821691505b60208210810362000270576200026f62000212565b5b50919050565b610b9280620002866000396000f3fe608060405234801561001057600080fd5b50600436106100ea5760003560e01c8063911c17921161008c578063c30a4d4811610066578063c30a4d481461020f578063c51a29e01461022d578063d023420d1461024b578063fc7f34ca14610269576100ea565b8063911c1792146101b9578063b917d4fc146101d5578063c2042965146101f1576100ea565b8063398e1b18116100c8578063398e1b18146101475780635e3044cb1461016357806374c0854c146101815780637d42c3241461019d576100ea565b80630144f989146100ef5780630b97bc861461010d57806324bf2e1d1461012b575b600080fd5b6100f7610285565b6040516101049190610786565b60405180910390f35b610115610313565b6040516101229190610786565b60405180910390f35b610145600480360381019061014091906108f1565b6103a1565b005b610161600480360381019061015c9190610970565b6103bb565b005b61016b6103c5565b6040516101789190610786565b60405180910390f35b61019b600480360381019061019691906108f1565b610453565b005b6101b760048036038101906101b29190610970565b61046d565b005b6101d360048036038101906101ce9190610970565b6104c3565b005b6101ef60048036038101906101ea91906108f1565b61053f565b005b6101f9610559565b60405161020691906109ac565b60405180910390f35b61021761055f565b6040516102249190610786565b60405180910390f35b6102356105ed565b6040516102429190610786565b60405180910390f35b61025361062a565b60405161026091906109ac565b60405180910390f35b610283600480360381019061027e91906108f1565b610630565b005b60018054610292906109f6565b80601f01602080910402602001604051908101604052809291908181526020018280546102be906109f6565b801561030b5780601f106102e05761010080835404028352916020019161030b565b820191906000526020600020905b8154815290600101906020018083116102ee57829003601f168201915b505050505081565b60038054610320906109f6565b80601f016020809104026020016040519081016040528092919081815260200182805461034c906109f6565b80156103995780601f1061036e57610100808354040283529160200191610399565b820191906000526020600020905b81548152906001019060200180831161037c57829003601f168201915b505050505081565b80600090805190602001906103b792919061064a565b5050565b8060048190555050565b600080546103d2906109f6565b80601f01602080910402602001604051908101604052809291908181526020018280546103fe906109f6565b801561044b5780601f106104205761010080835404028352916020019161044b565b820191906000526020600020905b81548152906001019060200180831161042e57829003601f168201915b505050505081565b806003908051906020019061046992919061064a565b5050565b6104838160045461047e9190610a56565b6103bb565b7fd46e4a54c5d2e2bdba7d8708fd2c0ff8b3d9cd7eec365f22e5a7378d5c759ccb81600454426040516104b893929190610a8a565b60405180910390a150565b6104d9816004546104d49190610ac1565b6103bb565b6203f4806006546104ea9190610ac1565b6006819055507f4fb721c004fe9f3693556d13617df8a6708fe8dd3d0619010c98c3387ae786e08160045442600654426105249190610ac1565b6040516105349493929190610b17565b60405180910390a150565b806001908051906020019061055592919061064a565b5050565b60045481565b6002805461056c906109f6565b80601f0160208091040260200160405190810160405280929190818152602001828054610598906109f6565b80156105e55780601f106105ba576101008083540402835291602001916105e5565b820191906000526020600020905b8154815290600101906020018083116105c857829003601f168201915b505050505081565b60606040518060400160405280600d81526020017f536d6172744c6963656e73653200000000000000000000000000000000000000815250905090565b60055481565b806002908051906020019061064692919061064a565b5050565b828054610656906109f6565b90600052602060002090601f01602090048101928261067857600085556106bf565b82601f1061069157805160ff19168380011785556106bf565b828001600101855582156106bf579182015b828111156106be5782518255916020019190600101906106a3565b5b5090506106cc91906106d0565b5090565b5b808211156106e95760008160009055506001016106d1565b5090565b600081519050919050565b600082825260208201905092915050565b60005b8381101561072757808201518184015260208101905061070c565b83811115610736576000848401525b50505050565b6000601f19601f8301169050919050565b6000610758826106ed565b61076281856106f8565b9350610772818560208601610709565b61077b8161073c565b840191505092915050565b600060208201905081810360008301526107a0818461074d565b905092915050565b6000604051905090565b600080fd5b600080fd5b600080fd5b600080fd5b7f4e487b7100000000000000000000000000000000000000000000000000000000600052604160045260246000fd5b6107fe8261073c565b810181811067ffffffffffffffff8211171561081d5761081c6107c6565b5b80604052505050565b60006108306107a8565b905061083c82826107f5565b919050565b600067ffffffffffffffff82111561085c5761085b6107c6565b5b6108658261073c565b9050602081019050919050565b82818337600083830152505050565b600061089461088f84610841565b610826565b9050828152602081018484840111156108b0576108af6107c1565b5b6108bb848285610872565b509392505050565b600082601f8301126108d8576108d76107bc565b5b81356108e8848260208601610881565b91505092915050565b600060208284031215610907576109066107b2565b5b600082013567ffffffffffffffff811115610925576109246107b7565b5b610931848285016108c3565b91505092915050565b6000819050919050565b61094d8161093a565b811461095857600080fd5b50565b60008135905061096a81610944565b92915050565b600060208284031215610986576109856107b2565b5b60006109948482850161095b565b91505092915050565b6109a68161093a565b82525050565b60006020820190506109c1600083018461099d565b92915050565b7f4e487b7100000000000000000000000000000000000000000000000000000000600052602260045260246000fd5b60006002820490506001821680610a0e57607f821691505b602082108103610a2157610a206109c7565b5b50919050565b7f4e487b7100000000000000000000000000000000000000000000000000000000600052601160045260246000fd5b6000610a618261093a565b9150610a6c8361093a565b925082821015610a7f57610a7e610a27565b5b828203905092915050565b6000606082019050610a9f600083018661099d565b610aac602083018561099d565b610ab9604083018461099d565b949350505050565b6000610acc8261093a565b9150610ad78361093a565b9250827fffffffffffffffffffffffffffffffffffffffffffffffffffffffffffffffff03821115610b0c57610b0b610a27565b5b828201905092915050565b6000608082019050610b2c600083018761099d565b610b39602083018661099d565b610b46604083018561099d565b610b53606083018461099d565b9594505050505056fea2646970667358221220d81405721a9f233f4be9604aeb24e743435cd7c711cb208931c45695b074f48a64736f6c634300080d0033",
  "immutableReferences": {},
  "source": "pragma solidity >=0.4.22 <0.9.0;\r\n\r\ncontract SmartLicense2 {\r\n    string public licensee = \"Licensee 2\";\r\n    string public licensor = \"Motor Vehicles\";\r\n    string public devices = \"540\";\r\n    string public startDate = \"10/08/2021\";\r\n    string constant contractId = \"SmartLicense2\";\r\n    uint256 public dueAmount = 250;\r\n    uint256 public ip = 2222;\r\n     event PaymentAcknowledged(uint256 _amount, uint256 _dueAmount, uint256 _timestamp);\r\n    event RoyaltyComputed(uint256 _amount, uint256 _dueAmount, uint256 _timestamp, uint256 _deadline);\r\n    uint256 aux_time = 86400; \r\n\r\n\r\n    function acknowledgePayment(uint256 amount) public {\r\n        setDueAmount(dueAmount - amount);\r\n        emit PaymentAcknowledged(amount, dueAmount, block.timestamp);\r\n    }\r\n\r\n    function computeRoyalty(uint256 amount) public {\r\n        setDueAmount(dueAmount + amount);\r\n        aux_time = aux_time + 259200;\r\n        emit RoyaltyComputed(amount, dueAmount, block.timestamp, block.timestamp + aux_time);\r\n    }\r\n    function setDueAmount(uint256 x) public {\r\n        dueAmount = x;\r\n    }\r\n\r\n    function getContractType() public pure returns (string memory) {\r\n        return contractId;\r\n    }\r\n\r\n    function setLicensee(string memory x) public {\r\n        licensee = x;\r\n    }\r\n\r\n    function setLicensor(string memory x) public {\r\n        licensor = x;\r\n    }\r\n\r\n    function setDevices(string memory x) public {\r\n        devices = x;\r\n    }\r\n\r\n    function setStartDate(string memory x) public {\r\n        startDate = x;\r\n    }\r\n}\r\n",
  "sourcePath": "C:\\Users\\n3zqi\\Desktop\\ALPS-Dapp-IDP\\alps-licensee\\contracts\\SmartLicense2.sol",
  "compiler": {
    "name": "solc",
    "version": "0.8.13+commit.abaa5c0e.Emscripten.clang"
  },
  "schemaVersion": "3.4.4",
  "updatedAt": "2022-04-21T09:32:39.714Z",
  "devdoc": {
    "kind": "dev",
    "methods": {},
    "version": 1
  },
  "userdoc": {
    "kind": "user",
    "methods": {},
    "version": 1
  }
}