{
  "contractName": "SmartLicense1",
  "abi": [
    {
      "inputs": [],
      "payable": false,
      "stateMutability": "nonpayable",
      "type": "constructor"
    },
    {
      "constant": true,
      "inputs": [],
      "name": "devices",
      "outputs": [
        {
          "internalType": "string",
          "name": "",
          "type": "string"
        }
      ],
      "payable": false,
      "stateMutability": "view",
      "type": "function"
    },
    {
      "constant": true,
      "inputs": [],
      "name": "dueAmount",
      "outputs": [
        {
          "internalType": "uint256",
          "name": "",
          "type": "uint256"
        }
      ],
      "payable": false,
      "stateMutability": "view",
      "type": "function"
    },
    {
      "constant": true,
      "inputs": [],
      "name": "licensee",
      "outputs": [
        {
          "internalType": "string",
          "name": "",
          "type": "string"
        }
      ],
      "payable": false,
      "stateMutability": "view",
      "type": "function"
    },
    {
      "constant": true,
      "inputs": [],
      "name": "licensor",
      "outputs": [
        {
          "internalType": "string",
          "name": "",
          "type": "string"
        }
      ],
      "payable": false,
      "stateMutability": "view",
      "type": "function"
    },
    {
      "constant": true,
      "inputs": [],
      "name": "startDate",
      "outputs": [
        {
          "internalType": "string",
          "name": "",
          "type": "string"
        }
      ],
      "payable": false,
      "stateMutability": "view",
      "type": "function"
    },
    {
      "constant": false,
      "inputs": [
        {
          "internalType": "uint256",
          "name": "amount",
          "type": "uint256"
        }
      ],
      "name": "acknowledgePayment",
      "outputs": [],
      "payable": false,
      "stateMutability": "nonpayable",
      "type": "function"
    },
    {
      "constant": false,
      "inputs": [
        {
          "internalType": "uint256",
          "name": "amount",
          "type": "uint256"
        }
      ],
      "name": "computeRoyalty",
      "outputs": [],
      "payable": false,
      "stateMutability": "nonpayable",
      "type": "function"
    },
    {
      "constant": false,
      "inputs": [
        {
          "internalType": "string",
          "name": "x",
          "type": "string"
        }
      ],
      "name": "setLicensee",
      "outputs": [],
      "payable": false,
      "stateMutability": "nonpayable",
      "type": "function"
    },
    {
      "constant": false,
      "inputs": [
        {
          "internalType": "string",
          "name": "x",
          "type": "string"
        }
      ],
      "name": "setLicensor",
      "outputs": [],
      "payable": false,
      "stateMutability": "nonpayable",
      "type": "function"
    },
    {
      "constant": false,
      "inputs": [
        {
          "internalType": "string",
          "name": "x",
          "type": "string"
        }
      ],
      "name": "setDevices",
      "outputs": [],
      "payable": false,
      "stateMutability": "nonpayable",
      "type": "function"
    },
    {
      "constant": false,
      "inputs": [
        {
          "internalType": "string",
          "name": "x",
          "type": "string"
        }
      ],
      "name": "setStartDate",
      "outputs": [],
      "payable": false,
      "stateMutability": "nonpayable",
      "type": "function"
    },
    {
      "constant": false,
      "inputs": [
        {
          "internalType": "uint256",
          "name": "x",
          "type": "uint256"
        }
      ],
      "name": "setDueAmount",
      "outputs": [],
      "payable": false,
      "stateMutability": "nonpayable",
      "type": "function"
    }
  ],
  "bytecode": "0x60806040526040518060400160405280601b81526020017f53616c6c792042656175747920486f6c64696e67732c20496e632e00000000008152506000908051906020019061004f9291906101a9565b506040518060400160405280601681526020017f4f74686572205370656369616c74792053746f726573000000000000000000008152506001908051906020019061009b9291906101a9565b506040518060400160405280600381526020017f3135300000000000000000000000000000000000000000000000000000000000815250600290805190602001906100e79291906101a9565b506040518060400160405280600a81526020017f31302f30382f3230323100000000000000000000000000000000000000000000815250600390805190602001906101339291906101a9565b50606460045534801561014557600080fd5b5061018a6040518060400160405280600381526020017f363636000000000000000000000000000000000000000000000000000000000081525061018f60201b60201c565b61024e565b80600290805190602001906101a59291906101a9565b5050565b828054600181600116156101000203166002900490600052602060002090601f016020900481019282601f106101ea57805160ff1916838001178555610218565b82800160010185558215610218579182015b828111156102175782518255916020019190600101906101fc565b5b5090506102259190610229565b5090565b61024b91905b8082111561024757600081600090555060010161022f565b5090565b90565b610a43806200025e6000396000f3fe608060405234801561001057600080fd5b50600436106100b45760003560e01c80637d42c324116100715780637d42c324146103e6578063911c179214610414578063b917d4fc14610442578063c2042965146104fd578063c30a4d481461051b578063fc7f34ca1461059e576100b4565b80630144f989146100b95780630b97bc861461013c57806324bf2e1d146101bf578063398e1b181461027a5780635e3044cb146102a857806374c0854c1461032b575b600080fd5b6100c1610659565b6040518080602001828103825283818151815260200191508051906020019080838360005b838110156101015780820151818401526020810190506100e6565b50505050905090810190601f16801561012e5780820380516001836020036101000a031916815260200191505b509250505060405180910390f35b6101446106f7565b6040518080602001828103825283818151815260200191508051906020019080838360005b83811015610184578082015181840152602081019050610169565b50505050905090810190601f1680156101b15780820380516001836020036101000a031916815260200191505b509250505060405180910390f35b610278600480360360208110156101d557600080fd5b81019080803590602001906401000000008111156101f257600080fd5b82018360208201111561020457600080fd5b8035906020019184600183028401116401000000008311171561022657600080fd5b91908080601f016020809104026020016040519081016040528093929190818152602001838380828437600081840152601f19601f820116905080830192505050505050509192919290505050610795565b005b6102a66004803603602081101561029057600080fd5b81019080803590602001909291905050506107af565b005b6102b06107b9565b6040518080602001828103825283818151815260200191508051906020019080838360005b838110156102f05780820151818401526020810190506102d5565b50505050905090810190601f16801561031d5780820380516001836020036101000a031916815260200191505b509250505060405180910390f35b6103e46004803603602081101561034157600080fd5b810190808035906020019064010000000081111561035e57600080fd5b82018360208201111561037057600080fd5b8035906020019184600183028401116401000000008311171561039257600080fd5b91908080601f016020809104026020016040519081016040528093929190818152602001838380828437600081840152601f19601f820116905080830192505050505050509192919290505050610857565b005b610412600480360360208110156103fc57600080fd5b8101908080359060200190929190505050610871565b005b6104406004803603602081101561042a57600080fd5b8101908080359060200190929190505050610881565b005b6104fb6004803603602081101561045857600080fd5b810190808035906020019064010000000081111561047557600080fd5b82018360208201111561048757600080fd5b803590602001918460018302840111640100000000831117156104a957600080fd5b91908080601f016020809104026020016040519081016040528093929190818152602001838380828437600081840152601f19601f820116905080830192505050505050509192919290505050610891565b005b6105056108ab565b6040518082815260200191505060405180910390f35b6105236108b1565b6040518080602001828103825283818151815260200191508051906020019080838360005b83811015610563578082015181840152602081019050610548565b50505050905090810190601f1680156105905780820380516001836020036101000a031916815260200191505b509250505060405180910390f35b610657600480360360208110156105b457600080fd5b81019080803590602001906401000000008111156105d157600080fd5b8201836020820111156105e357600080fd5b8035906020019184600183028401116401000000008311171561060557600080fd5b91908080601f016020809104026020016040519081016040528093929190818152602001838380828437600081840152601f19601f82011690508083019250505050505050919291929050505061094f565b005b60018054600181600116156101000203166002900480601f0160208091040260200160405190810160405280929190818152602001828054600181600116156101000203166002900480156106ef5780601f106106c4576101008083540402835291602001916106ef565b820191906000526020600020905b8154815290600101906020018083116106d257829003601f168201915b505050505081565b60038054600181600116156101000203166002900480601f01602080910402602001604051908101604052809291908181526020018280546001816001161561010002031660029004801561078d5780601f106107625761010080835404028352916020019161078d565b820191906000526020600020905b81548152906001019060200180831161077057829003601f168201915b505050505081565b80600090805190602001906107ab929190610969565b5050565b8060048190555050565b60008054600181600116156101000203166002900480601f01602080910402602001604051908101604052809291908181526020018280546001816001161561010002031660029004801561084f5780601f106108245761010080835404028352916020019161084f565b820191906000526020600020905b81548152906001019060200180831161083257829003601f168201915b505050505081565b806003908051906020019061086d929190610969565b5050565b61087e81600454036107af565b50565b61088e81600454016107af565b50565b80600190805190602001906108a7929190610969565b5050565b60045481565b60028054600181600116156101000203166002900480601f0160208091040260200160405190810160405280929190818152602001828054600181600116156101000203166002900480156109475780601f1061091c57610100808354040283529160200191610947565b820191906000526020600020905b81548152906001019060200180831161092a57829003601f168201915b505050505081565b8060029080519060200190610965929190610969565b5050565b828054600181600116156101000203166002900490600052602060002090601f016020900481019282601f106109aa57805160ff19168380011785556109d8565b828001600101855582156109d8579182015b828111156109d75782518255916020019190600101906109bc565b5b5090506109e591906109e9565b5090565b610a0b91905b80821115610a075760008160009055506001016109ef565b5090565b9056fea265627a7a72315820d37a5db81c222eb0a5e70e3eead0b106c100dfae195ba6019ab3948ce439023b64736f6c63430005100032",
  "source": "pragma solidity >=0.4.22 <0.9.0;\r\n\r\ncontract SmartLicense1 {\r\n    string public licensee = \"Sally Beauty Holdings, Inc.\";\r\n    string public licensor = \"Other Specialty Stores\";\r\n    string public devices = \"150\";\r\n    string public startDate = \"10/08/2021\";\r\n\r\n    uint256 public dueAmount = 100;\r\n\r\n    constructor() public {\r\n        setDevices(\"666\");\r\n    }\r\n\r\n    function acknowledgePayment(uint256 amount) public {\r\n        setDueAmount(dueAmount - amount);\r\n    }\r\n\r\n    function computeRoyalty(uint256 amount) public {\r\n        setDueAmount(dueAmount + amount);\r\n    }\r\n\r\n    function setLicensee(string memory x) public {\r\n        licensee = x;\r\n    }\r\n\r\n    function setLicensor(string memory x) public {\r\n        licensor = x;\r\n    }\r\n\r\n    function setDevices(string memory x) public {\r\n        devices = x;\r\n    }\r\n\r\n    function setStartDate(string memory x) public {\r\n        startDate = x;\r\n    }\r\n\r\n    function setDueAmount(uint256 x) public {\r\n        dueAmount = x;\r\n    }\r\n}\r\n",
  "sourcePath": "C:/Users/n3zqi/Desktop/IDP/Dapp/alps-licensee/contracts/SmartLicense1.sol",
  "compiler": {
    "name": "solc",
    "version": "0.5.16+commit.9c3226ce.Emscripten.clang"
  },
  "schemaVersion": "3.3.3",
  "updatedAt": "2021-03-29T13:12:07.443Z",
  "networkType": "ethereum",
  "devdoc": {
    "methods": {}
  },
  "userdoc": {
    "methods": {}
  }
}