{
  "contractName": "VerificationContract",
  "abi": [
    {
      "inputs": [
        {
          "internalType": "string",
          "name": "_attributeName",
          "type": "string"
        }
      ],
      "stateMutability": "nonpayable",
      "type": "constructor"
    },
    {
      "anonymous": false,
      "inputs": [
        {
          "indexed": true,
          "internalType": "address",
          "name": "previousOwner",
          "type": "address"
        },
        {
          "indexed": true,
          "internalType": "address",
          "name": "newOwner",
          "type": "address"
        }
      ],
      "name": "OwnershipTransferred",
      "type": "event"
    },
    {
      "inputs": [
        {
          "internalType": "uint256",
          "name": "",
          "type": "uint256"
        }
      ],
      "name": "attributeHistory",
      "outputs": [
        {
          "internalType": "uint256",
          "name": "collectionTimestamp",
          "type": "uint256"
        }
      ],
      "stateMutability": "view",
      "type": "function",
      "constant": true
    },
    {
      "inputs": [],
      "name": "attributeName",
      "outputs": [
        {
          "internalType": "string",
          "name": "",
          "type": "string"
        }
      ],
      "stateMutability": "view",
      "type": "function",
      "constant": true
    },
    {
      "inputs": [],
      "name": "owner",
      "outputs": [
        {
          "internalType": "address",
          "name": "",
          "type": "address"
        }
      ],
      "stateMutability": "view",
      "type": "function",
      "constant": true
    },
    {
      "inputs": [],
      "name": "renounceOwnership",
      "outputs": [],
      "stateMutability": "nonpayable",
      "type": "function"
    },
    {
      "inputs": [
        {
          "internalType": "address",
          "name": "newOwner",
          "type": "address"
        }
      ],
      "name": "transferOwnership",
      "outputs": [],
      "stateMutability": "nonpayable",
      "type": "function"
    },
    {
      "inputs": [
        {
          "internalType": "uint256",
          "name": "_duration",
          "type": "uint256"
        },
        {
          "internalType": "uint256",
          "name": "_timestamp",
          "type": "uint256"
        }
      ],
      "name": "update",
      "outputs": [],
      "stateMutability": "nonpayable",
      "type": "function"
    },
    {
      "inputs": [
        {
          "internalType": "uint256",
          "name": "_duration",
          "type": "uint256"
        }
      ],
      "name": "update",
      "outputs": [],
      "stateMutability": "nonpayable",
      "type": "function"
    },
    {
      "inputs": [],
      "name": "getAttributeValue",
      "outputs": [
        {
          "components": [
            {
              "internalType": "uint256",
              "name": "collectionTimestamp",
              "type": "uint256"
            },
            {
              "internalType": "uint256[]",
              "name": "currentValues",
              "type": "uint256[]"
            }
          ],
          "internalType": "struct ALPSBase.OracleValue",
          "name": "",
          "type": "tuple"
        },
        {
          "internalType": "bool",
          "name": "",
          "type": "bool"
        }
      ],
      "stateMutability": "view",
      "type": "function",
      "constant": true
    },
    {
      "inputs": [
        {
          "internalType": "uint256",
          "name": "startTime",
          "type": "uint256"
        },
        {
          "internalType": "uint256",
          "name": "endTime",
          "type": "uint256"
        }
      ],
      "name": "getHistory",
      "outputs": [
        {
          "components": [
            {
              "internalType": "uint256",
              "name": "collectionTimestamp",
              "type": "uint256"
            },
            {
              "internalType": "uint256[]",
              "name": "currentValues",
              "type": "uint256[]"
            }
          ],
          "internalType": "struct ALPSBase.OracleValue[]",
          "name": "",
          "type": "tuple[]"
        }
      ],
      "stateMutability": "view",
      "type": "function",
      "constant": true
    },
    {
      "inputs": [
        {
          "internalType": "uint256",
          "name": "startTime",
          "type": "uint256"
        },
        {
          "internalType": "uint256",
          "name": "endTime",
          "type": "uint256"
        }
      ],
      "name": "getCumulativeHistory",
      "outputs": [
        {
          "internalType": "uint256[]",
          "name": "",
          "type": "uint256[]"
        }
      ],
      "stateMutability": "view",
      "type": "function",
      "constant": true
    },
    {
      "inputs": [],
      "name": "subscribe",
      "outputs": [],
      "stateMutability": "pure",
      "type": "function",
      "constant": true
    },
    {
      "inputs": [],
      "name": "forceUpdate",
      "outputs": [],
      "stateMutability": "nonpayable",
      "type": "function"
    },
    {
      "inputs": [],
      "name": "stopSubscribe",
      "outputs": [],
      "stateMutability": "pure",
      "type": "function",
      "constant": true
    },
    {
      "inputs": [],
      "name": "getTimer",
      "outputs": [],
      "stateMutability": "view",
      "type": "function",
      "constant": true
    }
  ],
  "bytecode": "0x60806040523480156200001157600080fd5b5060405162001ab538038062001ab5833981810160405281019062000037919062000390565b620000576200004b6200007760201b60201c565b6200007f60201b60201c565b80600190805190602001906200006f92919062000143565b505062000445565b600033905090565b60008060009054906101000a900473ffffffffffffffffffffffffffffffffffffffff169050816000806101000a81548173ffffffffffffffffffffffffffffffffffffffff021916908373ffffffffffffffffffffffffffffffffffffffff1602179055508173ffffffffffffffffffffffffffffffffffffffff168173ffffffffffffffffffffffffffffffffffffffff167f8be0079c531659141344cd1fd0a4f28419497f9722a3daafe3b4186f6b6457e060405160405180910390a35050565b828054620001519062000410565b90600052602060002090601f016020900481019282620001755760008555620001c1565b82601f106200019057805160ff1916838001178555620001c1565b82800160010185558215620001c1579182015b82811115620001c0578251825591602001919060010190620001a3565b5b509050620001d09190620001d4565b5090565b5b80821115620001ef576000816000905550600101620001d5565b5090565b6000604051905090565b600080fd5b600080fd5b600080fd5b600080fd5b6000601f19601f8301169050919050565b7f4e487b7100000000000000000000000000000000000000000000000000000000600052604160045260246000fd5b6200025c8262000211565b810181811067ffffffffffffffff821117156200027e576200027d62000222565b5b80604052505050565b600062000293620001f3565b9050620002a1828262000251565b919050565b600067ffffffffffffffff821115620002c457620002c362000222565b5b620002cf8262000211565b9050602081019050919050565b60005b83811015620002fc578082015181840152602081019050620002df565b838111156200030c576000848401525b50505050565b6000620003296200032384620002a6565b62000287565b9050828152602081018484840111156200034857620003476200020c565b5b62000355848285620002dc565b509392505050565b600082601f83011262000375576200037462000207565b5b81516200038784826020860162000312565b91505092915050565b600060208284031215620003a957620003a8620001fd565b5b600082015167ffffffffffffffff811115620003ca57620003c962000202565b5b620003d8848285016200035d565b91505092915050565b7f4e487b7100000000000000000000000000000000000000000000000000000000600052602260045260246000fd5b600060028204905060018216806200042957607f821691505b6020821081036200043f576200043e620003e1565b5b50919050565b61166080620004556000396000f3fe608060405234801561001057600080fd5b50600436106100ea5760003560e01c80638da5cb5b1161008c5780639ca43611116100665780639ca43611146101da578063a7203d341461020a578063ab4c49ba14610214578063f2fde38b14610244576100ea565b80638da5cb5b146101945780638f449a05146101b25780638fb1fcfe146101bc576100ea565b80636906679b116100c85780636906679b146101345780637046525114610164578063715018a61461016e57806382ab890a14610178576100ea565b8063175669ab146100ef5780632fb565e81461010e5780633acaa0d71461012a575b600080fd5b6100f7610260565b604051610105929190610ebe565b60405180910390f35b61012860048036038101906101239190610f1f565b61033a565b005b61013261049e565b005b61014e60048036038101906101499190610f1f565b6104a0565b60405161015b919061105e565b60405180910390f35b61016c6106f5565b005b6101766106f7565b005b610192600480360381019061018d9190611080565b61077f565b005b61019c6108e2565b6040516101a991906110ee565b60405180910390f35b6101ba61090b565b005b6101c461090d565b6040516101d191906111a2565b60405180910390f35b6101f460048036038101906101ef9190610f1f565b61099b565b6040516102019190611233565b60405180910390f35b610212610b27565b005b61022e60048036038101906102299190611080565b610b29565b60405161023b9190611264565b60405180910390f35b61025e600480360381019061025991906112ab565b610b57565b005b610268610d1a565b6000806002805490501115610325576002600160028054905061028b9190611307565b8154811061029c5761029b61133b565b5b9060005260206000209060020201600181604051806040016040529081600082015481526020016001820180548060200260200160405190810160405280929190818152602001828054801561031157602002820191906000526020600020905b8154815260200190600101908083116102fd575b505050505081525050915091509150610336565b61032d610d1a565b80600092509250505b9091565b600060028054905011156103c157806002600160028054905061035d9190611307565b8154811061036e5761036d61133b565b5b906000526020600020906002020160000154116103c0576040517f08c379a00000000000000000000000000000000000000000000000000000000081526004016103b7906113b6565b60405180910390fd5b5b6000600167ffffffffffffffff8111156103de576103dd6113d6565b5b60405190808252806020026020018201604052801561040c5781602001602082028036833780820191505090505b50905082816000815181106104245761042361133b565b5b60200260200101818152505060026040518060400160405280848152602001838152509080600181540180825580915050600190039060005260206000209060020201600090919091909150600082015181600001556020820151816001019080519060200190610496929190610d34565b505050505050565b565b606080828411156104b457809150506106ef565b60006002805490509050600081116104d05781925050506106ef565b60008082905060006001846104e59190611307565b90505b6000811061057c57600281815481106105045761050361133b565b5b906000526020600020906002020160000154871061056957838203610527578091505b6002818154811061053b5761053a61133b565b5b906000526020600020906002020160000154881115610568576001816105619190611405565b925061057c565b5b80806105749061145b565b9150506104e8565b5060006001838361058d9190611307565b6105979190611405565b9050838214806105a75750600081145b156105b95784955050505050506106ef565b8067ffffffffffffffff8111156105d3576105d26113d6565b5b60405190808252806020026020018201604052801561060c57816020015b6105f9610d1a565b8152602001906001900390816105f15790505b50945060005b818110156106e557600281846106289190611307565b815481106106395761063861133b565b5b906000526020600020906002020160405180604001604052908160008201548152602001600182018054806020026020016040519081016040528092919081815260200182805480156106ab57602002820191906000526020600020905b815481526020019060010190808311610697575b5050505050815250508682815181106106c7576106c661133b565b5b602002602001018190525080806106dd90611484565b915050610612565b5084955050505050505b92915050565b565b6106ff610c4e565b73ffffffffffffffffffffffffffffffffffffffff1661071d6108e2565b73ffffffffffffffffffffffffffffffffffffffff1614610773576040517f08c379a000000000000000000000000000000000000000000000000000000000815260040161076a90611518565b60405180910390fd5b61077d6000610c56565b565b600060028054905011156108065742600260016002805490506107a29190611307565b815481106107b3576107b261133b565b5b90600052602060002090600202016000015411610805576040517f08c379a00000000000000000000000000000000000000000000000000000000081526004016107fc906113b6565b60405180910390fd5b5b6000600167ffffffffffffffff811115610823576108226113d6565b5b6040519080825280602002602001820160405280156108515781602001602082028036833780820191505090505b50905081816000815181106108695761086861133b565b5b602002602001018181525050600260405180604001604052804281526020018381525090806001815401808255809150506001900390600052602060002090600202016000909190919091506000820151816000015560208201518160010190805190602001906108db929190610d34565b5050505050565b60008060009054906101000a900473ffffffffffffffffffffffffffffffffffffffff16905090565b565b6001805461091a90611567565b80601f016020809104026020016040519081016040528092919081815260200182805461094690611567565b80156109935780601f1061096857610100808354040283529160200191610993565b820191906000526020600020905b81548152906001019060200180831161097657829003601f168201915b505050505081565b606080828411156109af5780915050610b21565b60006002805490509050600081116109cb578192505050610b21565b6000806001836109db9190611307565b90505b60008110610aa257600281815481106109fa576109f961133b565b5b9060005260206000209060020201600001548610610a8f5760028181548110610a2657610a2561133b565b5b9060005260206000209060020201600001548711610aa25760028181548110610a5257610a5161133b565b5b9060005260206000209060020201600101600081548110610a7657610a7561133b565b5b906000526020600020015482610a8c9190611405565b91505b8080610a9a9061145b565b9150506109de565b506000811115610b1a57600167ffffffffffffffff811115610ac757610ac66113d6565b5b604051908082528060200260200182016040528015610af55781602001602082028036833780820191505090505b5092508083600081518110610b0d57610b0c61133b565b5b6020026020010181815250505b8293505050505b92915050565b565b60028181548110610b3957600080fd5b90600052602060002090600202016000915090508060000154905081565b610b5f610c4e565b73ffffffffffffffffffffffffffffffffffffffff16610b7d6108e2565b73ffffffffffffffffffffffffffffffffffffffff1614610bd3576040517f08c379a0000000000000000000000000000000000000000000000000000000008152600401610bca90611518565b60405180910390fd5b600073ffffffffffffffffffffffffffffffffffffffff168173ffffffffffffffffffffffffffffffffffffffff1603610c42576040517f08c379a0000000000000000000000000000000000000000000000000000000008152600401610c399061160a565b60405180910390fd5b610c4b81610c56565b50565b600033905090565b60008060009054906101000a900473ffffffffffffffffffffffffffffffffffffffff169050816000806101000a81548173ffffffffffffffffffffffffffffffffffffffff021916908373ffffffffffffffffffffffffffffffffffffffff1602179055508173ffffffffffffffffffffffffffffffffffffffff168173ffffffffffffffffffffffffffffffffffffffff167f8be0079c531659141344cd1fd0a4f28419497f9722a3daafe3b4186f6b6457e060405160405180910390a35050565b604051806040016040528060008152602001606081525090565b828054828255906000526020600020908101928215610d70579160200282015b82811115610d6f578251825591602001919060010190610d54565b5b509050610d7d9190610d81565b5090565b5b80821115610d9a576000816000905550600101610d82565b5090565b6000819050919050565b610db181610d9e565b82525050565b600081519050919050565b600082825260208201905092915050565b6000819050602082019050919050565b6000610def8383610da8565b60208301905092915050565b6000602082019050919050565b6000610e1382610db7565b610e1d8185610dc2565b9350610e2883610dd3565b8060005b83811015610e59578151610e408882610de3565b9750610e4b83610dfb565b925050600181019050610e2c565b5085935050505092915050565b6000604083016000830151610e7e6000860182610da8565b5060208301518482036020860152610e968282610e08565b9150508091505092915050565b60008115159050919050565b610eb881610ea3565b82525050565b60006040820190508181036000830152610ed88185610e66565b9050610ee76020830184610eaf565b9392505050565b600080fd5b610efc81610d9e565b8114610f0757600080fd5b50565b600081359050610f1981610ef3565b92915050565b60008060408385031215610f3657610f35610eee565b5b6000610f4485828601610f0a565b9250506020610f5585828601610f0a565b9150509250929050565b600081519050919050565b600082825260208201905092915050565b6000819050602082019050919050565b6000604083016000830151610fa36000860182610da8565b5060208301518482036020860152610fbb8282610e08565b9150508091505092915050565b6000610fd48383610f8b565b905092915050565b6000602082019050919050565b6000610ff482610f5f565b610ffe8185610f6a565b93508360208202850161101085610f7b565b8060005b8581101561104c578484038952815161102d8582610fc8565b945061103883610fdc565b925060208a01995050600181019050611014565b50829750879550505050505092915050565b600060208201905081810360008301526110788184610fe9565b905092915050565b60006020828403121561109657611095610eee565b5b60006110a484828501610f0a565b91505092915050565b600073ffffffffffffffffffffffffffffffffffffffff82169050919050565b60006110d8826110ad565b9050919050565b6110e8816110cd565b82525050565b600060208201905061110360008301846110df565b92915050565b600081519050919050565b600082825260208201905092915050565b60005b83811015611143578082015181840152602081019050611128565b83811115611152576000848401525b50505050565b6000601f19601f8301169050919050565b600061117482611109565b61117e8185611114565b935061118e818560208601611125565b61119781611158565b840191505092915050565b600060208201905081810360008301526111bc8184611169565b905092915050565b600082825260208201905092915050565b60006111e082610db7565b6111ea81856111c4565b93506111f583610dd3565b8060005b8381101561122657815161120d8882610de3565b975061121883610dfb565b9250506001810190506111f9565b5085935050505092915050565b6000602082019050818103600083015261124d81846111d5565b905092915050565b61125e81610d9e565b82525050565b60006020820190506112796000830184611255565b92915050565b611288816110cd565b811461129357600080fd5b50565b6000813590506112a58161127f565b92915050565b6000602082840312156112c1576112c0610eee565b5b60006112cf84828501611296565b91505092915050565b7f4e487b7100000000000000000000000000000000000000000000000000000000600052601160045260246000fd5b600061131282610d9e565b915061131d83610d9e565b9250828210156113305761132f6112d8565b5b828203905092915050565b7f4e487b7100000000000000000000000000000000000000000000000000000000600052603260045260246000fd5b7f496e636f6d70617469626c6520286f6c646572292074696d657374616d702e00600082015250565b60006113a0601f83611114565b91506113ab8261136a565b602082019050919050565b600060208201905081810360008301526113cf81611393565b9050919050565b7f4e487b7100000000000000000000000000000000000000000000000000000000600052604160045260246000fd5b600061141082610d9e565b915061141b83610d9e565b9250827fffffffffffffffffffffffffffffffffffffffffffffffffffffffffffffffff038211156114505761144f6112d8565b5b828201905092915050565b600061146682610d9e565b915060008203611479576114786112d8565b5b600182039050919050565b600061148f82610d9e565b91507fffffffffffffffffffffffffffffffffffffffffffffffffffffffffffffffff82036114c1576114c06112d8565b5b600182019050919050565b7f4f776e61626c653a2063616c6c6572206973206e6f7420746865206f776e6572600082015250565b6000611502602083611114565b915061150d826114cc565b602082019050919050565b60006020820190508181036000830152611531816114f5565b9050919050565b7f4e487b7100000000000000000000000000000000000000000000000000000000600052602260045260246000fd5b6000600282049050600182168061157f57607f821691505b60208210810361159257611591611538565b5b50919050565b7f4f776e61626c653a206e6577206f776e657220697320746865207a65726f206160008201527f6464726573730000000000000000000000000000000000000000000000000000602082015250565b60006115f4602683611114565b91506115ff82611598565b604082019050919050565b60006020820190508181036000830152611623816115e7565b905091905056fea26469706673582212207d58e547baba28b7a568f7f61fed708ef7ba299467fbe43b109e98781e02c79164736f6c634300080d0033",
  "immutableReferences": {},
  "source": "// SPDX-License-Identifier: MIT\r\npragma solidity >=0.4.22 <0.9.0;\r\n\r\n// unique to 1 Attribute\r\n//TODO: all attribute values are unit256\r\n//TODO: add events\r\n\r\nimport \"./ALPSBase.sol\";\r\nimport \"@openzeppelin/contracts/access/Ownable.sol\";\r\n\r\ninterface Verification is ALPSBase {\r\n    /*\r\n    This oracle gateway interface manages oracles that only manage attributes of type int\r\n    */\r\n    function getAttributeValue()\r\n        external\r\n        view\r\n        returns (OracleValue memory, bool);\r\n\r\n    function getHistory(uint256, uint256)\r\n        external\r\n        view\r\n        returns (OracleValue[] memory);\r\n\r\nfunction getCumulativeHistory(uint256 , uint256)\r\n        external\r\n        view\r\n        returns (uint256[] memory);\r\n\r\n    function subscribe() external pure;\r\n\r\n    function forceUpdate() external;\r\n\r\n    function stopSubscribe() external pure;\r\n\r\n    function getTimer() external view;\r\n\r\n    //function update(\r\n    //    uint256,\r\n    //    uint256,\r\n    //    uint256\r\n    //) external;\r\n\r\n    //function update(OracleValue) external;\r\n}\r\n\r\n/*\r\nSingle int value oracle gateway\r\ne.g. duration of sensor usage\r\n*/\r\ncontract VerificationContract is Verification, Ownable {\r\n    //uint256 public immutable attributeId;\r\n    string public attributeName;\r\n\r\n    // Attribute current value and last time always are the first element in the history\r\n\r\n    OracleValue[] public attributeHistory;\r\n\r\n    constructor(string memory _attributeName) {\r\n        attributeName = _attributeName;\r\n    }\r\n/*\r\n        struct OracleValue {\r\n        uint256 collectionTimestamp;\r\n        uint256[] currentValues;\r\n    }\r\n*/\r\n    function update(\r\n        uint256 _duration\r\n    ) public{\r\n        if(attributeHistory.length>0){\r\n            //if there exists a previous element\r\n            require(attributeHistory[attributeHistory.length-1].collectionTimestamp>block.timestamp,\"Incompatible (older) timestamp.\");\r\n        }\r\n        uint256[] memory valuesArr = new uint256[](1);\r\n        valuesArr[0] = _duration;\r\n\r\n        attributeHistory.push(\r\n            OracleValue({\r\n                currentValues: valuesArr,\r\n                collectionTimestamp: block.timestamp\r\n            })\r\n        );\r\n    }\r\n    function update(\r\n        uint256 _duration,\r\n        uint256 _timestamp\r\n    ) public{\r\n        if(attributeHistory.length>0){\r\n            //if there exists a previous element\r\n            require(attributeHistory[attributeHistory.length-1].collectionTimestamp>_timestamp,\"Incompatible (older) timestamp.\");\r\n        }\r\n        uint256[] memory valuesArr = new uint256[](1);\r\n        valuesArr[0] = _duration;\r\n\r\n        attributeHistory.push(\r\n            OracleValue({\r\n                currentValues: valuesArr,\r\n                collectionTimestamp: _timestamp\r\n            })\r\n        );\r\n    }\r\n\r\n    // Returns the latest attribute value.\r\n    // If no value is present returns (empty, false)\r\n    function getAttributeValue()\r\n        external\r\n        view\r\n        override\r\n        returns (OracleValue memory, bool)\r\n    {\r\n        if (attributeHistory.length>0) {\r\n            return (attributeHistory[attributeHistory.length-1], true);\r\n        }else{\r\n            OracleValue memory emptyOracleValue;\r\n            return (emptyOracleValue, false);\r\n        }\r\n    }\r\n\r\n    // Gets all history between those two timestamps included\r\n    function getHistory(uint256 startTime, uint256 endTime)\r\n        public\r\n        view\r\n        override\r\n        returns (OracleValue[] memory)\r\n    {\r\n        OracleValue[] memory result;\r\n        if(startTime>endTime){\r\n            return result;\r\n        }\r\n        uint256 size = attributeHistory.length;\r\n        if(size<=0){\r\n            return result;\r\n        }\r\n        //PRE: values are sorted by timestamp (first item is the oldest and so on)\r\n        /*\r\n        //reasonable version if Solidity was collaborating\r\n        for (uint256 i = size-1; i >=0; i--) {\r\n            if(endTime < attributeHistory[i].collectionTimestamp){\r\n                continue;\r\n            }else{\r\n                if(startTime>attributeHistory[i].collectionTimestamp){\r\n                    break;\r\n                }else{\r\n                    //the result has inverted order, i.e. most recent elements first\r\n                    result.push(attributeHistory[i]);\r\n                }\r\n            }\r\n        }*/\r\n        //longer version to accomodate solidity\r\n        //1) find indexes of first and last element\r\n        //attributeHistory.length means invalid value (is the first index outsude of the array idxs)\r\n        uint256 startIdx = 0;\r\n        uint256 endIdx = size;\r\n        for (uint256 i = size-1; i >= 0; i--) {\r\n            if(endTime < attributeHistory[i].collectionTimestamp){\r\n                continue;\r\n            }else{\r\n                if(endIdx==size){\r\n                    endIdx = i;\r\n                }\r\n                if(startTime>attributeHistory[i].collectionTimestamp){\r\n                    startIdx = i+1;\r\n                    break;\r\n                }else{\r\n                    continue;\r\n                }\r\n            }\r\n        }\r\n        uint256 newSize = endIdx-startIdx+1;\r\n        if((endIdx==size)||(newSize==0)){\r\n            //no element was found in the interval\r\n            return result;\r\n        }\r\n        result = new OracleValue[](newSize);\r\n        for (uint256 i = 0; i < newSize; i++) {\r\n            result[i] = attributeHistory[endIdx-i];\r\n        }\r\n\r\n        return result;\r\n    }\r\n\r\n    // Gets the sum of all historic values between those two timestamps included\r\n    function getCumulativeHistory(uint256 startTime, uint256 endTime)\r\n        public\r\n        view\r\n        override\r\n        returns (uint256[] memory)\r\n    {\r\n        uint256[] memory result;\r\n        if(startTime>endTime){\r\n            return result;\r\n        }\r\n        uint256 size = attributeHistory.length;\r\n        if(size<=0){\r\n            return result;\r\n        }\r\n        //PRE: values are sorted by timestamp (first item is the oldest and so on)\r\n        uint256 sum = 0;\r\n        for (uint256 i = size-1; i >=0; i--) {\r\n            if(endTime < attributeHistory[i].collectionTimestamp){\r\n                continue;\r\n            }else{\r\n                if(startTime>attributeHistory[i].collectionTimestamp){\r\n                    break;\r\n                }else{\r\n                    //the result has inverted order, i.e. most recent elements first\r\n                    sum = sum + attributeHistory[i].currentValues[0];\r\n                }\r\n            }\r\n        }\r\n        if(sum > 0){\r\n            result = new uint256[](1);\r\n            result[0] = sum;\r\n        }\r\n        return result;\r\n    }\r\n\r\n    function subscribe() external pure override {\r\n        // emit event that is want to subscribe to this service with the Id of the ext server\r\n    }\r\n\r\n    function forceUpdate() external override {}\r\n\r\n    function stopSubscribe() external pure override {}\r\n\r\n    function getTimer() external view override {}\r\n}\r\n\r\n",
  "sourcePath": "C:\\Users\\n3zqi\\Desktop\\ALPS-Dapp-IDP\\alps-licensee\\contracts\\Verification.sol",
  "compiler": {
    "name": "solc",
    "version": "0.8.13+commit.abaa5c0e.Emscripten.clang"
  },
  "schemaVersion": "3.4.4",
  "updatedAt": "2022-04-21T09:33:03.717Z",
  "networkType": "ethereum",
  "devdoc": {
    "kind": "dev",
    "methods": {
      "owner()": {
        "details": "Returns the address of the current owner."
      },
      "renounceOwnership()": {
        "details": "Leaves the contract without owner. It will not be possible to call `onlyOwner` functions anymore. Can only be called by the current owner. NOTE: Renouncing ownership will leave the contract without an owner, thereby removing any functionality that is only available to the owner."
      },
      "transferOwnership(address)": {
        "details": "Transfers ownership of the contract to a new account (`newOwner`). Can only be called by the current owner."
      }
    },
    "version": 1
  },
  "userdoc": {
    "kind": "user",
    "methods": {},
    "version": 1
  }
}